:100000000C9472000C9493000C9493000C94930045
:100010000C9493000C9493000C9493000C94930014
:100020000C9493000C9493000C9493000C94930004
:100030000C9493000C9493000C9493000C949300F4
:100040000C9493000C9493000C9493000C949300E4
:100050000C9493000C9493000C9493000C949300D4
:100060000C9493000C9493000C9493000C949300C4
:100070000C9493000C9493000C9493000C949300B4
:100080000C9493000C9493000C9493000C949300A4
:100090000C94070B0C9493000C9493000C94930015
:1000A0000C9493000C9493000C9493000C94930084
:1000B0000C9493000C9493000C9493000C94930074
:1000C0000C9493000C9493000C9493000C94930064
:1000D0000C9493000C9493000C9493000C94930054
:1000E0000C94930011241FBECFEFD1E2DEBFCDBF31
:1000F00000E00CBF12E0A0E0B2E0E4E3F3E200E0D5
:100100000BBF02C007900D92A831B107D9F713E0D9
:10011000A8E1B2E001C01D92A336B107E1F70E9449
:10012000BF0B0C9498110C9400000F931F93DF9356
:10013000CF93CDB7DEB7C057D0400FB6F894DEBF2F
:100140000FBECDBFFE01E359FF4F80E090E0A0E875
:10015000BFE380839183A283B3838E0107591F4F2E
:10016000FE01E359FF4F608171818281938126E610
:1001700036E646E655E40E94AA0DDC01CB01F80103
:1001800080839183A283B383FE01E759FF4F60818F
:1001900071818281938120E030E040E85FE30E943A
:1001A000040F882344F4FE01E959FF4F81E090E0F9
:1001B0009183808364C0FE01E759FF4F60817181A4
:1001C0008281938120E03FEF4FE757E40E94A40E25
:1001D00018160CF043C0FE01E359FF4F6081718196
:1001E0008281938120E030E040E251E40E94AA0D38
:1001F000DC01CB018E0109591F4FBC01CD010E94CA
:10020000D40BDC01CB01F801918380831FC0FE0178
:10021000EB59FF4F80E791E091838083FE01EB591A
:10022000FF4F808191810197F1F7FE01EB59FF4F5C
:1002300091838083DE01A959BF4FFE01E959FF4F29
:1002400080819181019711969C938E93FE01E959CB
:10025000FF4F808191810097D1F627C08E01095907
:100260001F4FFE01E759FF4F6081718182819381A9
:100270000E94D40BDC01CB01F80191838083DE0165
:10028000AD59BF4FFE01E959FF4F808191818D9398
:100290009C93FE01ED59FF4F808191810197F1F709
:1002A000FE01ED59FF4F91838083A8E2B0E0E8E2C0
:1002B000F0E080818E7F8C93A8E2B0E0E8E2F0E08D
:1002C00080818D7F8C93E8E2F0E080E38083A8E278
:1002D000B0E0E8E2F0E0808184608C93FE01E15AB6
:1002E000FF4F80E090E0A0EAB0E480839183A28396
:1002F000B3838E01055A1F4FFE01E15AFF4F608103
:1003000071818281938126E636E646E655E40E94B5
:10031000AA0DDC01CB01F80180839183A283B38312
:10032000FE01E55AFF4F608171818281938120E057
:1003300030E040E85FE30E94040F882344F4FE01AC
:10034000E75AFF4F81E090E09183808364C0FE0113
:10035000E55AFF4F608171818281938120E03FEFF8
:100360004FE757E40E94A40E18160CF043C0FE019C
:10037000E15AFF4F608171818281938120E030E0FA
:1003800040E251E40E94AA0DDC01CB018E01075A24
:100390001F4FBC01CD010E94D40BDC01CB01F80141
:1003A000918380831FC0FE01E95AFF4F80E791E0EF
:1003B00091838083FE01E95AFF4F808191810197EB
:1003C000F1F7FE01E95AFF4F91838083DE01A75ABE
:1003D000BF4FFE01E75AFF4F80819181019711962F
:1003E0009C938E93FE01E75AFF4F80819181009785
:1003F000D1F627C08E01075A1F4FFE01E55AFF4F65
:1004000060817181828193810E94D40BDC01CB01D8
:10041000F80191838083DE01AB5ABF4FFE01E75A9A
:10042000FF4F808191818D939C93FE01EB5AFF4F8A
:10043000808191810197F1F7FE01EB5AFF4F918383
:100440008083A8E2B0E0E8E2F0E080818B7F8C93CB
:10045000FE01EF5AFF4F80E090E0A0E8BFE3808309
:100460009183A283B3838E01035B1F4FFE01EF5A7A
:10047000FF4F608171818281938126E636E646E6F0
:1004800055E40E94AA0DDC01CB01F8018083918321
:10049000A283B383FE01E35BFF4F608171818281A0
:1004A000938120E030E040E85FE30E94040F88235E
:1004B00044F4FE01E55BFF4F81E090E0918380838F
:1004C00064C0FE01E35BFF4F608171818281938193
:1004D00020E03FEF4FE757E40E94A40E18160CF0FF
:1004E00043C0FE01EF5AFF4F608171818281938189
:1004F00020E030E040E251E40E94AA0DDC01CB0193
:100500008E01055B1F4FBC01CD010E94D40BDC01A5
:10051000CB01F801918380831FC0FE01E75BFF4F91
:1005200080E791E091838083FE01E75BFF4F80814C
:1005300091810197F1F7FE01E75BFF4F9183808383
:10054000DE01A55BBF4FFE01E55BFF4F808191811E
:10055000019711969C938E93FE01E55BFF4F80817E
:1005600091810097D1F627C08E01055B1F4FFE01D8
:10057000E35BFF4F60817181828193810E94D40B84
:10058000DC01CB01F80191838083DE01A95BBF4FC1
:10059000FE01E55BFF4F808191818D939C93FE016D
:1005A000E95BFF4F808191810197F1F7FE01E95BE3
:1005B000FF4F91838083A8E2B0E0E8E2F0E0808121
:1005C0008E7F8C93A8E2B0E0E8E2F0E080818D7F3E
:1005D0008C93E8E2F0E080E38083A8E2B0E0E8E218
:1005E000F0E0808184608C93FE01ED5BFF4F80E042
:1005F00090E0A0EAB0E480839183A283B3838E016C
:10060000015C1F4FFE01ED5BFF4F608171818281B4
:10061000938126E636E646E655E40E94AA0DDC0103
:10062000CB01F80180839183A283B383FE01FF96FF
:10063000608171818281938120E030E040E85FE356
:100640000E94040F88232CF481E090E09EAF8DAFD0
:1006500046C0FE01FF96608171818281938120E016
:100660003FEF4FE757E40E94A40E181664F5FE0111
:10067000ED5BFF4F608171818281938120E030E0EA
:1006800040E251E40E94AA0DDC01CB01BC01CD0186
:100690000E94D40BDC01CB019EAF8DAF0FC080E771
:1006A00091E09CAF8BAF8BAD9CAD0197F1F79CAF08
:1006B0008BAF8DAD9EAD01979EAF8DAF8DAD9EADD5
:1006C000009769F716C0FE01FF96608171818281F3
:1006D00093810E94D40BDC01CB019EAF8DAF8DAD19
:1006E0009EAD9AAF89AF89AD9AAD0197F1F79AAFF8
:1006F00089AFA8E2B0E0E8E2F0E080818B7F8C93E4
:1007000080E090E0A0E8BFE38DAB9EABAFABB8AFAD
:100710006DA97EA98FA998AD26E636E646E655E492
:100720000E94AA0DDC01CB0189AB9AABABABBCAB91
:1007300069A97AA98BA99CA920E030E040E85FE391
:100740000E94040F88232CF481E090E098AB8FA7DF
:100750003FC069A97AA98BA99CA920E03FEF4FE788
:1007600057E40E94A40E18164CF56DA97EA98FA916
:1007700098AD20E030E040E251E40E94AA0DDC0197
:10078000CB01BC01CD010E94D40BDC01CB0198ABA5
:100790008FA70FC080E791E09EA78DA78DA59EA58E
:1007A0000197F1F79EA78DA78FA598A9019798AB00
:1007B0008FA78FA598A9009769F714C069A97AA98E
:1007C0008BA99CA90E94D40BDC01CB0198AB8FA70D
:1007D0008FA598A99CA78BA78BA59CA50197F1F73E
:1007E0009CA78BA7A8E2B0E0E8E2F0E080818E7FD2
:1007F0008C93A8E2B0E0E8E2F0E080818D7F8C93FA
:10080000E8E2F0E080E38083A8E2B0E0E8E2F0E034
:10081000808184608C9380E090E0A0EAB0E48FA3B4
:1008200098A7A9A7BAA76FA178A589A59AA526E632
:1008300036E646E655E40E94AA0DDC01CB018BA307
:100840009CA3ADA3BEA36BA17CA18DA19EA120E022
:1008500030E040E85FE30E94040F88232CF481E03D
:1008600090E09AA389A33FC06BA17CA18DA19EA11A
:1008700020E03FEF4FE757E40E94A40E18164CF516
:100880006FA178A589A59AA520E030E040E251E467
:100890000E94AA0DDC01CB01BC01CD010E94D40B4A
:1008A000DC01CB019AA389A30FC080E791E098A354
:1008B0008F8F8F8D98A10197F1F798A38F8F89A1C2
:1008C0009AA101979AA389A389A19AA1009769F790
:1008D00014C06BA17CA18DA19EA10E94D40BDC0150
:1008E000CB019AA389A389A19AA19E8F8D8F8D8D0B
:1008F0009E8D0197F1F79E8F8D8FA8E2B0E0E8E220
:10090000F0E080818B7F8C9380E090E0A0E8BFE3F3
:10091000898F9A8FAB8FBC8F698D7A8D8B8D9C8DD3
:1009200026E636E646E655E40E94AA0DDC01CB0138
:100930008D8B9E8BAF8BB88F6D897E898F89988DBB
:1009400020E030E040E85FE30E94040F88232CF4AD
:1009500081E090E09C8B8B8B3FC06D897E898F8975
:10096000988D20E03FEF4FE757E40E94A40E181641
:100970004CF5698D7A8D8B8D9C8D20E030E040E2C6
:1009800051E40E94AA0DDC01CB01BC01CD010E9403
:10099000D40BDC01CB019C8B8B8B0FC080E791E0EB
:1009A0009A8B898B89899A890197F1F79A8B898B20
:1009B0008B899C8901979C8B8B8B8B899C89009759
:1009C00069F714C06D897E898F89988D0E94D40B38
:1009D000DC01CB019C8B8B8B8B899C89988B8F87BF
:1009E0008F8598890197F1F7988B8F87A8E2B0E0FF
:1009F000E8E2F0E080818E7F8C93A8E2B0E0E8E24C
:100A0000F0E080818D7F8C93E8E2F0E080E28083EB
:100A1000A8E2B0E0E8E2F0E0808184608C9380E0BE
:100A200090E0A0EAB0E48B879C87AD87BE876B859A
:100A30007C858D859E8526E636E646E655E40E9451
:100A4000AA0DDC01CB018F839887A987BA876F81B4
:100A5000788589859A8520E030E040E85FE30E9450
:100A6000040F88232CF481E090E09E838D833FC0A7
:100A70006F81788589859A8520E03FEF4FE757E4BD
:100A80000E94A40E18164CF56B857C858D859E857D
:100A900020E030E040E251E40E94AA0DDC01CB01ED
:100AA000BC01CD010E94D40BDC01CB019E838D8360
:100AB0000FC080E791E09C838B838B819C810197A1
:100AC000F1F79C838B838D819E8101979E838D831B
:100AD0008D819E81009769F714C06F817885898523
:100AE0009A850E94D40BDC01CB019E838D838D817E
:100AF0009E819A83898389819A810197F1F79A83EC
:100B00008983A8E2B0E0E8E2F0E080818B7F8C93FB
:100B1000C059DF4F0FB6F894DEBF0FBECDBFCF91E7
:100B2000DF911F910F910895DF93CF93CDB7DEB77B
:100B30002E970FB6F894DEBF0FBECDBF80E090E0D9
:100B4000A0E8BFE38B879C87AD87BE876B857C85DC
:100B50008D859E8526E636E646E655E40E94AA0D7A
:100B6000DC01CB018F839887A987BA876F8178854D
:100B700089859A8520E030E040E85FE30E94040F19
:100B800088232CF481E090E09E838D833FC06F81A9
:100B9000788589859A8520E03FEF4FE757E40E94EA
:100BA000A40E18164CF56B857C858D859E8520E0FE
:100BB00030E040E251E40E94AA0DDC01CB01BC010F
:100BC000CD010E94D40BDC01CB019E838D830FC02D
:100BD00080E791E09C838B838B819C810197F1F767
:100BE0009C838B838D819E8101979E838D838D81D4
:100BF0009E81009769F714C06F81788589859A85F1
:100C00000E94D40BDC01CB019E838D838D819E815C
:100C10009A83898389819A810197F1F79A838983DD
:100C200088E20E94280684E10E9428068CE00E9447
:100C3000280686E00E94280681E00E9428062E965B
:100C40000FB6F894DEBF0FBECDBFCF91DF910895F0
:100C5000DF93CF93CDB7DEB76E970FB6F894DEBFB4
:100C60000FBECDBF8E8F8E8D8D8F8D8D807F8D8FA2
:100C7000A8E2B0E0E8E2F0E080818F708C93A8E217
:100C8000B0E0E8E2F0E090818D8D892B8C93A8E2B2
:100C9000B0E0E8E2F0E080818E7F8C93A8E2B0E0E3
:100CA000E8E2F0E080818D7F8C93A8E2B0E0E8E29A
:100CB000F0E0808184608C9380E090E0A0EAB0E472
:100CC000898F9A8FAB8FBC8F698D7A8D8B8D9C8D20
:100CD00026E636E646E655E40E94AA0DDC01CB0185
:100CE0008D8B9E8BAF8BB88F6D897E898F89988D08
:100CF00020E030E040E85FE30E94040F88232CF4FA
:100D000081E090E09C8B8B8B3FC06D897E898F89C1
:100D1000988D20E03FEF4FE757E40E94A40E18168D
:100D20004CF5698D7A8D8B8D9C8D20E030E040E212
:100D300051E40E94AA0DDC01CB01BC01CD010E944F
:100D4000D40BDC01CB019C8B8B8B0FC080E791E037
:100D50009A8B898B89899A890197F1F79A8B898B6C
:100D60008B899C8901979C8B8B8B8B899C890097A5
:100D700069F714C06D897E898F89988D0E94D40B84
:100D8000DC01CB019C8B8B8B8B899C89988B8F870B
:100D90008F8598890197F1F7988B8F87A8E2B0E04B
:100DA000E8E2F0E080818B7F8C938E8D8F708E8F48
:100DB0008E8D8295807F8E8FA8E2B0E0E8E2F0E031
:100DC00080818F708C93A8E2B0E0E8E2F0E090813F
:100DD0008E8D892B8C93A8E2B0E0E8E2F0E0808170
:100DE0008E7F8C93A8E2B0E0E8E2F0E080818D7F16
:100DF0008C93A8E2B0E0E8E2F0E0808184608C931C
:100E000080E090E0A0EAB0E48B879C87AD87BE8746
:100E10006B857C858D859E8526E636E646E655E41F
:100E20000E94AA0DDC01CB018F839887A987BA871E
:100E30006F81788589859A8520E030E040E85FE31E
:100E40000E94040F88232CF481E090E09E838D8320
:100E50003FC06F81788589859A8520E03FEF4FE715
:100E600057E40E94A40E18164CF56B857C858D8581
:100E70009E8520E030E040E251E40E94AA0DDC01B2
:100E8000CB01BC01CD010E94D40BDC01CB019E83C0
:100E90008D830FC080E791E09C838B838B819C8145
:100EA0000197F1F79C838B838D819E8101979E83AF
:100EB0008D838D819E81009769F714C06F8178853D
:100EC00089859A850E94D40BDC01CB019E838D839A
:100ED0008D819E819A83898389819A810197F1F717
:100EE0009A838983A8E2B0E0E8E2F0E080818B7F1A
:100EF0008C936E960FB6F894DEBF0FBECDBFCF9128
:100F0000DF910895DF93CF93CDB7DEB76E970FB61D
:100F1000F894DEBF0FBECDBF8E8F8E8D8D8F8D8DE1
:100F2000807F8D8FA8E2B0E0E8E2F0E080818F70F2
:100F30008C93A8E2B0E0E8E2F0E090818D8D892BFF
:100F40008C93A8E2B0E0E8E2F0E0808181608C93CD
:100F5000A8E2B0E0E8E2F0E080818D7F8C93A8E227
:100F6000B0E0E8E2F0E0808184608C9380E090E083
:100F7000A0EAB0E4898F9A8FAB8FBC8F698D7A8D90
:100F80008B8D9C8D26E636E646E655E40E94AA0D3A
:100F9000DC01CB018D8B9E8BAF8BB88F6D897E89E9
:100FA0008F89988D20E030E040E85FE30E94040FD5
:100FB00088232CF481E090E09C8B8B8B3FC06D8963
:100FC0007E898F89988D20E03FEF4FE757E40E949C
:100FD000A40E18164CF5698D7A8D8B8D9C8D20E0B2
:100FE00030E040E251E40E94AA0DDC01CB01BC01DB
:100FF000CD010E94D40BDC01CB019C8B8B8B0FC0ED
:1010000080E791E09A8B898B89899A890197F1F71A
:101010009A8B898B8B899C8901979C8B8B8B8B8975
:101020009C89009769F714C06D897E898F89988D96
:101030000E94D40BDC01CB019C8B8B8B8B899C8910
:10104000988B8F878F8598890197F1F7988B8F8779
:10105000A8E2B0E0E8E2F0E080818B7F8C938E8D97
:101060008F708E8F8E8D8295807F8E8FA8E2B0E0FC
:10107000E8E2F0E080818F708C93A8E2B0E0E8E2D3
:10108000F0E090818E8D892B8C93A8E2B0E0E8E2AD
:10109000F0E0808181608C93A8E2B0E0E8E2F0E0CB
:1010A00080818D7F8C93A8E2B0E0E8E2F0E080815F
:1010B00084608C9380E090E0A0EAB0E48B879C870A
:1010C000AD87BE876B857C858D859E8526E636E659
:1010D00046E655E40E94AA0DDC01CB018F83988778
:1010E000A987BA876F81788589859A8520E030E065
:1010F00040E85FE30E94040F88232CF481E090E035
:101100009E838D833FC06F81788589859A8520E095
:101110003FEF4FE757E40E94A40E18164CF56B857D
:101120007C858D859E8520E030E040E251E40E9480
:10113000AA0DDC01CB01BC01CD010E94D40BDC0166
:10114000CB019E838D830FC080E791E09C838B83CE
:101150008B819C810197F1F79C838B838D819E818C
:1011600001979E838D838D819E81009769F714C0BE
:101170006F81788589859A850E94D40BDC01CB012B
:101180009E838D838D819E819A83898389819A81B3
:101190000197F1F79A838983A8E2B0E0E8E2F0E0F2
:1011A00080818B7F8C936E960FB6F894DEBF0FBE56
:1011B000CDBFCF91DF910895DF93CF93CDB7DEB749
:1011C00080E80E942806CF91DF910895DF93CF93A6
:1011D0000F920F92CDB7DEB79A8389830AC0E98157
:1011E000FA8180810E94820789819A8101969A837F
:1011F0008983E981FA818081882389F70F900F9094
:10120000CF91DF910895DF93CF9300D00F92CDB7A8
:10121000DEB789836A838981282F30E03C832B8362
:101220008B819C8182309105D9F02B813C812330C8
:10123000310534F48B819C818130910561F01EC0B1
:101240002B813C812330310581F08B819C8184305E
:10125000910581F013C08A8181580E9428060EC032
:101260008A8181540E94280609C08A818D560E9475
:10127000280604C08A818D520E9428060F900F9084
:101280000F900F90CF91DF910895DF93CF93CDB75B
:10129000DEB727970FB6F894DEBF0FBECDBF8A83A7
:1012A0006B835D834C833F832E8319828A818823DD
:1012B00019F08B81882319F40E94DC0804C08A810C
:1012C0006B810E9403098E819F818530910519F001
:1012D00089818130A9F48C819D8120E137E2B901B7
:1012E0000E944D11CB01C09690931F0280931E0265
:1012F00080911E0290911F020E94820781E08983E3
:101300008E819F818430910519F08981813011F59A
:101310008C819D8128EE33E0B9010E944D11CB01F3
:1013200090932302809322028091220290912302C3
:101330002AE030E0B9010E944D11C09690936203FB
:101340008093610380916103909162030E94820700
:1013500081E089838E819F818330910519F0898195
:10136000813011F58C819D8124E630E0B9010E9425
:101370004D11CB019093230280932202809122028F
:10138000909123022AE030E0B9010E944D11C096ED
:101390009093C8028093C7028091C7029091C802BF
:1013A0000E94820781E089838E819F81823091052E
:1013B00019F08981813011F58C819D812AE030E01E
:1013C000B9010E944D11CB01909323028093220218
:1013D00080912202909123022AE030E0B9010E941C
:1013E0004D11C0969093C3028093C2028091C202B5
:1013F0009091C3020E94820781E089838E819F8140
:101400008130910519F08981813091F48C819D8121
:101410002AE030E0B9010E944D11C096909360031C
:1014200080935F0380915F03909160030E94820725
:101430008E819F81863091051CF085E40E94820791
:1014400027960FB6F894DEBF0FBECDBFCF91DF91C8
:101450000895DF93CF93CDB7DEB781E00E942806D1
:10146000CF91DF910895DF93CF93CDB7DEB7109280
:10147000200286E080931D021AC080912002282F4E
:1014800030E080911D02882F90E0FC01EC5DFD4F63
:101490008081F901E654FD4F8083809120028F5FA7
:1014A0008093200280911D028F5F80931D028091A6
:1014B0002002853010F31092BF028091BC028C3262
:1014C00049F480E28093BE0280E28093BD0280E214
:1014D0008093BC028091BD028C3231F480E2809313
:1014E000BE0280E28093BD028091BE028C3219F46C
:1014F00080E28093BE0281E069E00E9403098AEBEA
:1015000092E00E94E608CF91DF910895DF93CF9398
:10151000CDB7DEB7A7E2B0E0E7E2F0E08081876F09
:101520008C93A8E2B0E0E8E2F0E0808180788C93D0
:10153000CF91DF910895DF93CF93CDB7DEB7E9EC7C
:10154000F0E01082E8ECF0E01082EAECF0E086E0F7
:101550008083ECECF0E08FE58083EDECF0E010822E
:10156000E9ECF0E080E98083CF91DF910895DF938B
:10157000CF93CDB7DEB7E1EDF0E01082E0EDF0E023
:101580001082E2EDF0E086E08083E4EDF0E08FE5AC
:101590008083E5EDF0E01082E1EDF0E088E080830B
:1015A000CF91DF910895DF93CF93CDB7DEB70E943F
:1015B000860ACF91DF910895DF93CF93CDB7DEB741
:1015C000F8940E94D30A0E949B0A0E94B70A78945A
:1015D000CF91DF910895DF93CF93CDB7DEB784E24B
:1015E00092E029EC32E0B90146E950E00E9437115F
:1015F00081E061E00E94030987E092E00E94E60832
:101600000E94330A10921C02CF91DF9108951F921D
:101610000F920FB60F9200905B000F9211242F9340
:101620003F934F935F936F937F938F939F93AF936A
:10163000BF93EF93FF93DF93CF93CDB7DEB7EEEC7D
:10164000F0E080818093C602E6EDF0E08091C60272
:10165000808380911C02882349F48091C6028432E1
:1016600029F481E0809321021092C5028091210229
:10167000882309F445C08091C502882F90E020910D
:10168000C602FC01E753FD4F20838091C5028823E9
:1016900091F18091C502853070F58091C502882F47
:1016A00090E001972091C602FC01E85EFD4F208387
:1016B0008091C5028430F9F4209105023091060230
:1016C00088E192E0B9010E942E11009771F4809197
:1016D000C50281508093C5021092210281E080935F
:1016E000C40281E080931C0206C010922102109275
:1016F000C40210921C028091C5028F5F8093C502C4
:101700008091C402882329F18091C502882F90E03E
:101710002091C602FC01E753FD4F20838091C60251
:101720008A3091F48091C502882F90E00197FC01E6
:10173000E753FD4F80818D3039F41092C50210922D
:10174000C40281E080931C028091C5028F5F809368
:10175000C502CF91DF91FF91EF91BF91AF919F9122
:101760008F917F916F915F914F913F912F910F904A
:1017700000925B000F900FBE0F901F901895DF93A3
:10178000CF93CDB7DEB70E94DC0A0E9495000E947D
:101790009405109221021092C40210921C02109221
:1017A000C5020E94EB0AFDCFEF92FF920F931F93A9
:1017B0007B018C0120E030E040E05FE40E94D40E29
:1017C00088238CF0C801B70120E030E040E05FE4FE
:1017D0000E944C0D0E94340F9B01AC012050304000
:1017E0004040504806C0C801B7010E94340F9B0119
:1017F000AC01B901CA011F910F91FF90EF900895BC
:10180000A0E0B0E0E6E0FCE00C946111DC012B010B
:10181000FA019C91923008F439C1EB018881823041
:1018200008F433C1943069F4843009F02FC1119663
:101830009C9111978981981709F428C1AFE0B2E013
:1018400025C1843009F421C18230A9F4923009F015
:101850001DC19A01AD0188E0EA010990AE01E901DC
:1018600009929E018150C1F7E201898111969C91F4
:101870008923818308C1923009F407C112962D9003
:101880003C901397EB018A819B811496AD90BD909B
:10189000CD90DC901797EC80FD800E811F81910127
:1018A000281B390BB90137FF04C066277727621B55
:1018B000730B603271050CF061C0121613066CF5E3
:1018C00037014801062E04C0969487947794679454
:1018D0000A94D2F721E030E040E050E004C0220F4B
:1018E000331F441F551F6A95D2F7215030404040A6
:1018F00050402E213F214023512321153105410520
:10190000510521F021E030E040E050E079018A010A
:10191000E628F728082919293CC0232BD1F1260EE7
:10192000371E35014601062E04C09694879477949D
:1019300067940A94D2F721E030E040E050E004C020
:10194000220F331F441F551F6A95D2F72150304094
:10195000404050402A213B214C215D212115310579
:101960004105510521F021E030E040E050E059010F
:101970006A01A628B728C828D9280BC08215930564
:101980002CF01C01AA24BB24650103C0EE24FF2413
:10199000870111969C91D20111968C91981709F4A8
:1019A00045C0992339F0A80197012A193B094C0930
:1019B0005D0906C0A60195012E193F09400B510B88
:1019C00057FD08C0118233822282248335834683E7
:1019D00057831DC081E08183338222828827992723
:1019E000DC01821B930BA40BB50B84839583A68328
:1019F000B7830DC0220F331F441F551F2483358327
:101A000046835783828193810197938382832481C4
:101A1000358146815781DA01C9010197A109B109D0
:101A20008F5F9F4FAF4FBF4328F30BC0918333822B
:101A30002282EA0CFB1C0C1D1D1DE482F58206832C
:101A4000178383E08083248135814681578157FF46
:101A50001AC0C901AA2797FDA095BA2F817090706E
:101A6000A070B0705695479537952795822B932B8C
:101A7000A42BB52B84839583A683B783828193811E
:101A8000019693838283DF0101C0D201CD01CDB7DE
:101A9000DEB7E2E10C947D11A0E2B0E0E2E5FDE00A
:101AA0000C946D1169837A838B839C832D833E8391
:101AB0004F835887E9E0EE2EF12CEC0EFD1ECE018F
:101AC0000196B7010E945D108E010F5E1F4FCE017F
:101AD0000596B8010E945D108A8991E089278A8B5A
:101AE000C701B801AE01475E5F4F0E94000C0E9423
:101AF000880FA096E6E00C948911A0E2B0E0E3E83C
:101B0000FDE00C946D1169837A838B839C832D8314
:101B10003E834F835887F9E0EF2EF12CEC0EFD1E2B
:101B2000CE010196B7010E945D108E010F5E1F4F1E
:101B3000CE010596B8010E945D10C701B801AE0143
:101B4000475E5F4F0E94000C0E94880FA096E6E05F
:101B50000C948911A0E2B0E0E0EBFDE00C9461117F
:101B600069837A838B839C832D833E834F8358873D
:101B7000CE010196BE01675F7F4F0E945D10CE01CE
:101B80000596BE016F5E7F4F0E945D109985923071
:101B900088F089898230C8F0943019F4823051F489
:101BA00004C0843029F4923081F48FE092E0C6C002
:101BB000923049F420E09A858A89981321E02A8797
:101BC000CE010996BBC0823049F420E09A858A890B
:101BD000981321E02A8BCE014196B0C02D843E841B
:101BE0004F8458886D887E888F88988CEE24FF24D7
:101BF0008701AA24BB24650140E050E060E070E06A
:101C0000E0E0F0E0C10181709070892BE9F0E60C12
:101C1000F71C081D191D9A01AB012A0D3B1D4C1D17
:101C20005D1D80E090E0A0E0B0E0E614F704080558
:101C3000190520F481E090E0A0E0B0E0BA01A9012C
:101C4000480F591F6A1F7B1FAA0CBB1CCC1CDD1C34
:101C500097FE08C081E090E0A0E0B0E0A82AB92A91
:101C6000CA2ADB2A3196E032F10549F0660C771C6E
:101C7000881C991C5694479437942794C3CFFA85AF
:101C8000EA892B893C898B859C85280F391F2E5F1B
:101C90003F4F17C0CA0181709070892B61F0169573
:101CA0000795F794E79480E090E0A0E0B0E8E82A98
:101CB000F92A0A2B1B2B76956795579547952F5F29
:101CC0003F4F77FDE7CF0CC0440F551F661F771FAE
:101CD00017FD4160EE0CFF1C001F111F215030400A
:101CE000403090E0590790E0690790E4790760F38D
:101CF0002B8F3C8FDB01CA018F779070A070B07082
:101D000080349105A105B10561F447FD0AC0E114D5
:101D1000F1040105110529F0405C5F4F6F4F7F4FC3
:101D200040781A8EFE1711F081E08A8F4D8F5E8FFA
:101D30006F8F78A383E0898FCE0149960E94880F28
:101D4000A096E2E10C947D11A8E1B0E0EAEAFEE0A1
:101D50000C946D1169837A838B839C832D833E83DE
:101D60004F83588789E0E82EF12CEC0EFD1ECE0142
:101D70000196B7010E945D108E010F5E1F4FCE01CC
:101D80000596B8010E945D108985823040F08989EE
:101D9000823028F0C701B8010E94D51001C08FEF32
:101DA0006896E6E00C948911A8E1B0E0EAEDFEE067
:101DB0000C946D1169837A838B839C832D833E837E
:101DC0004F83588789E0E82EF12CEC0EFD1ECE01E2
:101DD0000196B7010E945D108E010F5E1F4FCE016C
:101DE0000596B8010E945D108985823040F089898E
:101DF000823028F0C701B8010E94D51001C08FEFD2
:101E00006896E6E00C948911A8E1B0E0EAE0FFE012
:101E10000C946D1169837A838B839C832D833E831D
:101E20004F83588789E0E82EF12CEC0EFD1ECE0181
:101E30000196B7010E945D108E010F5E1F4FCE010B
:101E40000596B8010E945D108985823040F089892D
:101E5000823028F0C701B8010E94D51001C081E08E
:101E60006896E6E00C948911ACE0B0E0EAE3FFE0AC
:101E70000C94711169837A838B839C83CE010196C4
:101E8000BE016B5F7F4F0E945D108D81823061F1DA
:101E9000823050F1843021F48E81882351F12EC09C
:101EA0002F81388537FD20C06E812F3131051CF020
:101EB0006623F9F023C08EE190E0821B930B298505
:101EC0003A854B855C8504C056954795379527958F
:101ED0008A95D2F76623B1F05095409530952195BB
:101EE0003F4F4F4F5F4F0EC020E030E040E050E0EA
:101EF00009C02FEF3FEF4FEF5FE704C020E030E075
:101F000040E050E8B901CA012C96E2E00C948D1132
:101F1000DF92EF92FF920F931F93FC01E480F58014
:101F200006811781D1808081823048F480E090E082
:101F3000A0E1B0E0E82AF92A0A2B1B2BA5C08430C7
:101F400009F49FC0823021F4EE24FF24870105C0EC
:101F5000E114F1040105110519F4E0E0F0E096C088
:101F6000628173819FEF623879070CF05BC022E8D1
:101F70003FEF261B370B2A3131052CF020E030E0F3
:101F800040E050E02AC0B801A701022E04C07695B7
:101F90006795579547950A94D2F781E090E0A0E0C5
:101FA000B0E004C0880F991FAA1FBB1F2A95D2F763
:101FB0000197A109B1098E219F21A023B123009788
:101FC000A105B10521F081E090E0A0E0B0E09A0128
:101FD000AB01282B392B4A2B5B2BDA01C9018F77F8
:101FE0009070A070B07080349105A105B10539F4EE
:101FF00027FF09C0205C3F4F4F4F5F4F04C0215C5B
:102000003F4F4F4F5F4FE0E0F0E02030A0E03A0755
:10201000A0E04A07A0E45A0710F0E1E0F0E07901FF
:102020008A0127C06038710564F5FB01E158FF4F54
:10203000D801C7018F779070A070B070803491057F
:10204000A105B10539F4E7FE0DC080E490E0A0E001
:10205000B0E004C08FE390E0A0E0B0E0E80EF91E2D
:102060000A1F1B1F17FF05C016950795F794E794E5
:10207000319687E016950795F794E7948A95D1F7FE
:1020800005C0EE24FF248701EFEFF0E06E2F679587
:1020900066276795902F9F77D794DD24D7948E2F4E
:1020A0008695492F462B582F5D29B701CA011F91EC
:1020B0000F91FF90EF90DF900895FC01DB014081CC
:1020C00051812281622F6F7770E0221F2227221F09
:1020D0009381892F880F822B282F30E0991F992711
:1020E000991F11969C93119721153105A9F541155A
:1020F00051056105710511F482E037C082E89FEF58
:1021000013969C938E9312979A01AB0167E0220F6E
:10211000331F441F551F6A95D1F783E08C930DC080
:10212000220F331F441F551F12968D919C911397B8
:10213000019713969C938E931297203080E0380776
:1021400080E0480780E4580758F314962D933D9398
:102150004D935C93179708952F3F310579F44115FE
:1021600051056105710519F484E08C93089564FFAD
:1021700003C081E08C9312C01C9210C02F573040D6
:1021800013963C932E93129783E08C9387E0440F31
:10219000551F661F771F8A95D1F7706414964D936B
:1021A0005D936D937C93179708951F93DC01FB015A
:1021B0009C91923008F447C08081823008F443C07B
:1021C000943051F411961C91843099F58181682FD7
:1021D00070E0611B71093FC0843021F0923031F40E
:1021E0008230B9F18181882389F12DC011961C912B
:1021F00011978230F1F081811817D9F412962D9140
:102200003C911397828193818217930794F028174A
:102210003907BCF014968D919D910D90BC91A02D25
:102220002481358146815781281739074A075B0782
:1022300018F4112341F00AC082179307A407B507C9
:1022400040F4112319F061E070E005C06FEF7FEFFB
:1022500002C060E070E0CB011F910895FB01DC013A
:102260008D91019080190110D9F3990B0895DC012B
:10227000FB014115510549F04150504029F00190B2
:102280000D92002029F0F8CF1C9201900020E9F770
:10229000E61BF70B3197CF010895AA1BBB1B51E139
:1022A00007C0AA1FBB1FA617B70710F0A61BB70BC6
:1022B000881F991F5A95A9F780959095BC01CD016B
:1022C00008952F923F924F925F926F927F928F92DA
:1022D0009F92AF92BF92CF92DF92EF92FF920F93B5
:1022E0001F93CF93DF93CDB7DEB7CA1BDB0B0FB6BF
:1022F000F894DEBF0FBECDBF19942A88398848886C
:102300005F846E847D848C849B84AA84B984C88411
:10231000DF80EE80FD800C811B81AA81B981CE0F08
:10232000D11D0FB6F894DEBF0FBECDBFED010895ED
:04233000F894FFCF4F
:102334004F485052000002417A696D75746800007C
:08234400000000000000000091
:00000001FF
