:100000000C9472000C9493000C9493000C94930045
:100010000C9493000C94AF010C9467010C94930022
:100020000C9493000C9493000C9493000C94930004
:100030000C9493000C9493000C9493000C949300F4
:100040000C9493000C9493000C9493000C949300E4
:100050000C9493000C9493000C9493000C949300D4
:100060000C9493000C9493000C9493000C949300C4
:100070000C9493000C9493000C9493000C949300B4
:100080000C9493000C9493000C9493000C949300A4
:100090000C9493000C9493000C9493000C94930094
:1000A0000C9493000C9493000C9493000C94930084
:1000B0000C9493000C9493000C9493000C94930074
:1000C0000C9493000C9493000C9493000C94930064
:1000D0000C9493000C9493000C9493000C94930054
:1000E0000C94930011241FBECFEFD1E2DEBFCDBF31
:1000F00000E00CBF13E0A0E0B2E0EEE7FAE400E0BD
:100100000BBF02C007900D92AE30B107D9F713E0D4
:10011000AEE0B3E001C01D92A433B107E1F70E9445
:10012000AF100C943D250C940000DF93CF93CDB716
:10013000DEB7E1E2F1E01082E5E2F1E08FEF8083EB
:10014000E4E2F1E081E08083E9E2F1E01082E8E2BC
:10015000F1E08FEF8083EBE2F1E01082EAE2F1E080
:100160008FEF8083EDE2F1E01082ECE2F1E08FEFBF
:100170008083E0E2F1E089EA8083E1E2F1E08BE074
:100180008083CF91DF910895DF93CF930F920F92E9
:10019000CDB7DEB789836A83E8E2F1E089818083A5
:1001A000EAE2F1E08A8180830F900F90CF91DF9196
:1001B0000895DF93CF93CDB7DEB7A1E2B0E0E1E2DF
:1001C000F0E080818F608C93A2E2B0E0E2E2F0E0A8
:1001D0008081807F8C93AAE0B1E0EAE0F1E0808149
:1001E00088618C93ABE0B1E0EBE0F1E08081886165
:1001F0008C93CF91DF910895DF93CF93CDB7DEB786
:10020000ADE2B0E0EDE2F0E080818F7E8C93AEE273
:10021000B0E0EEE2F0E0808180618C93CF91DF91DD
:100220000895DF93CF93CDB7DEB7ADE2B0E0EDE256
:10023000F0E080818F7D8C93AEE2B0E0EEE2F0E002
:10024000808180628C93CF91DF910895DF93CF936B
:10025000CDB7DEB7F894AAE6B0E0EAE6F0E0808138
:1002600082608C93ADE3B0E0EDE3F0E080818061EB
:100270008C937894CF91DF910895DF93CF93CDB78E
:10028000DEB7F894AAE6B0E0EAE6F0E080818860A4
:100290008C93ADE3B0E0EDE3F0E0808180628C937D
:1002A0007894CF91DF910895DF93CF93CDB7DEB7E8
:1002B0000E94D9000E94FC000E9411010E942601A8
:1002C0000E943D010E949500CF91DF9108951F92F9
:1002D0000F920FB60F9211248F939F93AF93BF93FA
:1002E000DF93CF93CDB7DEB78091120390911303C4
:1002F000A0911403B09115030196A11DB11D809327
:10030000120390931303A0931403B09315038091E9
:100310000002909101028130910549F48091160309
:100320009091170301969093170380931603809181
:100330001603909117038D33910534F081E090E01E
:100340009093190380931803CF91DF91BF91AF91E0
:100350009F918F910F900FBE0F901F9018951F9235
:100360000F920FB60F9211248F939F93AF93BF9369
:10037000DF93CF93CDB7DEB780910E0390910F033B
:10038000A0911003B09111030196A11DB11D80939E
:100390000E0390930F03A0931003B0931103CF911A
:1003A000DF91BF91AF919F918F910F900FBE0F90F2
:1003B0001F901895DF93CF930F920F92CDB7DEB7B2
:1003C0008A8319828A818F708A83E2E2F0E08081D9
:1003D00089838981807F898399818A81892B898317
:1003E000E2E2F0E0898180830F900F90CF91DF915E
:1003F0000895DF93CF93CDB7DEB786E00E94DA0190
:10040000CF91DF910895DF93CF93CDB7DEB72A97D1
:100410000FB6F894DEBF0FBECDBF9A87898780E004
:1004200090E0A0E0B0E08D839E83AF83B88719820F
:100430001A821B821C8289859A85CC01A0E0B0E0DB
:10044000BC01CD010E948422DC01CB01BC01CD01A5
:1004500025EE30ED4AEA50E40E949620DC01CB0103
:100460008D839E83AF83B8876D817E818F819885D0
:100470000E94C61DDC01CB0189839A83AB83BC83B8
:10048000109212031092130310921403109215038A
:1004900010920E0310920F0310921003109211038A
:1004A0000E94F9012091120330911303409114032B
:1004B0005091150389819A81AB81BC818217930782
:1004C000A407B50788F020910E0330910F034091E7
:1004D00010035091110389819A81AB81BC818217ED
:1004E0009307A407B507F0F60E947C062A960FB67C
:1004F000F894DEBF0FBECDBFCF91DF910895DF939B
:10050000CF93CDB7DEB789E00E94DA01CF91DF91BA
:100510000895DF93CF93CDB7DEB72A970FB6F8943F
:10052000DEBF0FBECDBF9A87898780E090E0A0E054
:10053000B0E08D839E83AF83B88719821A821B82B5
:100540001C8289859A85CC01A0E0B0E0BC01CD0178
:100550000E948422DC01CB01BC01CD0125EE30EDEF
:100560004AEA50E40E949620DC01CB018D839E83F1
:10057000AF83B8876D817E818F8198850E94C61D6B
:10058000DC01CB0189839A83AB83BC831092120375
:100590001092130310921403109215030E947F020D
:1005A00020911203309113034091140350911503CD
:1005B00089819A81AB81BC8182179307A407B50713
:1005C00078F70E947C062A960FB6F894DEBF0FBE1D
:1005D000CDBFCF91DF910895DF93CF93CDB7DEB735
:1005E00085E00E94DA01CF91DF910895DF93CF93E8
:1005F000CDB7DEB72C970FB6F894DEBF0FBECDBFD8
:100600009A87898780E090E0A0E0B0E08D839E83A8
:10061000AF83B88719821A821B821C8289859A85CA
:10062000CC01A0E0B0E0BC01CD010E948422DC013D
:10063000CB01BC01CD0128E431EE42E850E40E9438
:100640009620DC01CB018D839E83AF83B8876D81BB
:100650007E818F8198850E94C61DDC01CB01CC0173
:10066000A0E0B0E089839A83AB83BC83109212032D
:1006700010921303109214031092150310920E039C
:1006800010920F0310921003109211030E94EC02BB
:1006900020911203309113034091140350911503DC
:1006A0001C8689819A81AB81BC81281739074A074A
:1006B0005B0710F081E08C8720910E0330910F03CF
:1006C00040911003509111031B8689819A81AB815F
:1006D000BC81281739074A075B0710F091E09B8718
:1006E0008C859B85892B882399F20E947C062C9609
:1006F0000FB6F894DEBF0FBECDBFCF91DF91089546
:10070000DF93CF93CDB7DEB78AE00E94DA01CF91B5
:10071000DF910895DF93CF93CDB7DEB72C970FB657
:10072000F894DEBF0FBECDBF9A87898780E090E046
:10073000A0E0B0E08D839E83AF83B88719821A82D0
:100740001B821C8289859A85CC01A0E0B0E0BC01A7
:10075000CD010E948422DC01CB01BC01CD0128E443
:1007600031EE42E850E40E949620DC01CB018D83FB
:100770009E83AF83B8876D817E818F8198850E942B
:10078000C61DDC01CB01CC01A0E0B0E089839A83D7
:10079000AB83BC83109212031092130310921403C4
:1007A0001092150310920E0310920F031092100373
:1007B000109211030E9480032091120330911303C1
:1007C00040911403509115031C8689819A81AB8155
:1007D000BC81281739074A075B0710F081E08C8736
:1007E00020910E0330910F0340911003509111039B
:1007F0001B8689819A81AB81BC81281739074A07FA
:100800005B0710F091E09B878C859B85892B882363
:1008100099F20E947C062C960FB6F894DEBF0FBEAC
:10082000CDBFCF91DF910895DF93CF93CDB7DEB7E2
:1008300084E00E94DA01CF91DF910895DF93CF9396
:10084000CDB7DEB72C970FB6F894DEBF0FBECDBF85
:100850009A87898780E090E0A0E0B0E08D839E8356
:10086000AF83B88719821A821B821C8289859A8578
:10087000CC01A0E0B0E0BC01CD010E9484229B012C
:10088000AC01CA01B9010E946F1FDC01CB01BC01A0
:10089000CD0128E431EE42E850E40E949620DC01CC
:1008A000CB018D839E83AF83B8876D817E818F81DD
:1008B00098850E94C61DDC01CB01CC01A0E0B0E010
:1008C00089839A83AB83BC83109212031092130323
:1008D000109214031092150310920E0310920F033E
:1008E00010921003109211030E941404209112031D
:1008F0003091130340911403509115031C86898194
:100900009A81AB81BC81281739074A075B0710F031
:1009100081E08C8720910E0330910F0340911003EA
:10092000509111031B8689819A81AB81BC81281764
:1009300039074A075B0710F091E09B878C859B8500
:10094000892B882399F20E947C062C960FB6F89486
:10095000DEBF0FBECDBFCF91DF910895DF93CF9360
:10096000CDB7DEB782E00E94DA01CF91DF91089522
:10097000DF93CF93CDB7DEB72C970FB6F894DEBFD9
:100980000FBECDBF9A87898780E090E0A0E0B0E0FD
:100990008D839E83AF83B88719821A821B821C8243
:1009A00089859A85CC01A0E0B0E0BC01CD010E9410
:1009B00084229B01AC01CA01B9010E946F1FDC01B6
:1009C000CB01BC01CD0128E431EE42E850E40E94A5
:1009D0009620DC01CB018D839E83AF83B8876D8128
:1009E0007E818F8198850E94C61DDC01CB01CC01E0
:1009F000A0E0B0E089839A83AB83BC83109212039A
:100A000010921303109214031092150310920E0308
:100A100010920F0310921003109211030E94AE0463
:100A20002091120330911303409114035091150348
:100A30001C8689819A81AB81BC81281739074A07B6
:100A40005B0710F081E08C8720910E0330910F033B
:100A500040911003509111031B8689819A81AB81CB
:100A6000BC81281739074A075B0710F091E09B8784
:100A70008C859B85892B882399F20E947C062C9675
:100A80000FB6F894DEBF0FBECDBFCF91DF910895B2
:100A9000DF93CF93CDB7DEB781E00E94DA01CF912B
:100AA000DF910895DF93CF93CDB7DEB72C970FB6C4
:100AB000F894DEBF0FBECDBF9A87898780E090E0B3
:100AC000A0E0B0E08D839E83AF83B88719821A823D
:100AD0001B821C8289859A85CC01A0E0B0E0BC0114
:100AE000CD010E9484229B01AC01CA01B9010E9480
:100AF0006F1FDC01CB01BC01CD0128E431EE42E8DF
:100B000050E40E949620DC01CB018D839E83AF834D
:100B1000B8876D817E818F8198850E94C61DDC011A
:100B2000CB01CC01A0E0B0E089839A83AB83BC8386
:100B300010921203109213031092140310921503D3
:100B400010920E0310920F031092100310921103D3
:100B50000E94480520911203309113034091140321
:100B6000509115031C8689819A81AB81BC8128171D
:100B700039074A075B0710F081E08C8720910E034C
:100B800030910F0340911003509111031B8689810E
:100B90009A81AB81BC81281739074A075B0710F09F
:100BA00091E09B878C859B85892B882399F20E94F5
:100BB0007C062C960FB6F894DEBF0FBECDBFCF914A
:100BC000DF910895DF93CF93CDB7DEB788E00E9421
:100BD000DA01CF91DF910895DF93CF93CDB7DEB7E0
:100BE0002C970FB6F894DEBF0FBECDBF9A878987CA
:100BF00080E090E0A0E0B0E08D839E83AF83B88773
:100C000019821A821B821C8289859A85CC01A0E0F8
:100C1000B0E0BC01CD010E9484229B01AC01CA015D
:100C2000B9010E946F1FDC01CB01BC01CD0128E49A
:100C300031EE42E850E40E949620DC01CB018D8326
:100C40009E83AF83B8876D817E818F8198850E9456
:100C5000C61DDC01CB01CC01A0E0B0E089839A8302
:100C6000AB83BC83109212031092130310921403EF
:100C70001092150310920E0310920F03109210039E
:100C8000109211030E94E205209112033091130388
:100C900040911403509115031C8689819A81AB8180
:100CA000BC81281739074A075B0710F081E08C8761
:100CB00020910E0330910F034091100350911103C6
:100CC0001B8689819A81AB81BC81281739074A0725
:100CD0005B0710F091E09B878C859B85892B88238F
:100CE00099F20E947C062C960FB6F894DEBF0FBED8
:100CF000CDBFCF91DF910895DF93CF93CDB7DEB70E
:100D000080E00E94DA01CF91DF910895DF93CF93C5
:100D1000CDB7DEB7E0E3F0E01082E7E0F1E010826B
:100D2000E1E3F0E01082E8E0F1E01082CF91DF91A2
:100D30000895DF93CF93CDB7DEB70E948606EAE72A
:100D4000F0E01082EBE7F0E01082ECE7F0E080E208
:100D50008083E0E5F0E080E88083EAE7F0E086E881
:100D60008083CF91DF910895DF93CF930F920F92FD
:100D7000CDB7DEB78A838A81883020F0EBE7F0E0D8
:100D800088E080838A8187708A83ECE7F0E08A813B
:100D900080628083AAE7B0E0EAE7F0E080818064C7
:100DA0008C93EAE7F0E08081882F90E0807190706A
:100DB0000097B9F3E9E7F0E080818983AAE7B0E022
:100DC000EAE7F0E0808180618C93EBE7F0E010824D
:100DD00089810F900F90CF91DF910895DF93CF938A
:100DE000CDB7DEB70E94F9060E940D0CCF91DF91BE
:100DF0000895DF93CF93CDB7DEB7A7E2B0E0E7E287
:100E0000F0E08081876F8C93A8E2B0E0E8E2F0E048
:100E1000808180788C93CF91DF9108950F931F93F9
:100E2000DF93CF93CDB7DEB7C057D0400FB6F8945D
:100E3000DEBF0FBECDBFFE01E359FF4F80E090E063
:100E4000A0E8BFE380839183A283B3838E01075917
:100E50001F4FFE01E359FF4F6081718182819381B1
:100E600026E636E646E655E40E949C1FDC01CB01EF
:100E7000F80180839183A283B383FE01E759FF4F7A
:100E8000608171818281938120E030E040E85FE3FE
:100E90000E94A221882344F4FE01E959FF4F81E01A
:100EA00090E09183808364C0FE01E759FF4F608129
:100EB00071818281938120E03FEF4FE757E40E94E8
:100EC000422118160CF043C0FE01E359FF4F608128
:100ED00071818281938120E030E040E251E40E9400
:100EE0009C1FDC01CB018E0109591F4FBC01CD01B4
:100EF0000E94C61DDC01CB01F801918380831FC0D5
:100F0000FE01EB59FF4F80E791E091838083FE0162
:100F1000EB59FF4F808191810197F1F7FE01EB5969
:100F2000FF4F91838083DE01A959BF4FFE01E9592C
:100F3000FF4F80819181019711969C938E93FE01C2
:100F4000E959FF4F808191810097D1F627C08E012A
:100F500009591F4FFE01E759FF4F6081718182815E
:100F600093810E94C61DDC01CB01F801918380832F
:100F7000DE01AD59BF4FFE01E959FF4F80819181DC
:100F80008D939C93FE01ED59FF4F808191810197D4
:100F9000F1F7FE01ED59FF4F91838083A8E2B0E0A5
:100FA000E8E2F0E080818E7F8C93A8E2B0E0E8E296
:100FB000F0E080818D7F8C93E8E2F0E080E3808335
:100FC000A8E2B0E0E8E2F0E0808184608C93FE016A
:100FD000E15AFF4F80E090E0A0EAB0E48083918383
:100FE000A283B3838E01055A1F4FFE01E15AFF4FC2
:100FF000608171818281938126E636E646E655E47A
:101000000E949C1FDC01CB01F80180839183A283A5
:10101000B383FE01E55AFF4F608171818281938124
:1010200020E030E040E85FE30E94A221882344F4FE
:10103000FE01E75AFF4F81E090E09183808364C016
:10104000FE01E55AFF4F608171818281938120E02A
:101050003FEF4FE757E40E94422118160CF043C0BF
:10106000FE01E15AFF4F608171818281938120E00E
:1010700030E040E251E40E949C1FDC01CB018E0174
:10108000075A1F4FBC01CD010E94C61DDC01CB01D8
:10109000F801918380831FC0FE01E95AFF4F80E76A
:1010A00091E091838083FE01E95AFF4F8081918115
:1010B0000197F1F7FE01E95AFF4F91838083DE012A
:1010C000A75ABF4FFE01E75AFF4F808191810197D8
:1010D00011969C938E93FE01E75AFF4F8081918178
:1010E0000097D1F627C08E01075A1F4FFE01E55A1F
:1010F000FF4F60817181828193810E94C61DDC0156
:10110000CB01F80191838083DE01AB5ABF4FFE0112
:10111000E75AFF4F808191818D939C93FE01EB5A9A
:10112000FF4F808191810197F1F7FE01EB5AFF4F4C
:1011300091838083A8E2B0E0E8E2F0E080818B7FD9
:101140008C93FE01EF5AFF4F80E090E0A0E8BFE3F0
:1011500080839183A283B3838E01035B1F4FFE01C3
:10116000EF5AFF4F608171818281938126E636E6D6
:1011700046E655E40E949C1FDC01CB01F801808308
:101180009183A283B383FE01E35BFF4F6081718192
:101190008281938120E030E040E85FE30E94A22159
:1011A000882344F4FE01E55BFF4F81E090E09183EA
:1011B000808364C0FE01E35BFF4F608171818281A7
:1011C000938120E03FEF4FE757E40E944221181639
:1011D0000CF043C0FE01EF5AFF4F608171818281A4
:1011E000938120E030E040E251E40E949C1FDC014A
:1011F000CB018E01055B1F4FBC01CD010E94C61DB6
:10120000DC01CB01F801918380831FC0FE01E75B05
:10121000FF4F80E791E091838083FE01E75BFF4F02
:10122000808191810197F1F7FE01E75BFF4F918388
:101230008083DE01A55BBF4FFE01E55BFF4F808130
:101240009181019711969C938E93FE01E55BFF4F70
:10125000808191810097D1F627C08E01055B1F4FD9
:10126000FE01E35BFF4F60817181828193810E9467
:10127000C61DDC01CB01F80191838083DE01A95BEF
:10128000BF4FFE01E55BFF4F808191818D939C9361
:10129000FE01E95BFF4F808191810197F1F7FE012B
:1012A000E95BFF4F91838083A8E2B0E0E8E2F0E0E1
:1012B00080818E7F8C93A8E2B0E0E8E2F0E080814C
:1012C0008D7F8C93E8E2F0E080E38083A8E2B0E0D9
:1012D000E8E2F0E0808184608C93FE01ED5BFF4FDB
:1012E00080E090E0A0EAB0E480839183A283B3839E
:1012F0008E01015C1F4FFE01ED5BFF4F608171812C
:101300008281938126E636E646E655E40E949C1FDC
:10131000DC01CB01F80180839183A283B383FE01BA
:10132000FF96608171818281938120E030E040E806
:101330005FE30E94A22188232CF481E090E09EAF1D
:101340008DAF46C0FE01FF966081718182819381DD
:1013500020E03FEF4FE757E40E944221181664F562
:10136000FE01ED5BFF4F608171818281938120E0FE
:1013700030E040E251E40E949C1FDC01CB01BC0143
:10138000CD010E94C61DDC01CB019EAF8DAF0FC009
:1013900080E791E09CAF8BAF8BAD9CAD0197F1F7EF
:1013A0009CAF8BAF8DAD9EAD01979EAF8DAF8DADD8
:1013B0009EAD009769F716C0FE01FF9660817181AE
:1013C000828193810E94C61DDC01CB019EAF8DAF4F
:1013D0008DAD9EAD9AAF89AF89AD9AAD0197F1F70A
:1013E0009AAF89AFA8E2B0E0E8E2F0E080818B7FBD
:1013F0008C9380E090E0A0E8BFE38DAB9EABAFABF9
:10140000B8AF6DA97EA98FA998AD26E636E646E667
:1014100055E40E949C1FDC01CB0189AB9AABABABBE
:10142000BCAB69A97AA98BA99CA920E030E040E86F
:101430005FE30E94A22188232CF481E090E098AB26
:101440008FA73FC069A97AA98BA99CA920E03FEF8B
:101450004FE757E40E94422118164CF56DA97EA96A
:101460008FA998AD20E030E040E251E40E949C1F3B
:10147000DC01CB01BC01CD010E94C61DDC01CB010A
:1014800098AB8FA70FC080E791E09EA78DA78DA591
:101490009EA50197F1F79EA78DA78FA598A9019703
:1014A00098AB8FA78FA598A9009769F714C069A971
:1014B0007AA98BA99CA90E94C61DDC01CB0198AB1F
:1014C0008FA78FA598A99CA78BA78BA59CA50197F3
:1014D000F1F79CA78BA7A8E2B0E0E8E2F0E08081FA
:1014E0008E7F8C93A8E2B0E0E8E2F0E080818D7F0F
:1014F0008C93E8E2F0E080E38083A8E2B0E0E8E2E9
:10150000F0E0808184608C9380E090E0A0EAB0E419
:101510008FA398A7A9A7BAA76FA178A589A59AA50F
:1015200026E636E646E655E40E949C1FDC01CB0128
:101530008BA39CA3ADA3BEA36BA17CA18DA19EA1F7
:1015400020E030E040E85FE30E94A22188232CF4F1
:1015500081E090E09AA389A33FC06BA17CA18DA1FB
:101560009EA120E03FEF4FE757E40E94422118166A
:101570004CF56FA178A589A59AA520E030E040E25E
:1015800051E40E949C1FDC01CB01BC01CD010E94F3
:10159000C61DDC01CB019AA389A30FC080E791E0AF
:1015A00098A38F8F8F8D98A10197F1F798A38F8FB4
:1015B00089A19AA101979AA389A389A19AA10097C9
:1015C00069F714C06BA17CA18DA19EA10E94C61DCC
:1015D000DC01CB019AA389A389A19AA19E8F8D8F4B
:1015E0008D8D9E8D0197F1F79E8F8D8FA8E2B0E0D3
:1015F000E8E2F0E080818B7F8C9380E090E0A0E8CF
:10160000BFE3898F9A8FAB8FBC8F698D7A8D8B8D5D
:101610009C8D26E636E646E655E40E949C1FDC01DA
:10162000CB018D8B9E8BAF8BB88F6D897E898F8917
:10163000988D20E030E040E85FE30E94A2218823FB
:101640002CF481E090E09C8B8B8B3FC06D897E8970
:101650008F89988D20E03FEF4FE757E40E944221A9
:1016600018164CF5698D7A8D8B8D9C8D20E030E0BD
:1016700040E251E40E949C1FDC01CB01BC01CD0182
:101680000E94C61DDC01CB019C8B8B8B0FC080E7B9
:1016900091E09A8B898B89899A890197F1F79A8BC6
:1016A000898B8B899C8901979C8B8B8B8B899C89DF
:1016B000009769F714C06D897E898F89988D0E9483
:1016C000C61DDC01CB019C8B8B8B8B899C89988BF5
:1016D0008F878F8598890197F1F7988B8F87A8E27C
:1016E000B0E0E8E2F0E080818E7F8C93A8E2B0E089
:1016F000E8E2F0E080818D7F8C93E8E2F0E080E228
:101700008083A8E2B0E0E8E2F0E0808184608C931E
:1017100080E090E0A0EAB0E48B879C87AD87BE872D
:101720006B857C858D859E8526E636E646E655E406
:101730000E949C1FDC01CB018F839887A987BA8701
:101740006F81788589859A8520E030E040E85FE305
:101750000E94A22188232CF481E090E09E838D8357
:101760003FC06F81788589859A8520E03FEF4FE7FC
:1017700057E40E94422118164CF56B857C858D85B7
:101780009E8520E030E040E251E40E949C1FDC0195
:10179000CB01BC01CD010E94C61DDC01CB019E83A3
:1017A0008D830FC080E791E09C838B838B819C812C
:1017B0000197F1F79C838B838D819E8101979E8396
:1017C0008D838D819E81009769F714C06F81788524
:1017D00089859A850E94C61DDC01CB019E838D837D
:1017E0008D819E819A83898389819A810197F1F7FE
:1017F0009A838983A8E2B0E0E8E2F0E080818B7F01
:101800008C93C059DF4F0FB6F894DEBF0FBECDBF2B
:10181000CF91DF911F910F910895DF93CF93CDB7B3
:10182000DEB72E970FB6F894DEBF0FBECDBF0E9475
:101830000E0780E090E0A0E8BFE38B879C87AD8730
:10184000BE876B857C858D859E8526E636E646E6D9
:1018500055E40E949C1FDC01CB018F839887A987E8
:10186000BA876F81788589859A8520E030E040E8E5
:101870005FE30E94A22188232CF481E090E09E8304
:101880008D833FC06F81788589859A8520E03FEF01
:101890004FE757E40E94422118164CF56B857C8572
:1018A0008D859E8520E030E040E251E40E949C1F3F
:1018B000DC01CB01BC01CD010E94C61DDC01CB01C6
:1018C0009E838D830FC080E791E09C838B838B8107
:1018D0009C810197F1F79C838B838D819E81019779
:1018E0009E838D838D819E81009769F714C06F81DF
:1018F000788589859A850E94C61DDC01CB019E836F
:101900008D838D819E819A83898389819A810197B4
:10191000F1F79A83898388E20E94A30C81E00E94F8
:10192000A30C86E00E94A30C8EE00E94A30C80E82A
:101930000E94A30C2E960FB6F894DEBF0FBECDBF4B
:10194000CF91DF910895DF93CF93CDB7DEB76E9738
:101950000FB6F894DEBF0FBECDBF8E8F8E8D8D8FEC
:101960008D8D807F8D8FA8E2B0E0E8E2F0E080818D
:101970008F708C93A8E2B0E0E8E2F0E090818D8D6A
:10198000892B8C93A8E2B0E0E8E2F0E080818E7FC2
:101990008C93A8E2B0E0E8E2F0E080818D7F8C9348
:1019A000A8E2B0E0E8E2F0E0808184608C9380E01F
:1019B00090E0A0EAB0E4898F9A8FAB8FBC8F698DDD
:1019C0007A8D8B8D9C8D26E636E646E655E40E94A0
:1019D0009C1FDC01CB018D8B9E8BAF8BB88F6D89EB
:1019E0007E898F89988D20E030E040E85FE30E9497
:1019F000A22188232CF481E090E09C8B8B8B3FC04C
:101A00006D897E898F89988D20E03FEF4FE757E4FD
:101A10000E94422118164CF5698D7A8D8B8D9C8D14
:101A200020E030E040E251E40E949C1FDC01CB0149
:101A3000BC01CD010E94C61DDC01CB019C8B8B8BB0
:101A40000FC080E791E09A8B898B89899A890197E9
:101A5000F1F79A8B898B8B899C8901979C8B8B8B57
:101A60008B899C89009769F714C06D897E898F895D
:101A7000988D0E94C61DDC01CB019C8B8B8B8B89C2
:101A80009C89988B8F878F8598890197F1F7988B20
:101A90008F87A8E2B0E0E8E2F0E080818B7F8C9352
:101AA0008E8D8F708E8F8E8D8295807F8E8FA8E227
:101AB000B0E0E8E2F0E080818F708C93A8E2B0E0C3
:101AC000E8E2F0E090818E8D892B8C93A8E2B0E063
:101AD000E8E2F0E080818E7F8C93A8E2B0E0E8E25B
:101AE000F0E080818D7F8C93A8E2B0E0E8E2F0E046
:101AF000808184608C9380E090E0A0EAB0E48B87E2
:101B00009C87AD87BE876B857C858D859E8526E607
:101B100036E646E655E40E949C1FDC01CB018F832C
:101B20009887A987BA876F81788589859A8520E00B
:101B300030E040E85FE30E94A22188232CF481E09A
:101B400090E09E838D833FC06F81788589859A85DB
:101B500020E03FEF4FE757E40E94422118164CF572
:101B60006B857C858D859E8520E030E040E251E4E8
:101B70000E949C1FDC01CB01BC01CD010E94C61D4F
:101B8000DC01CB019E838D830FC080E791E09C83B5
:101B90008B838B819C810197F1F79C838B838D8153
:101BA0009E8101979E838D838D819E81009769F729
:101BB00014C06F81788589859A850E94C61DDC01D5
:101BC000CB019E838D838D819E819A8389838981B8
:101BD0009A810197F1F79A838983A8E2B0E0E8E25D
:101BE000F0E080818B7F8C936E960FB6F894DEBF09
:101BF0000FBECDBFCF91DF910895DF93CF93CDB7C7
:101C0000DEB76E970FB6F894DEBF0FBECDBF8E8FD6
:101C10008E8D8D8F8D8D807F8D8FA8E2B0E0E8E274
:101C2000F0E080818F708C93A8E2B0E0E8E2F0E011
:101C30008081982F8D8D892B8C93A8E2B0E0E8E20B
:101C4000F0E0808181608C93A8E2B0E0E8E2F0E00F
:101C500080818D7F8C93A8E2B0E0E8E2F0E08081A3
:101C600084608C9380E090E0A0EAB0E4898F9A8F42
:101C7000AB8FBC8F698D7A8D8B8D9C8D26E636E679
:101C800046E655E40E949C1FDC01CB018D8B9E8BA8
:101C9000AF8BB88F6D897E898F89988D20E030E079
:101CA00040E85FE30E94A22188232CF481E090E0C9
:101CB0009C8B8B8B3FC06D897E898F89988D20E0AE
:101CC0003FEF4FE757E40E94422118164CF5698D0B
:101CD0007A8D8B8D9C8D20E030E040E251E40E94B3
:101CE0009C1FDC01CB01BC01CD010E94C61DDC01A3
:101CF000CB019C8B8B8B0FC080E791E09A8B898BFB
:101D000089899A890197F1F79A8B898B8B899C89AC
:101D100001979C8B8B8B8B899C89009769F714C0EA
:101D20006D897E898F89988D0E94C61DDC01CB014B
:101D30009C8B8B8B8B899C89988B8F878F859889BF
:101D40000197F1F7988B8F87A8E2B0E0E8E2F0E026
:101D500080818B7F8C938E8D8F708E8F8E8D992747
:101D600087FD909582959295907F9827807F982700
:101D70008E8FA8E2B0E0E8E2F0E080818F708C9373
:101D8000A8E2B0E0E8E2F0E08081982F8E8D892B08
:101D90008C93A8E2B0E0E8E2F0E0808181608C936F
:101DA000A8E2B0E0E8E2F0E080818D7F8C93A8E2C9
:101DB000B0E0E8E2F0E0808184608C9380E090E025
:101DC000A0EAB0E48B879C87AD87BE876B857C8556
:101DD0008D859E8526E636E646E655E40E949C1FE4
:101DE000DC01CB018F839887A987BA876F817885BB
:101DF00089859A8520E030E040E85FE30E94A221D7
:101E000088232CF481E090E09E838D833FC06F8116
:101E1000788589859A8520E03FEF4FE757E40E9457
:101E2000422118164CF56B857C858D859E8520E0BA
:101E300030E040E251E40E949C1FDC01CB01BC0178
:101E4000CD010E94C61DDC01CB019E838D830FC096
:101E500080E791E09C838B838B819C810197F1F7D4
:101E60009C838B838D819E8101979E838D838D8141
:101E70009E81009769F714C06F81788589859A855E
:101E80000E94C61DDC01CB019E838D838D819E81C6
:101E90009A83898389819A810197F1F79A8389834B
:101EA000A8E2B0E0E8E2F0E080818B7F8C936E9650
:101EB0000FB6F894DEBF0FBECDBFCF91DF9108956E
:101EC000DF93CF93CDB7DEB780E80E94A30CCF910C
:101ED000DF910895DF93CF930F920F92CDB7DEB7C6
:101EE0009A8389830AC0E981FA8180810E94FD0D6D
:101EF00089819A8101969A838983E981FA81808117
:101F0000882389F70F900F90CF91DF910895DF9389
:101F1000CF9300D00F92CDB7DEB789836A838981D2
:101F2000282F332727FD30953C832B838B819C8181
:101F300082309105D9F02B813C812330310534F476
:101F40008B819C818130910561F01EC02B813C8189
:101F50002330310581F08B819C818430910581F0A3
:101F600013C08A8181580E94A30C0EC08A818154BB
:101F70000E94A30C09C08A818D560E94A30C04C044
:101F80008A818D520E94A30C0F900F900F900F909A
:101F9000CF91DF910895DF93CF93CDB7DEB7279729
:101FA0000FB6F894DEBF0FBECDBF8A836B835D830F
:101FB0004C833F832E8319828A81882319F08B8179
:101FC000882319F40E94600F04C08A816B810E94EB
:101FD000870F8E819F818530910519F0898181302D
:101FE000A9F48C819D8120E137E2B9010E94F2249D
:101FF000CB01C0969093210380932003809120030E
:10200000909121030E94FD0D81E089838E819F8143
:102010008430910519F08981813011F58C819D8181
:1020200028EE33E0B9010E94F224CB019093230300
:102030008093220380912203909123032AE030E0D1
:10204000B9010E94F224C096909333038093320327
:1020500080913203909133030E94FD0D81E08983CA
:102060008E819F818330910519F08981813011F52E
:102070008C819D8124E630E0B9010E94F224CB01DD
:102080009093230380932203809122039091230352
:102090002AE030E0B9010E94F224C09690932D030B
:1020A00080932C0380912C0390912D030E94FD0DB1
:1020B00081E089838E819F818230910519F0898129
:1020C000813011F58C819D812AE030E0B9010E94B8
:1020D000F224CB0190932303809322038091220367
:1020E000909123032AE030E0B9010E94F224C096C7
:1020F00090932703809326038091260390912703D2
:102100000E94FD0D81E089838E819F818130910540
:1021100019F08981813091F48C819D812AE030E031
:10212000B9010E94F224C09690933103809330034A
:1021300080913003909131030E94FD0D8E819F812B
:10214000863091051CF085E40E94FD0D27960FB6A0
:10215000F894DEBF0FBECDBFCF91DF910895DF931E
:10216000CF93CDB7DEB72E970FB6F894DEBF0FBE74
:10217000CDBFF8940E94EE060E9454010E94990679
:102180007894A2E0B1E0E2E0F1E0808184608C9399
:10219000A7E2B0E0E7E2F0E0808188608C931C82E7
:1021A0001B821A8219820E94F90180E060E00E947D
:1021B000C4000E947B199C838B838B819C812FEFB1
:1021C0008D3992070CF43EC08B819C818436910539
:1021D000CCF520910202309103028B819C81A901F0
:1021E000489F9001499F300D589F300D112484EB7A
:1021F00090E0821B930B90931F0380931E0320910A
:102200000202309103028B819C81AC01249FC001AA
:10221000259F900D349F900D112487569F4F9093CA
:102220002B0380932A0380911E0390911F03282F74
:1022300080912A0390912B03982F822F692F0E945F
:10224000C400A5C18B819C818436910509F09DC194
:1022500029813A818B819C812817390709F497C11C
:1022600080911C0390911D03019690931D03809310
:102270001C03109217031092160380911C03909177
:102280001D03833091050CF456C180911A0390917F
:102290001B039E878D874D855E854430510509F46B
:1022A000E0C08D859E8585309105F4F44D855E8571
:1022B0004130510509F4ABC08D859E858230910572
:1022C00034F44D855E854115510539F13AC18D854E
:1022D0009E858230910509F4A8C04D855E85433006
:1022E000510509F4B0C02DC18D859E8586309105BC
:1022F00009F4F7C04D855E85463051050CF4E3C006
:102300008D859E858730910509F4F9C04D855E85E0
:102310004830510509F401C114C10E94781380911D
:102320001A0390911B03019690931B0380931A0349
:102330000E943C1A9C878B878B859C8581309105F8
:1023400031F04B855C854230510581F15DC00E94C2
:10235000901C0E94D91785E090E090931B03809316
:102360001A030E943C1A9A87898789859A85813049
:10237000910531F049855A854230510561F044C0DC
:102380000E94901C0E94171589E090E090931B0317
:1023900080931A0339C00E94901C0E94171589E08F
:1023A00090E090931B0380931A032EC00E94901C10
:1023B0000E94D91785E090E090931B0380931A0345
:1023C0000E943C1A98878F838F8198858130910570
:1023D00031F04F8158854230510561F015C00E949F
:1023E000901C0E94171589E090E090931B03809346
:1023F0001A030AC00E94901C0E94171589E090E001
:1024000090931B0380931A030E94F9019AC00E94C3
:1024100070190E94F90180911A0390911B03019693
:1024200090931B0380931A038CC00E94D9170E94BB
:10243000F90180911A0390911B03019690931B035D
:1024400080931A037EC00E9470190E94F901809146
:102450001A0390911B03019690931B0380931A0318
:1024600070C00E94701980911A0390911B0301960D
:1024700090931B0380931A030E943C1A9E838D83C2
:102480008D819E818130910531F04D815E81423098
:10249000510561F015C00E94901C0E94781389E0DC
:1024A00090E090931B0380931A030AC00E94901C33
:1024B0000E94781389E090E090931B0380931A03A5
:1024C0000E94F9013EC00E9470190E94F90180919A
:1024D0001A0390911B03019690931B0380931A0398
:1024E00030C00E94D9170E94F90180911A0390917F
:1024F0001B03019690931B0380931A0322C00E9432
:1025000070190E94F90180911A0390911B030196A2
:1025100090931B0380931A0314C00E943A160E94E2
:10252000F90180911A0390911B03019690931B036C
:1025300080931A0306C084EB69E90E94C4000E94DC
:10254000F90180911A0390911B0389309105F9F4E8
:1025500010921B0310921A038091040290910502BD
:102560000197909305028093040284EB69E90E942D
:10257000C4000E94F901809104029091050281300B
:10258000910529F40E947C06FFCF0E94971C8B8145
:102590009C819A83898380911803909119038130DB
:1025A000910509F006CE0E947C06FFCFDF93CF9302
:1025B00000D000D0CDB7DEB79E838D838D819E8104
:1025C000AA2797FDA095BA2FBC01CD010E94D22168
:1025D000DC01CB01BC01CD0125EE30ED4AEA50E42F
:1025E0000E949620DC01CB01BC01CD010E9430226B
:1025F000DC01CB019C838B831A82198210920E031B
:1026000010920F0310921003109211030E94F9010F
:1026100051C00E947B199A83898389819A812FEF07
:102620008D3992070CF43EC089819A8184369105D8
:10263000CCF5209102023091030289819A81A9018F
:10264000489F9001499F300D589F300D112484EB15
:1026500090E0821B930B90931F0380931E032091A5
:1026600002023091030289819A81AC01249FC0014A
:10267000259F900D349F900D112487569F4F909366
:102680002B0380932A0380911E0390911F03282F10
:1026900080912A0390912B03982F822F692F0E94FB
:1026A000C40008C089819A815FEF8C39950711F4C5
:1026B0000E94971C8B819C819C01442737FD40958B
:1026C000542F80910E0390910F03A0911003B091AD
:1026D000110382179307A407B50708F49ACF26962B
:1026E0000FB6F894DEBF0FBECDBFCF91DF91089536
:1026F000DF93CF93CDB7DEB7AA970FB6F894DEBFBE
:102700000FBECDBF109201021092000284EB69E966
:102710000E94C4008CE390E00E94D6120E947C06C6
:1027200080E090E0A8ECB2E48FA398A7A9A7BAA78D
:102730006FA178A589A59AA526E636E646E655E472
:102740000E949C1FDC01CB018BA39CA3ADA3BEA365
:102750006BA17CA18DA19EA120E030E040E85FE369
:102760000E94A22188232CF481E090E09AA389A3FF
:102770003FC06BA17CA18DA19EA120E03FEF4FE760
:1027800057E40E94422118164CF56FA178A589A53F
:102790009AA520E030E040E251E40E949C1FDC0159
:1027A000CB01BC01CD010E94C61DDC01CB019AA367
:1027B00089A30FC080E791E098A38F8F8F8D98A198
:1027C0000197F1F798A38F8F89A19AA101979AA3F6
:1027D00089A389A19AA1009769F714C06BA17CA174
:1027E0008DA19EA10E94C61DDC01CB019AA389A3E5
:1027F00089A19AA19E8F8D8F8D8D9E8D0197F1F766
:102800009E8F8D8F84EB69E90E94C4000E94EC02C8
:1028100080E090E0AAE7B4E4898F9A8FAB8FBC8FF9
:10282000698D7A8D8B8D9C8D26E636E646E655E4DD
:102830000E949C1FDC01CB018D8B9E8BAF8BB88FD0
:102840006D897E898F89988D20E030E040E85FE3D4
:102850000E94A22188232CF481E090E09C8B8B8B3A
:102860003FC06D897E898F89988D20E03FEF4FE7CB
:1028700057E40E94422118164CF5698D7A8D8B8D94
:102880009C8D20E030E040E251E40E949C1FDC017E
:10289000CB01BC01CD010E94C61DDC01CB019C8B8C
:1028A0008B8B0FC080E791E09A8B898B89899A89FD
:1028B0000197F1F79A8B898B8B899C8901979C8B67
:1028C0008B8B8B899C89009769F714C06D897E89F1
:1028D0008F89988D0E94C61DDC01CB019C8B8B8B50
:1028E0008B899C89988B8F878F8598890197F1F7C1
:1028F000988B8F8782E00E94B406882F90E0909397
:1029000029038093280309C082E00E94B406882F1F
:1029100090E090932903809328038091280390915D
:1029200029038F30910584F30E947C0680E090E0BB
:10293000A8ECB2E48B879C87AD87BE876B857C85CE
:102940008D859E8526E636E646E655E40E949C1F68
:10295000DC01CB018F839887A987BA876F8178853F
:1029600089859A8520E030E040E85FE30E94A2215B
:1029700088232CF481E090E09E838D833FC06F819B
:10298000788589859A8520E03FEF4FE757E40E94DC
:10299000422118164CF56B857C858D859E8520E03F
:1029A00030E040E251E40E949C1FDC01CB01BC01FD
:1029B000CD010E94C61DDC01CB019E838D830FC01B
:1029C00080E791E09C838B838B819C810197F1F759
:1029D0009C838B838D819E8101979E838D838D81C6
:1029E0009E81009769F714C06F81788589859A85E3
:1029F0000E94C61DDC01CB019E838D838D819E814B
:102A00009A83898389819A810197F1F79A838983CF
:102A100081E090E09093010280930002AA960FB6A5
:102A2000F894DEBF0FBECDBFCF91DF910895DF9345
:102A3000CF93CDB7DEB76C970FB6F894DEBF0FBE5D
:102A4000CDBF109201021092000284EB69E90E944E
:102A5000C4000E94EC0280E090E0AAE7B4E4898F11
:102A60009A8FAB8FBC8F698D7A8D8B8D9C8D26E66E
:102A700036E646E655E40E949C1FDC01CB018D8BB7
:102A80009E8BAF8BB88F6D897E898F89988D20E062
:102A900030E040E85FE30E94A22188232CF481E02B
:102AA00090E09C8B8B8B3FC06D897E898F89988D40
:102AB00020E03FEF4FE757E40E94422118164CF503
:102AC000698D7A8D8B8D9C8D20E030E040E251E461
:102AD0000E949C1FDC01CB01BC01CD010E94C61DE0
:102AE000DC01CB019C8B8B8B0FC080E791E09A8B34
:102AF000898B89899A890197F1F79A8B898B8B89C0
:102B00009C8901979C8B8B8B8B899C89009769F79B
:102B100014C06D897E898F89988D0E94C61DDC0145
:102B2000CB019C8B8B8B8B899C89988B8F878F8516
:102B300098890197F1F7988B8F8782E00E94B406FD
:102B4000882F90E0909329038093280309C082E0A6
:102B50000E94B406882F90E0909329038093280365
:102B600080912803909129038F30910584F30E946E
:102B70007C0680E090E0A8ECB2E48B879C87AD8770
:102B8000BE876B857C858D859E8526E636E646E686
:102B900055E40E949C1FDC01CB018F839887A98795
:102BA000BA876F81788589859A8520E030E040E892
:102BB0005FE30E94A22188232CF481E090E09E83B1
:102BC0008D833FC06F81788589859A8520E03FEFAE
:102BD0004FE757E40E94422118164CF56B857C851F
:102BE0008D859E8520E030E040E251E40E949C1FEC
:102BF000DC01CB01BC01CD010E94C61DDC01CB0173
:102C00009E838D830FC080E791E09C838B838B81B3
:102C10009C810197F1F79C838B838D819E81019725
:102C20009E838D838D819E81009769F714C06F818B
:102C3000788589859A850E94C61DDC01CB019E831B
:102C40008D838D819E819A83898389819A81019761
:102C5000F1F79A83898381E090E090930102809359
:102C600000026C960FB6F894DEBF0FBECDBFCF91B9
:102C7000DF910895DF93CF93CDB7DEB7AA970FB654
:102C8000F894DEBF0FBECDBF109201021092000279
:102C900084EB69E90E94C4008CE390E00E94D612A4
:102CA0000E947C0680E090E0A8ECB2E48FA398A795
:102CB000A9A7BAA76FA178A589A59AA526E636E6A1
:102CC00046E655E40E949C1FDC01CB018BA39CA32C
:102CD000ADA3BEA36BA17CA18DA19EA120E030E09D
:102CE00040E85FE30E94A22188232CF481E090E079
:102CF0009AA389A33FC06BA17CA18DA19EA120E0D6
:102D00003FEF4FE757E40E94422118164CF56FA1A0
:102D100078A589A59AA520E030E040E251E40E9420
:102D20009C1FDC01CB01BC01CD010E94C61DDC0152
:102D3000CB019AA389A30FC080E791E098A38F8F5E
:102D40008F8D98A10197F1F798A38F8F89A19AA1F0
:102D500001979AA389A389A19AA1009769F714C042
:102D60006BA17CA18DA19EA10E94C61DDC01CB019F
:102D70009AA389A389A19AA19E8F8D8F8D8D9E8DF7
:102D80000197F1F79E8F8D8F84EB69E90E94C40053
:102D90000E94800380E090E0AAE7B4E4898F9A8FD4
:102DA000AB8FBC8F698D7A8D8B8D9C8D26E636E638
:102DB00046E655E40E949C1FDC01CB018D8B9E8B67
:102DC000AF8BB88F6D897E898F89988D20E030E038
:102DD00040E85FE30E94A22188232CF481E090E088
:102DE0009C8B8B8B3FC06D897E898F89988D20E06D
:102DF0003FEF4FE757E40E94422118164CF5698DCA
:102E00007A8D8B8D9C8D20E030E040E251E40E9471
:102E10009C1FDC01CB01BC01CD010E94C61DDC0161
:102E2000CB019C8B8B8B0FC080E791E09A8B898BB9
:102E300089899A890197F1F79A8B898B8B899C896B
:102E400001979C8B8B8B8B899C89009769F714C0A9
:102E50006D897E898F89988D0E94C61DDC01CB010A
:102E60009C8B8B8B8B899C89988B8F878F8598897E
:102E70000197F1F7988B8F8782E00E94B406882F24
:102E800090E0909329038093280309C082E00E9478
:102E9000B406882F90E090932903809328038091B3
:102EA0002803909129038F30910584F30E947C06BA
:102EB00080E090E0A8ECB2E48B879C87AD87BE876A
:102EC0006B857C858D859E8526E636E646E655E44F
:102ED0000E949C1FDC01CB018F839887A987BA874A
:102EE0006F81788589859A8520E030E040E85FE34E
:102EF0000E94A22188232CF481E090E09E838D83A0
:102F00003FC06F81788589859A8520E03FEF4FE744
:102F100057E40E94422118164CF56B857C858D85FF
:102F20009E8520E030E040E251E40E949C1FDC01DD
:102F3000CB01BC01CD010E94C61DDC01CB019E83EB
:102F40008D830FC080E791E09C838B838B819C8174
:102F50000197F1F79C838B838D819E8101979E83DE
:102F60008D838D819E81009769F714C06F8178856C
:102F700089859A850E94C61DDC01CB019E838D83C5
:102F80008D819E819A83898389819A810197F1F746
:102F90009A83898381E090E09093010280930002FC
:102FA000AA960FB6F894DEBF0FBECDBFCF91DF91CA
:102FB0000895DF93CF93CDB7DEB7AA970FB6F894F5
:102FC000DEBF0FBECDBF10920102109200020E9420
:102FD0007C0680E090E0A8ECB2E48FA398A7A9A7B4
:102FE000BAA76FA178A589A59AA526E636E646E692
:102FF00055E40E949C1FDC01CB018BA39CA3ADA3D5
:10300000BEA36BA17CA18DA19EA120E030E040E891
:103010005FE30E94A22188232CF481E090E09AA330
:1030200089A33FC06BA17CA18DA19EA120E03FEFB1
:103030004FE757E40E94422118164CF56FA178A57E
:1030400089A59AA520E030E040E251E40E949C1F4F
:10305000DC01CB01BC01CD010E94C61DDC01CB010E
:103060009AA389A30FC080E791E098A38F8F8F8DDB
:1030700098A10197F1F798A38F8F89A19AA1019741
:103080009AA389A389A19AA1009769F714C06BA19B
:103090007CA18DA19EA10E94C61DDC01CB019AA33B
:1030A00089A389A19AA19E8F8D8F8D8D9E8D019769
:1030B000F1F79E8F8D8F84EB69E90E94C4000E9416
:1030C000EC0280E090E4ACE1B5E4898F9A8FAB8F9D
:1030D000BC8F698D7A8D8B8D9C8D26E636E646E613
:1030E00055E40E949C1FDC01CB018D8B9E8BAF8B26
:1030F000B88F6D897E898F89988D20E030E040E817
:103100005FE30E94A22188232CF481E090E09C8B55
:103110008B8B3FC06D897E898F89988D20E03FEF32
:103120004FE757E40E94422118164CF5698D7A8DBD
:103130008B8D9C8D20E030E040E251E40E949C1F8A
:10314000DC01CB01BC01CD010E94C61DDC01CB011D
:103150009C8B8B8B0FC080E791E09A8B898B898940
:103160009A890197F1F79A8B898B8B899C890197B2
:103170009C8B8B8B8B899C89009769F714C06D8918
:103180007E898F89988D0E94C61DDC01CB019C8BA6
:103190008B8B8B899C89988B8F878F8598890197DA
:1031A000F1F7988B8F8782E00E94B406882F90E019
:1031B000909329038093280309C082E00E94B406FB
:1031C000882F90E09093290380932803809128030F
:1031D000909129038F30910584F30E947C0680E052
:1031E00090E0A8ECB2E48B879C87AD87BE876B85A7
:1031F0007C858D859E8526E636E646E655E40E946A
:103200009C1FDC01CB018F839887A987BA876F81C8
:10321000788589859A8520E030E040E85FE30E9468
:10322000A22188232CF481E090E09E838D833FC00F
:103230006F81788589859A8520E03FEF4FE757E4D5
:103240000E94422118164CF56B857C858D859E85E4
:1032500020E030E040E251E40E949C1FDC01CB0101
:10326000BC01CD010E94C61DDC01CB019E838D8374
:103270000FC080E791E09C838B838B819C810197B9
:10328000F1F79C838B838D819E8101979E838D8333
:103290008D819E81009769F714C06F81788589853B
:1032A0009A850E94C61DDC01CB019E838D838D8192
:1032B0009E819A83898389819A810197F1F79A8304
:1032C000898381E090E09093010280930002AA96A6
:1032D0000FB6F894DEBF0FBECDBFCF91DF9108953A
:1032E000DF93CF93CDB7DEB784EB69E90E94C400CA
:1032F000CF91DF910895DF93CF930F920F92CDB7C7
:10330000DEB782E00E94B406882F90E090932903F4
:103310008093280383E00E94B406882F90E0909366
:1033200025038093240381E00E94B406882F90E057
:1033300090932F0380932E03809124039091250373
:103340009C0182E061E0A90123E030E00E94CB0F04
:1033500080912803909129039C0182E065E0A901F6
:1033600023E030E00E94CB0F80912E0390912F0339
:103370009C0182E069E0A90123E030E00E94CB0FCC
:1033800080912403909125038031910564F0809110
:103390002E0390912F03803191052CF084E690E06C
:1033A0009A83898362C080912803909129038F3189
:1033B00091051CF01A82198258C0809124039091C3
:1033C00025038C3491052CF084E090E09A83898366
:1033D0004CC08091240390912503833391052CF0F8
:1033E00083E090E09A83898340C080912403909188
:1033F00025038C3091052CF082E090E09A8389833C
:1034000034C080912403909125038A3091052CF0DB
:1034100081E090E09A83898328C080912E03909167
:103420002F03813591052CF08CEF9FEF9A838983D0
:103430001CC080912E0390912F03843291052CF0B3
:103440008DEF9FEF9A83898310C080912E03909116
:103450002F038B3091052CF08EEF9FEF9A83898399
:1034600004C08CE99FEF9A83898389819A810F90A8
:103470000F90CF91DF910895DF93CF93CDB7DEB753
:10348000E0970FB6F894DEBF0FBECDBF10920102D9
:10349000109200028BE00E94B406882F90E09EA755
:1034A0008DA71CA61BA68DA59EA5833891055CF053
:1034B00081E090E0909301028093000281E090E02F
:1034C00098AB8FA722C28DA59EA58E3291055CF088
:1034D00081E090E0909301028093000282E090E00E
:1034E00098AB8FA712C284EB66E90E94C40083E008
:1034F0000E94B406882F90E09093250380932403C4
:103500000E9480031BC08BE00E94B406882F90E0CD
:103510009EA78DA72DA53EA58BA59CA582179307D9
:1035200024F48DA59EA59CA78BA783E00E94B406DA
:10353000882F90E0909325038093240380912403A7
:103540009091250384319105F4F20E947C0680E07D
:1035500090E0A8ECB2E48FA398A7A9A7BAA76FA19F
:1035600078A589A59AA526E636E646E655E40E94A2
:103570009C1FDC01CB018BA39CA3ADA3BEA36BA1BD
:103580007CA18DA19EA120E030E040E85FE30E9495
:10359000A22188232CF481E090E09AA389A33FC064
:1035A0006BA17CA18DA19EA120E03FEF4FE757E4E6
:1035B0000E94422118164CF56FA178A589A59AA5FD
:1035C00020E030E040E251E40E949C1FDC01CB018E
:1035D000BC01CD010E94C61DDC01CB019AA389A3C9
:1035E0000FC080E791E098A38F8F8F8D98A10197EE
:1035F000F1F798A38F8F89A19AA101979AA389A324
:1036000089A19AA1009769F714C06BA17CA18DA133
:103610009EA10E94C61DDC01CB019AA389A389A1AA
:103620009AA19E8F8D8F8D8D9E8D0197F1F79E8F24
:103630008D8F81E00E94B406882F90E090932F0335
:1036400080932E030E94EC021BC08BE00E94B40604
:10365000882F90E09EA78DA72DA53EA58BA59CA5A4
:103660008217930724F48DA59EA59CA78BA781E0C4
:103670000E94B406882F90E090932F0380932E032E
:1036800080912E0390912F0384319105F4F20E94D2
:103690007C0680E090E0A8ECB2E4898F9A8FAB8F33
:1036A000BC8F698D7A8D8B8D9C8D26E636E646E63D
:1036B00055E40E949C1FDC01CB018D8B9E8BAF8B50
:1036C000B88F6D897E898F89988D20E030E040E841
:1036D0005FE30E94A22188232CF481E090E09C8B80
:1036E0008B8B3FC06D897E898F89988D20E03FEF5D
:1036F0004FE757E40E94422118164CF5698D7A8DE8
:103700008B8D9C8D20E030E040E251E40E949C1FB4
:10371000DC01CB01BC01CD010E94C61DDC01CB0147
:103720009C8B8B8B0FC080E791E09A8B898B89896A
:103730009A890197F1F79A8B898B8B899C890197DC
:103740009C8B8B8B8B899C89009769F714C06D8942
:103750007E898F89988D0E94C61DDC01CB019C8BD0
:103760008B8B8B899C89988B8F878F859889019704
:10377000F1F7988B8F8782E00E94B406882F90E043
:1037800090932903809328030E9480031BC08BE041
:103790000E94B406882F90E09EA78DA72DA53EA578
:1037A0008BA59CA58217930724F48DA59EA59CA7A5
:1037B0008BA782E00E94B406882F90E090932903A3
:1037C0008093280380912803909129038F309105DD
:1037D000F4F20E947C0680E090E0A8ECB2E48B87D3
:1037E0009C87AD87BE876B857C858D859E8526E60B
:1037F00036E646E655E40E949C1FDC01CB018F8330
:103800009887A987BA876F81788589859A8520E00E
:1038100030E040E85FE30E94A22188232CF481E09D
:1038200090E09E838D833FC06F81788589859A85DE
:1038300020E03FEF4FE757E40E94422118164CF575
:103840006B857C858D859E8520E030E040E251E4EB
:103850000E949C1FDC01CB01BC01CD010E94C61D52
:10386000DC01CB019E838D830FC080E791E09C83B8
:103870008B838B819C810197F1F79C838B838D8156
:103880009E8101979E838D838D819E81009769F72C
:1038900014C06F81788589859A850E94C61DDC01D8
:1038A000CB019E838D838D819E819A8389838981BB
:1038B0009A810197F1F79A8389838BA59CA5833818
:1038C00091055CF081E090E090930102809300020A
:1038D00082E090E098AB8FA718C08BA59CA58E3294
:1038E00091055CF081E090E09093010280930002EA
:1038F00081E090E098AB8FA708C081E090E09093C2
:1039000001028093000218AA1FA68FA598A9E0962D
:103910000FB6F894DEBF0FBECDBFCF91DF910895F3
:10392000DF93CF93CDB7DEB7CF91DF910895DF93CB
:10393000CF93CDB7DEB762970FB6F894DEBF0FBE58
:10394000CDBF109201021092000280910E0390915F
:103950000F03A0911003B09111039A8B898B809172
:10396000120390911303A0911403B0911503988B47
:103970008F8784EB66E90E94C40081E00E94B40650
:10398000882F90E090932F0380932E030E94EC02E7
:1039900022C082E00E94B406882F90E09093290311
:1039A0008093280380912803909129038F319105FA
:1039B0004CF00E94F90181E090E090930102809325
:1039C0000002DBC081E00E94B406882F90E0909353
:1039D0002F0380932E0380912E0390912F03843127
:1039E0009105BCF20E947C0680E090E0A8ECB2E475
:1039F0008B879C87AD87BE876B857C858D859E85F3
:103A000026E636E646E655E40E949C1FDC01CB0123
:103A10008F839887A987BA876F81788589859A85EA
:103A200020E030E040E85FE30E94A22188232CF4EC
:103A300081E090E09E838D833FC06F81788589858A
:103A40009A8520E03FEF4FE757E40E944221181685
:103A50004CF56B857C858D859E8520E030E040E2CD
:103A600051E40E949C1FDC01CB01BC01CD010E94EE
:103A7000C61DDC01CB019E838D830FC080E791E0E2
:103A80009C838B838B819C810197F1F79C838B8333
:103A90008D819E8101979E838D838D819E8100976C
:103AA00069F714C06F81788589859A850E94C61D43
:103AB000DC01CB019E838D838D819E819A838983D6
:103AC00089819A810197F1F79A83898383E00E9423
:103AD000B406882F90E090932503809324030E94DE
:103AE000800322C082E00E94B406882F90E0909369
:103AF00029038093280380912803909129038F3113
:103B000091054CF00E94F90181E090E09093010250
:103B10008093000232C083E00E94B406882F90E0B8
:103B2000909325038093240380912403909125038F
:103B300084319105BCF289899A89AA2797FDA095BD
:103B4000BA2F80930E0390930F03A0931003B093AA
:103B500011038F859889AA2797FDA095BA2F809386
:103B6000120390931303A0931403B093150381E001
:103B700090E0909301028093000262960FB6F89451
:103B8000DEBF0FBECDBFCF91DF910895EF92FF92C0
:103B90000F931F937B018C0120E030E040E05FE455
:103BA0000E94722188238CF0C801B70120E030E028
:103BB00040E05FE40E943E1F0E9430229B01AC0166
:103BC000205030404040504806C0C801B7010E9414
:103BD00030229B01AC01B901CA011F910F91FF90E6
:103BE000EF900895A0E0B0E0E8EFFDE10C94062529
:103BF000DC012B01FA019C91923008F439C1EB01F0
:103C00008881823008F433C1943069F4843009F03B
:103C10002FC111969C9111978981981709F428C199
:103C2000A6E0B2E025C1843009F421C18230A9F4B4
:103C3000923009F01DC19A01AD0188E0EA010990B6
:103C4000AE01E90109929E018150C1F7E20189812B
:103C500011969C918923818308C1923009F407C190
:103C600012962D903C901397EB018A819B811496BC
:103C7000AD90BD90CD90DC901797EC80FD800E81CB
:103C80001F819101281B390BB90137FF04C066273A
:103C90007727621B730B603271050CF061C012163E
:103CA00013066CF537014801062E04C096948794DC
:103CB000779467940A94D2F721E030E040E050E036
:103CC00004C0220F331F441F551F6A95D2F721509D
:103CD0003040404050402E213F21402351232115A8
:103CE00031054105510521F021E030E040E050E090
:103CF00079018A01E628F728082919293CC0232BD5
:103D0000D1F1260E371E35014601062E04C09694C9
:103D10008794779467940A94D2F721E030E040E0EA
:103D200050E004C0220F331F441F551F6A95D2F77D
:103D300021503040404050402A213B214C215D2100
:103D4000211531054105510521F021E030E040E029
:103D500050E059016A01A628B728C828D9280BC005
:103D6000821593052CF01C01AA24BB24650103C015
:103D7000EE24FF24870111969C91D20111968C911B
:103D8000981709F445C0992339F0A80197012A1919
:103D90003B094C095D0906C0A60195012E193F0992
:103DA000400B510B57FD08C01182338222822483BD
:103DB0003583468357831DC081E08183338222820D
:103DC00088279927DC01821B930BA40BB50B8483F6
:103DD0009583A683B7830DC0220F331F441F551F41
:103DE000248335834683578382819381019793830C
:103DF00082832481358146815781DA01C901019787
:103E0000A109B1098F5F9F4FAF4FBF4328F30BC08C
:103E1000918333822282EA0CFB1C0C1D1D1DE4825F
:103E2000F5820683178383E0808324813581468170
:103E3000578157FF1AC0C901AA2797FDA095BA2F2D
:103E400081709070A070B070569547953795279502
:103E5000822B932BA42BB52B84839583A683B783C6
:103E600082819381019693838283DF0101C0D20115
:103E7000CD01CDB7DEB7E2E10C942225A0E2B0E09F
:103E8000E4E4FFE10C94122569837A838B839C839D
:103E90002D833E834F835887E9E0EE2EF12CEC0E04
:103EA000FD1ECE010196B7010E9421248E010F5EF6
:103EB0001F4FCE010596B8010E9421248A8991E006
:103EC00089278A8BC701B801AE01475E5F4F0E9408
:103ED000F21D0E944C23A096E6E00C942E25A0E251
:103EE000B0E0E5E7FFE10C94122569837A838B83C8
:103EF0009C832D833E834F835887F9E0EF2EF12C6E
:103F0000EC0EFD1ECE010196B7010E9421248E0108
:103F10000F5E1F4FCE010596B8010E942124C701F4
:103F2000B801AE01475E5F4F0E94F21D0E944C2314
:103F3000A096E6E00C942E25A0E2B0E0E2EAFFE1D4
:103F40000C94062569837A838B839C832D833E831F
:103F50004F835887CE010196BE01675F7F4F0E9455
:103F60002124CE010596BE016F5E7F4F0E94212461
:103F70009985923088F089898230C8F0943019F49C
:103F8000823051F404C0843029F4923081F486E008
:103F900092E0C6C0923049F420E09A858A8998134D
:103FA00021E02A87CE010996BBC0823049F420E087
:103FB0009A858A89981321E02A8BCE014196B0C058
:103FC0002D843E844F8458886D887E888F88988C95
:103FD000EE24FF248701AA24BB24650140E050E0C1
:103FE00060E070E0E0E0F0E0C10181709070892B4A
:103FF000E9F0E60CF71C081D191D9A01AB012A0D0A
:104000003B1D4C1D5D1D80E090E0A0E0B0E0E6149B
:10401000F7040805190520F481E090E0A0E0B0E085
:10402000BA01A901480F591F6A1F7B1FAA0CBB1CAC
:10403000CC1CDD1C97FE08C081E090E0A0E0B0E061
:10404000A82AB92ACA2ADB2A3196E032F10549F0BA
:10405000660C771C881C991C5694479437942794B7
:10406000C3CFFA85EA892B893C898B859C85280FEB
:10407000391F2E5F3F4F17C0CA0181709070892B86
:1040800061F016950795F794E79480E090E0A0E042
:10409000B0E8E82AF92A0A2B1B2B769567955795E5
:1040A00047952F5F3F4F77FDE7CF0CC0440F551F5B
:1040B000661F771F17FD4160EE0CFF1C001F111FCC
:1040C00021503040403090E0590790E0690790E47B
:1040D000790760F32B8F3C8FDB01CA018F779070DB
:1040E000A070B07080349105A105B10561F447FD61
:1040F0000AC0E114F1040105110529F0405C5F4F8D
:104100006F4F7F4F40781A8EFE1711F081E08A8F33
:104110004D8F5E8F6F8F78A383E0898FCE01499694
:104120000E944C23A096E2E10C942225A8E1B0E085
:10413000ECE9F0E20C940E2569837A838B839C83EF
:104140002D833E834F835887B9E0EB2EF12CEC0E84
:10415000FD1ECE010196B7010E9421248E010F5E43
:104160001F4FCE010596B8010E94212429852230D7
:1041700008F47EC03989323010F4B8017CC08A85D9
:104180009A8989278A87243011F0223031F4231745
:1041900009F06EC066E072E06EC0343039F41D86FE
:1041A0001E861F86188A1C861B8604C0323021F4A6
:1041B00084E08987B7015FC02B853C858B899C890A
:1041C000281B390B3C872B87ED84FE840F851889CB
:1041D000AD88BE88CF88D88CEA14FB040C051D0579
:1041E00040F4EE0CFF1C001F111F215030403C8793
:1041F0002B8720E030E040E050E080E090E0A0E05D
:10420000B0E460E070E0EA14FB040C051D0540F02A
:10421000282B392B4A2B5B2BEA18FB080C091D09AC
:10422000B695A79597958795EE0CFF1C001F111F5B
:104230006F5F7F4F6F31710531F7DA01C9018F77F9
:104240009070A070B07080349105A105B10561F443
:1042500027FD0AC0E114F1040105110529F0205CD5
:104260003F4F4F4F5F4F20782D873E874F87588BAA
:10427000BE01675F7F4FCB010E944C236896EAE046
:104280000C942A25A8E1B0E0E8E4F1E20C941225B0
:1042900069837A838B839C832D833E834F835887E6
:1042A00089E0E82EF12CEC0EFD1ECE010196B7013F
:1042B0000E9421248E010F5E1F4FCE010596B8018A
:1042C0000E9421248985823040F08989823028F03B
:1042D000C701B8010E94992401C08FEF6896E6E0FB
:1042E0000C942E25A8E1B0E0E8E7F1E20C94122549
:1042F00069837A838B839C832D833E834F83588786
:1043000089E0E82EF12CEC0EFD1ECE010196B701DE
:104310000E9421248E010F5E1F4FCE010596B80129
:104320000E9421248985823040F08989823028F0DA
:10433000C701B8010E94992401C08FEF6896E6E09A
:104340000C942E25A8E1B0E0E8EAF1E20C941225E5
:1043500069837A838B839C832D833E834F83588725
:1043600089E0E82EF12CEC0EFD1ECE010196B7017E
:104370000E9421248E010F5E1F4FCE010596B801C9
:104380000E9421248985823040F08989823028F07A
:10439000C701B8010E94992401C081E06896E6E057
:1043A0000C942E25A8E0B0E0E8EDF1E20C940F2586
:1043B0009B01AC0183E08983DA01C9018827B7FD3D
:1043C00083959927AA27BB27B82E211531054105CA
:1043D000510519F482E089833AC08823A9F020307E
:1043E00080E0380780E0480780E8580729F460E05B
:1043F00070E080E09FEC30C0EE24FF248701E21AD9
:10440000F30A040B150B02C079018A018EE1C82E54
:10441000D12CDC82CB82ED82FE820F831887C8010B
:10442000B7010E94FD2201971816190684F4082E80
:1044300004C0EE0CFF1C001F111F0A94D2F7ED827E
:10444000FE820F831887C81AD90ADC82CB82BA820F
:10445000CE0101960E944C232896E9E00C942B256E
:10446000ACE0B0E0E6E3F2E20C94162569837A83CF
:104470008B839C83CE010196BE016B5F7F4F0E94B0
:1044800021248D81823061F1823050F1843021F419
:104490008E81882351F12EC02F81388537FD20C0B1
:1044A0006E812F3131051CF06623F9F023C08EE1B7
:1044B00090E0821B930B29853A854B855C8504C06F
:1044C00056954795379527958A95D2F76623B1F08B
:1044D00050954095309521953F4F4F4F5F4F0EC0FF
:1044E00020E030E040E050E009C02FEF3FEF4FEF19
:1044F0005FE704C020E030E040E050E8B901CA01C5
:104500002C96E2E00C943225A8E0B0E0EAE8F2E272
:104510000C940E257B018C016115710581059105B7
:1045200019F482E0898360C083E089838EE1C82E1C
:10453000D12CDC82CB82ED82FE820F831887C801EA
:10454000B7010E94FD22FC013197F7FF3BC02227F3
:1045500033272E1B3F0B57016801022E04C0D6944F
:10456000C794B794A7940A94D2F740E050E060E073
:1045700070E081E090E0A0E0B0E004C0880F991FF7
:10458000AA1FBB1F2A95D2F70197A109B1098E2155
:104590009F21A023B1230097A105B10521F041E09F
:1045A00050E060E070E04A295B296C297D294D8349
:1045B0005E836F8378878EE190E08E1B9F0B9C83D8
:1045C0008B8312C0309781F00E2E04C0EE0CFF1CBE
:1045D000001F111F0A94D2F7ED82FE820F83188705
:1045E000CE1ADF0ADC82CB821A82CE0101960E94AB
:1045F0004C232896EAE00C942A25EF92FF920F9321
:104600001F937B018C0180E0E81680E0F80681E0D2
:10461000080780E0180788F48FEFE816F104010519
:10462000110531F028F088E090E0A0E0B0E017C07C
:1046300080E090E0A0E0B0E012C080E0E81680E00A
:10464000F80680E0080781E0180728F088E190E08C
:10465000A0E0B0E004C080E190E0A0E0B0E020E2A3
:1046600030E040E050E0281B390B4A0B5B0B04C0E4
:1046700016950795F794E7948A95D2F7F701E25FCC
:10468000FD4F8081281B310941095109C9011F9142
:104690000F91FF90EF900895DF92EF92FF920F93AA
:1046A0001F93FC01E480F58006811781D180808111
:1046B000823048F480E090E0A0E1B0E0E82AF92AF6
:1046C0000A2B1B2BA5C0843009F49FC0823021F433
:1046D000EE24FF24870105C0E114F1040105110552
:1046E00019F4E0E0F0E096C0628173819FEF6238D8
:1046F00079070CF05BC022E83FEF261B370B2A310D
:1047000031052CF020E030E040E050E02AC0B80154
:10471000A701022E04C076956795579547950A9490
:10472000D2F781E090E0A0E0B0E004C0880F991FCC
:10473000AA1FBB1F2A95D2F70197A109B1098E21A3
:104740009F21A023B1230097A105B10521F081E0AD
:1047500090E0A0E0B0E09A01AB01282B392B4A2B66
:104760005B2BDA01C9018F779070A070B070803434
:104770009105A105B10539F427FF09C0205C3F4F21
:104780004F4F5F4F04C0215C3F4F4F4F5F4FE0E002
:10479000F0E02030A0E03A07A0E04A07A0E45A0782
:1047A00010F0E1E0F0E079018A0127C0603871057E
:1047B00064F5FB01E158FF4FD801C7018F77907076
:1047C000A070B07080349105A105B10539F4E7FE01
:1047D0000DC080E490E0A0E0B0E004C08FE390E082
:1047E000A0E0B0E0E80EF91E0A1F1B1F17FF05C06E
:1047F00016950795F794E794319687E016950795F7
:10480000F794E7948A95D1F705C0EE24FF24870139
:10481000EFEFF0E06E2F679566276795902F9F77F3
:10482000D794DD24D7948E2F8695492F462B582F69
:104830005D29B701CA011F910F91FF90EF90DF90A2
:104840000895FC01DB01408151812281622F6F7745
:1048500070E0221F2227221F9381892F880F822B2D
:10486000282F30E0991F9927991F11969C93119733
:1048700021153105A9F5411551056105710511F4A1
:1048800082E037C082E89FEF13969C938E93129735
:104890009A01AB0167E0220F331F441F551F6A9531
:1048A000D1F783E08C930DC0220F331F441F551F97
:1048B00012968D919C911397019713969C938E93CA
:1048C0001297203080E0380780E0480780E45807DE
:1048D00058F314962D933D934D935C931797089539
:1048E0002F3F310579F4411551056105710519F422
:1048F00084E08C93089564FF03C081E08C9312C020
:104900001C9210C02F57304013963C932E93129751
:1049100083E08C9387E0440F551F661F771F8A95AD
:10492000D1F7706414964D935D936D937C931797B4
:1049300008951F93DC01FB019C91923008F447C05D
:104940008081823008F443C0943051F411961C9158
:10495000843099F58181682F70E0611B71093FC037
:10496000843021F0923031F48230B9F18181882392
:1049700089F12DC011961C9111978230F1F081813F
:104980001817D9F412962D913C9113978281938137
:104990008217930794F028173907BCF014968D916D
:1049A0009D910D90BC91A02D248135814681578128
:1049B000281739074A075B0718F4112341F00AC08A
:1049C00082179307A407B50740F4112319F061E09B
:1049D00070E005C06FEF7FEF02C060E070E0CB01D8
:1049E0001F910895AA1BBB1B51E107C0AA1FBB1F43
:1049F000A617B70710F0A61BB70B881F991F5A956B
:104A0000A9F780959095BC01CD0108952F923F9212
:104A10004F925F926F927F928F929F92AF92BF92CE
:104A2000CF92DF92EF92FF920F931F93CF93DF937A
:104A3000CDB7DEB7CA1BDB0B0FB6F894DEBF0FBED7
:104A4000CDBF19942A88398848885F846E847D8414
:104A50008C849B84AA84B984C884DF80EE80FD8026
:104A60000C811B81AA81B981CE0FD11D0FB6F8949C
:0E4A7000DEBF0FBECDBFED010895F894FFCF5D
:104A7E0001000D0006000000000000000000000113
:104A8E0002020303030304040404040404040505DE
:104A9E0005050505050505050505050505050606B6
:104AAE000606060606060606060606060606060698
:104ABE000606060606060606060606060606070786
:104ACE000707070707070707070707070707070768
:104ADE000707070707070707070707070707070758
:104AEE000707070707070707070707070707070748
:104AFE000707070707070707070707070707080836
:104B0E000808080808080808080808080808080817
:104B1E000808080808080808080808080808080807
:104B2E0008080808080808080808080808080808F7
:104B3E0008080808080808080808080808080808E7
:104B4E0008080808080808080808080808080808D7
:104B5E0008080808080808080808080808080808C7
:104B6E0008080808080808080808080808080808B7
:0E4B7E000808080808080808080808080808B9
:00000001FF
