:100000000C9472000C9493000C9493000C94930045
:100010000C9493000C9492010C9467010C9493003F
:100020000C9493000C9493000C9493000C94930004
:100030000C9493000C9493000C9493000C949300F4
:100040000C9493000C9493000C9493000C949300E4
:100050000C9493000C9493000C9493000C949300D4
:100060000C9493000C9493000C9493000C949300C4
:100070000C9493000C9493000C9493000C949300B4
:100080000C9493000C9493000C9493000C949300A4
:100090000C9493000C9493000C9493000C94930094
:1000A0000C9493000C9493000C9493000C94930084
:1000B0000C9493000C9493000C9493000C94930074
:1000C0000C9493000C9493000C9493000C94930064
:1000D0000C9493000C9493000C9493000C94930054
:1000E0000C94930011241FBECFEFD1E2DEBFCDBF31
:1000F00000E00CBF13E0A0E0B2E0EEEBF3E300E0C1
:100100000BBF02C007900D92A830B107D9F713E0DA
:10011000A8E0B3E001C01D92AC31B107E1F70E9445
:1001200092100C94DD190C940000DF93CF93CDB79F
:10013000DEB7E1E2F1E01082E5E2F1E08FEF8083EB
:10014000E4E2F1E081E08083E9E2F1E01082E8E2BC
:10015000F1E08FEF8083EBE2F1E01082EAE2F1E080
:100160008FEF8083EDE2F1E01082ECE2F1E08FEFBF
:100170008083E0E2F1E089EA8083E1E2F1E08BE074
:100180008083CF91DF910895DF93CF930F920F92E9
:10019000CDB7DEB789836A83E8E2F1E089818083A5
:1001A000EAE2F1E08A8180830F900F90CF91DF9196
:1001B0000895DF93CF93CDB7DEB7A1E2B0E0E1E2DF
:1001C000F0E080818F608C93A2E2B0E0E2E2F0E0A8
:1001D0008081807F8C93AAE0B1E0EAE0F1E0808149
:1001E00088618C93ABE0B1E0EBE0F1E08081886165
:1001F0008C93CF91DF910895DF93CF93CDB7DEB786
:10020000ADE2B0E0EDE2F0E080818F7E8C93AEE273
:10021000B0E0EEE2F0E0808180618C93CF91DF91DD
:100220000895DF93CF93CDB7DEB7ADE2B0E0EDE256
:10023000F0E080818F7D8C93AEE2B0E0EEE2F0E002
:10024000808180628C93CF91DF910895DF93CF936B
:10025000CDB7DEB7F894AAE6B0E0EAE6F0E0808138
:1002600082608C93ADE3B0E0EDE3F0E080818061EB
:100270008C937894CF91DF910895DF93CF93CDB78E
:10028000DEB7F894AAE6B0E0EAE6F0E080818860A4
:100290008C93ADE3B0E0EDE3F0E0808180628C937D
:1002A0007894CF91DF910895DF93CF93CDB7DEB7E8
:1002B0000E94D9000E94FC000E9411010E942601A8
:1002C0000E943D010E949500CF91DF9108951F92F9
:1002D0000F920FB60F9211248F939F93AF93BF93FA
:1002E000DF93CF93CDB7DEB780910C0390910D03D0
:1002F000A0910E03B0910F030196A11DB11D809333
:100300000C0390930D03A0930E03B0930F03CF91B2
:10031000DF91BF91AF919F918F910F900FBE0F9082
:100320001F9018951F920F920FB60F9211248F9362
:100330009F93AF93BF93DF93CF93CDB7DEB78091F9
:10034000080390910903A0910A03B0910B03019651
:10035000A11DB11D8093080390930903A0930A0384
:10036000B0930B03CF91DF91BF91AF919F918F918C
:100370000F900FBE0F901F901895DF93CF930F92A1
:100380000F92CDB7DEB78A8319828A818F708A83F4
:10039000E2E2F0E0808189838981807F898399818D
:1003A0008A81892B8983E2E2F0E0898180830F9042
:1003B0000F90CF91DF910895DF93CF93CDB7DEB744
:1003C00086E00E94BD01CF91DF910895DF93CF9326
:1003D000CDB7DEB72A970FB6F894DEBF0FBECDBFFC
:1003E0009A87898780E090E0A0E0B0E08D839E83CB
:1003F000AF83B88719821A821B821C8289859A85ED
:10040000CC01A0E0B0E0BC01CD010E942417DC01CA
:10041000CB01BC01CD0125EE30ED4AEA50E40E944B
:100420009415DC01CB018D839E83AF83B8876D81EA
:100430007E818F8198850E94C412DC01CB01898363
:100440009A83AB83BC8310920C0310920D0310921D
:100450000E0310920F0310920803109209031092DA
:100460000A0310920B030E94DC0120910C033091CF
:100470000D0340910E0350910F0389819A81AB8146
:10048000BC8182179307A407B50788F02091080361
:100490003091090340910A0350910B0389819A819D
:1004A000AB81BC8182179307A407B507F0F60E94C1
:1004B0005F062A960FB6F894DEBF0FBECDBFCF9170
:1004C000DF910895DF93CF93CDB7DEB789E00E9427
:1004D000BD01CF91DF910895DF93CF93CDB7DEB704
:1004E0002A970FB6F894DEBF0FBECDBF9A878987D3
:1004F00080E090E0A0E0B0E08D839E83AF83B8877A
:1005000019821A821B821C8289859A85CC01A0E0FF
:10051000B0E0BC01CD010E942417DC01CB01BC017D
:10052000CD0125EE30ED4AEA50E40E949415DC013D
:10053000CB018D839E83AF83B8876D817E818F8150
:1005400098850E94C412DC01CB0189839A83AB8316
:10055000BC8310920C0310920D0310920E031092A4
:100560000F030E94620220910C0330910D03409111
:100570000E0350910F0389819A81AB81BC81821750
:100580009307A407B50778F70E945F062A960FB66F
:10059000F894DEBF0FBECDBFCF91DF910895DF93FA
:1005A000CF93CDB7DEB785E00E94BD01CF91DF913B
:1005B0000895DF93CF93CDB7DEB72C970FB6F8949D
:1005C000DEBF0FBECDBF9A87898780E090E0A0E0B4
:1005D000B0E08D839E83AF83B88719821A821B8215
:1005E0001C8289859A85CC01A0E0B0E0BC01CD01D8
:1005F0000E942417DC01CB01BC01CD0128E431EEBF
:1006000042E850E40E949415DC01CB018D839E8367
:10061000AF83B8876D817E818F8198850E94C412D7
:10062000DC01CB01CC01A0E0B0E089839A83AB83ED
:10063000BC8310920C0310920D0310920E031092C3
:100640000F03109208031092090310920A031092EC
:100650000B030E94CF0220910C0330910D034091B7
:100660000E0350910F031C8689819A81AB81BC8156
:10067000281739074A075B0710F081E08C87209123
:1006800008033091090340910A0350910B031B8624
:1006900089819A81AB81BC81281739074A075B079A
:1006A00010F091E09B878C859B85892B882399F29C
:1006B0000E945F062C960FB6F894DEBF0FBECDBF2A
:1006C000CF91DF910895DF93CF93CDB7DEB78AE066
:1006D0000E94BD01CF91DF910895DF93CF93CDB7F5
:1006E000DEB72C970FB6F894DEBF0FBECDBF9A874A
:1006F000898780E090E0A0E0B0E08D839E83AF83A7
:10070000B88719821A821B821C8289859A85CC013E
:10071000A0E0B0E0BC01CD010E942417DC01CB01B8
:10072000BC01CD0128E431EE42E850E40E9494156A
:10073000DC01CB018D839E83AF83B8876D817E8181
:100740008F8198850E94C412DC01CB01CC01A0E00E
:10075000B0E089839A83AB83BC8310920C03109220
:100760000D0310920E0310920F03109208031092C3
:10077000090310920A0310920B030E946303209155
:100780000C0330910D0340910E0350910F031C8612
:1007900089819A81AB81BC81281739074A075B0799
:1007A00010F081E08C87209108033091090340917B
:1007B0000A0350910B031B8689819A81AB81BC810E
:1007C000281739074A075B0710F091E09B878C8553
:1007D0009B85892B882399F20E945F062C960FB681
:1007E000F894DEBF0FBECDBFCF91DF910895DF93A8
:1007F000CF93CDB7DEB784E00E94BD01CF91DF91EA
:100800000895DF93CF93CDB7DEB72C970FB6F8944A
:10081000DEBF0FBECDBF9A87898780E090E0A0E061
:10082000B0E08D839E83AF83B88719821A821B82C2
:100830001C8289859A85CC01A0E0B0E0BC01CD0185
:100840000E9424179B01AC01CA01B9010E946D14DA
:10085000DC01CB01BC01CD0128E431EE42E850E4DB
:100860000E949415DC01CB018D839E83AF83B887F2
:100870006D817E818F8198850E94C412DC01CB013D
:10088000CC01A0E0B0E089839A83AB83BC83109253
:100890000C0310920D0310920E0310920F0310928E
:1008A00008031092090310920A0310920B030E948E
:1008B000F70320910C0330910D0340910E035091EA
:1008C0000F031C8689819A81AB81BC812817390767
:1008D0004A075B0710F081E08C8720910803309174
:1008E000090340910A0350910B031B8689819A8169
:1008F000AB81BC81281739074A075B0710F091E0EC
:100900009B878C859B85892B882399F20E945F06A3
:100910002C960FB6F894DEBF0FBECDBFCF91DF91FE
:100920000895DF93CF93CDB7DEB782E00E94BD017B
:10093000CF91DF910895DF93CF93CDB7DEB72C979A
:100940000FB6F894DEBF0FBECDBF9A87898780E0CF
:1009500090E0A0E0B0E08D839E83AF83B8871982DA
:100960001A821B821C8289859A85CC01A0E0B0E0A6
:10097000BC01CD010E9424179B01AC01CA01B90141
:100980000E946D14DC01CB01BC01CD0128E431EEE5
:1009900042E850E40E949415DC01CB018D839E83D4
:1009A000AF83B8876D817E818F8198850E94C41244
:1009B000DC01CB01CC01A0E0B0E089839A83AB835A
:1009C000BC8310920C0310920D0310920E03109230
:1009D0000F03109208031092090310920A03109259
:1009E0000B030E94910420910C0330910D03409160
:1009F0000E0350910F031C8689819A81AB81BC81C3
:100A0000281739074A075B0710F081E08C8720918F
:100A100008033091090340910A0350910B031B8690
:100A200089819A81AB81BC81281739074A075B0706
:100A300010F091E09B878C859B85892B882399F208
:100A40000E945F062C960FB6F894DEBF0FBECDBF96
:100A5000CF91DF910895DF93CF93CDB7DEB781E0DB
:100A60000E94BD01CF91DF910895DF93CF93CDB761
:100A7000DEB72C970FB6F894DEBF0FBECDBF9A87B6
:100A8000898780E090E0A0E0B0E08D839E83AF8313
:100A9000B88719821A821B821C8289859A85CC01AB
:100AA000A0E0B0E0BC01CD010E9424179B01AC0185
:100AB000CA01B9010E946D14DC01CB01BC01CD015A
:100AC00028E431EE42E850E40E949415DC01CB01A9
:100AD0008D839E83AF83B8876D817E818F8198855A
:100AE0000E94C412DC01CB01CC01A0E0B0E08983FC
:100AF0009A83AB83BC8310920C0310920D03109267
:100B00000E0310920F031092080310920903109223
:100B10000A0310920B030E942B0520910C033091C5
:100B20000D0340910E0350910F031C8689819A8119
:100B3000AB81BC81281739074A075B0710F081E0B9
:100B40008C87209108033091090340910A0350914A
:100B50000B031B8689819A81AB81BC8128173907D9
:100B60004A075B0710F091E09B878C859B85892B5A
:100B7000882399F20E945F062C960FB6F894DEBF88
:100B80000FBECDBFCF91DF910895DF93CF93CDB747
:100B9000DEB788E00E94BD01CF91DF910895DF9319
:100BA000CF93CDB7DEB72C970FB6F894DEBF0FBE4C
:100BB000CDBF9A87898780E090E0A0E0B0E08D8388
:100BC0009E83AF83B88719821A821B821C82898513
:100BD0009A85CC01A0E0B0E0BC01CD010E942417B1
:100BE0009B01AC01CA01B9010E946D14DC01CB016B
:100BF000BC01CD0128E431EE42E850E40E94941596
:100C0000DC01CB018D839E83AF83B8876D817E81AC
:100C10008F8198850E94C412DC01CB01CC01A0E039
:100C2000B0E089839A83AB83BC8310920C0310924B
:100C30000D0310920E0310920F03109208031092EE
:100C4000090310920A0310920B030E94C50520911C
:100C50000C0330910D0340910E0350910F031C863D
:100C600089819A81AB81BC81281739074A075B07C4
:100C700010F081E08C8720910803309109034091A6
:100C80000A0350910B031B8689819A81AB81BC8139
:100C9000281739074A075B0710F091E09B878C857E
:100CA0009B85892B882399F20E945F062C960FB6AC
:100CB000F894DEBF0FBECDBFCF91DF910895DF93D3
:100CC000CF93CDB7DEB780E00E94BD01CF91DF9119
:100CD0000895DF93CF93CDB7DEB7E0E3F0E0108265
:100CE000E7E0F1E01082E1E3F0E01082E8E0F1E01B
:100CF0001082CF91DF910895DF93CF93CDB7DEB708
:100D00000E946906EAE7F0E01082EBE7F0E010826B
:100D1000ECE7F0E080E28083E0E5F0E080E88083CB
:100D2000EAE7F0E086E88083CF91DF910895DF93D2
:100D3000CF930F920F92CDB7DEB78A838A81883026
:100D400020F0EBE7F0E088E080838A8187708A8377
:100D5000ECE7F0E08A8180628083AAE7B0E0EAE70E
:100D6000F0E0808180648C93EAE7F0E08081882F56
:100D700090E0807190700097B9F3E9E7F0E080812E
:100D80008983AAE7B0E0EAE7F0E0808180618C9394
:100D9000EBE7F0E0108289810F900F90CF91DF9107
:100DA0000895DF93CF93CDB7DEB70E94DC060E9493
:100DB000F00BCF91DF910895DF93CF93CDB7DEB7DE
:100DC000A7E2B0E0E7E2F0E08081876F8C93A8E2D1
:100DD000B0E0E8E2F0E0808180788C93CF91DF9101
:100DE00008950F931F93DF93CF93CDB7DEB7C0570E
:100DF000D0400FB6F894DEBF0FBECDBFFE01E35961
:100E0000FF4F80E090E0A0E8BFE380839183A2835E
:100E1000B3838E0107591F4FFE01E359FF4F6081D5
:100E200071818281938126E636E646E655E40E948A
:100E30009A14DC01CB01F80180839183A283B383F0
:100E4000FE01E759FF4F608171818281938120E02B
:100E500030E040E85FE30E94A016882344F4FE01DE
:100E6000E959FF4F81E090E09183808364C0FE01E7
:100E7000E759FF4F608171818281938120E03FEFCC
:100E80004FE757E40E94401618160CF043C0FE01CD
:100E9000E359FF4F608171818281938120E030E0CE
:100EA00040E251E40E949A14DC01CB018E01095901
:100EB0001F4FBC01CD010E94C412DC01CB01F8011F
:100EC000918380831FC0FE01EB59FF4F80E791E0C3
:100ED00091838083FE01EB59FF4F808191810197BF
:100EE000F1F7FE01EB59FF4F91838083DE01A95991
:100EF000BF4FFE01E959FF4F808191810197119603
:100F00009C938E93FE01E959FF4F80819181009758
:100F1000D1F627C08E0109591F4FFE01E759FF4F37
:100F200060817181828193810E94C412DC01CB01B6
:100F3000F80191838083DE01AD59BF4FFE01E9596D
:100F4000FF4F808191818D939C93FE01ED59FF4F5E
:100F5000808191810197F1F7FE01ED59FF4F918357
:100F60008083A8E2B0E0E8E2F0E080818E7F8C939D
:100F7000A8E2B0E0E8E2F0E080818D7F8C93E8E2C7
:100F8000F0E080E38083A8E2B0E0E8E2F0E0808176
:100F900084608C93FE01E15AFF4F80E090E0A0EA6C
:100FA000B0E480839183A283B3838E01055A1F4FDF
:100FB000FE01E15AFF4F608171818281938126E6B3
:100FC00036E646E655E40E949A14DC01CB01F801AE
:100FD00080839183A283B383FE01E55AFF4F608132
:100FE00071818281938120E030E040E85FE30E94DC
:100FF000A016882344F4FE01E75AFF4F81E090E0F9
:101000009183808364C0FE01E55AFF4F6081718146
:101010008281938120E03FEF4FE757E40E94401622
:1010200018160CF043C0FE01E15AFF4F6081718138
:101030008281938120E030E040E251E40E949A14E2
:10104000DC01CB018E01075A1F4FBC01CD010E946C
:10105000C412DC01CB01F801918380831FC0FE0123
:10106000E95AFF4F80E791E091838083FE01E95ABE
:10107000FF4F808191810197F1F7FE01E95AFF4FFF
:1010800091838083DE01A75ABF4FFE01E75AFF4FCD
:1010900080819181019711969C938E93FE01E75A6E
:1010A000FF4F808191810097D1F627C08E01075AAA
:1010B0001F4FFE01E55AFF4F60817181828193814C
:1010C0000E94C412DC01CB01F80191838083DE0110
:1010D000AB5ABF4FFE01E75AFF4F808191818D933C
:1010E0009C93FE01EB5AFF4F808191810197F1F7AC
:1010F000FE01EB5AFF4F91838083A8E2B0E0E8E263
:10110000F0E080818B7F8C93FE01EF5AFF4F80E0EF
:1011100090E0A0E8BFE380839183A283B3838E0134
:10112000035B1F4FFE01EF5AFF4F60817181828187
:10113000938126E636E646E655E40E949A14DC01E1
:10114000CB01F80180839183A283B383FE01E35B2B
:10115000FF4F608171818281938120E030E040E81F
:101160005FE30E94A016882344F4FE01E55BFF4F75
:1011700081E090E09183808364C0FE01E35BFF4FD8
:10118000608171818281938120E03FEF4FE757E4D6
:101190000E94401618160CF043C0FE01EF5AFF4F94
:1011A000608171818281938120E030E040E251E4EE
:1011B0000E949A14DC01CB018E01055B1F4FBC011C
:1011C000CD010E94C412DC01CB01F8019183808320
:1011D0001FC0FE01E75BFF4F80E791E091838083B2
:1011E000FE01E75BFF4F808191810197F1F7FE01DE
:1011F000E75BFF4F91838083DE01A55BBF4FFE015C
:10120000E55BFF4F80819181019711969C938E93AE
:10121000FE01E55BFF4F808191810097D1F627C0E9
:101220008E01055B1F4FFE01E35BFF4F6081718103
:10123000828193810E94C412DC01CB01F801918369
:101240008083DE01A95BBF4FFE01E55BFF4F80811C
:1012500091818D939C93FE01E95BFF4F8081918189
:101260000197F1F7FE01E95BFF4F91838083A8E2CC
:10127000B0E0E8E2F0E080818E7F8C93A8E2B0E0FD
:10128000E8E2F0E080818D7F8C93E8E2F0E080E39B
:101290008083A8E2B0E0E8E2F0E0808184608C9393
:1012A000FE01ED5BFF4F80E090E0A0EAB0E48083B8
:1012B0009183A283B3838E01015C1F4FFE01ED5B1E
:1012C000FF4F608171818281938126E636E646E692
:1012D00055E40E949A14DC01CB01F80180839183CC
:1012E000A283B383FE01FF96608171818281938125
:1012F00020E030E040E85FE30E94A01688232CF451
:1013000081E090E09EAF8DAF46C0FE01FF96608108
:1013100071818281938120E03FEF4FE757E40E9483
:101320004016181664F5FE01ED5BFF4F6081718178
:101330008281938120E030E040E251E40E949A14DF
:10134000DC01CB01BC01CD010E94C412DC01CB0148
:101350009EAF8DAF0FC080E791E09CAF8BAF8BADA0
:101360009CAD0197F1F79CAF8BAF8DAD9EAD019712
:101370009EAF8DAF8DAD9EAD009769F716C0FE0193
:10138000FF9660817181828193810E94C412DC0189
:10139000CB019EAF8DAF8DAD9EAD9AAF89AF89ADBC
:1013A0009AAD0197F1F79AAF89AFA8E2B0E0E8E211
:1013B000F0E080818B7F8C9380E090E0A0E8BFE339
:1013C0008DAB9EABAFABB8AF6DA97EA98FA998AD21
:1013D00026E636E646E655E40E949A14DC01CB0187
:1013E00089AB9AABABABBCAB69A97AA98BA99CA919
:1013F00020E030E040E85FE30E94A01688232CF450
:1014000081E090E098AB8FA73FC069A97AA98BA92A
:101410009CA920E03FEF4FE757E40E9440161816C2
:101420004CF56DA97EA98FA998AD20E030E040E28F
:1014300051E40E949A14DC01CB01BC01CD010E9451
:10144000C412DC01CB0198AB8FA70FC080E791E0FD
:101450009EA78DA78DA59EA50197F1F79EA78DA7A5
:101460008FA598A9019798AB8FA78FA598A90097EA
:1014700069F714C069A97AA98BA99CA90E94C41212
:10148000DC01CB0198AB8FA78FA598A99CA78BA750
:101490008BA59CA50197F1F79CA78BA7A8E2B0E0CC
:1014A000E8E2F0E080818E7F8C93A8E2B0E0E8E291
:1014B000F0E080818D7F8C93E8E2F0E080E3808330
:1014C000A8E2B0E0E8E2F0E0808184608C9380E004
:1014D00090E0A0EAB0E48FA398A7A9A7BAA76FA14C
:1014E00078A589A59AA526E636E646E655E40E9443
:1014F0009A14DC01CB018BA39CA3ADA3BEA36BA16B
:101500007CA18DA19EA120E030E040E85FE30E9435
:10151000A01688232CF481E090E09AA389A33FC011
:101520006BA17CA18DA19EA120E03FEF4FE757E486
:101530000E94401618164CF56FA178A589A59AA5AA
:1015400020E030E040E251E40E949A14DC01CB013B
:10155000BC01CD010E94C412DC01CB019AA389A376
:101560000FC080E791E098A38F8F8F8D98A101978E
:10157000F1F798A38F8F89A19AA101979AA389A3C4
:1015800089A19AA1009769F714C06BA17CA18DA1D4
:101590009EA10E94C412DC01CB019AA389A389A158
:1015A0009AA19E8F8D8F8D8D9E8D0197F1F79E8FC5
:1015B0008D8FA8E2B0E0E8E2F0E080818B7F8C9331
:1015C00080E090E0A0E8BFE3898F9A8FAB8FBC8F5B
:1015D000698D7A8D8B8D9C8D26E636E646E655E440
:1015E0000E949A14DC01CB018D8B9E8BAF8BB88F40
:1015F0006D897E898F89988D20E030E040E85FE337
:101600000E94A01688232CF481E090E09C8B8B8BA9
:101610003FC06D897E898F89988D20E03FEF4FE72D
:1016200057E40E94401618164CF5698D7A8D8B8D03
:101630009C8D20E030E040E251E40E949A14DC01ED
:10164000CB01BC01CD010E94C412DC01CB019C8BFB
:101650008B8B0FC080E791E09A8B898B89899A895F
:101660000197F1F79A8B898B8B899C8901979C8BC9
:101670008B8B8B899C89009769F714C06D897E8953
:101680008F89988D0E94C412DC01CB019C8B8B8BBF
:101690008B899C89988B8F878F8598890197F1F723
:1016A000988B8F87A8E2B0E0E8E2F0E080818E7F3F
:1016B0008C93A8E2B0E0E8E2F0E080818D7F8C932B
:1016C000E8E2F0E080E28083A8E2B0E0E8E2F0E067
:1016D000808184608C9380E090E0A0EAB0E48B8706
:1016E0009C87AD87BE876B857C858D859E8526E62C
:1016F00036E646E655E40E949A14DC01CB018F835E
:101700009887A987BA876F81788589859A8520E02F
:1017100030E040E85FE30E94A01688232CF481E0CB
:1017200090E09E838D833FC06F81788589859A85FF
:1017300020E03FEF4FE757E40E94401618164CF5A3
:101740006B857C858D859E8520E030E040E251E40C
:101750000E949A14DC01CB01BC01CD010E94C4128D
:10176000DC01CB019E838D830FC080E791E09C83D9
:101770008B838B819C810197F1F79C838B838D8177
:101780009E8101979E838D838D819E81009769F74D
:1017900014C06F81788589859A850E94C412DC0106
:1017A000CB019E838D838D819E819A8389838981DC
:1017B0009A810197F1F79A838983A8E2B0E0E8E281
:1017C000F0E080818B7F8C93C059DF4F0FB6F89487
:1017D000DEBF0FBECDBFCF91DF911F910F91089556
:1017E000DF93CF93CDB7DEB72E970FB6F894DEBF59
:1017F0000FBECDBF0E94F10680E090E0A0E8BFE3FD
:101800008B879C87AD87BE876B857C858D859E8504
:1018100026E636E646E655E40E949A14DC01CB0142
:101820008F839887A987BA876F81788589859A85FC
:1018300020E030E040E85FE30E94A01688232CF40B
:1018400081E090E09E838D833FC06F81788589859C
:101850009A8520E03FEF4FE757E40E9440161816A4
:101860004CF56B857C858D859E8520E030E040E2DF
:1018700051E40E949A14DC01CB01BC01CD010E940D
:10188000C412DC01CB019E838D830FC080E791E001
:101890009C838B838B819C810197F1F79C838B8345
:1018A0008D819E8101979E838D838D819E8100977E
:1018B00069F714C06F81788589859A850E94C41262
:1018C000DC01CB019E838D838D819E819A838983E8
:1018D00089819A810197F1F79A83898388E20E942E
:1018E000860C81E00E94860C86E00E94860C8EE0C9
:1018F0000E94860C80E80E94860C2E960FB6F89403
:10190000DEBF0FBECDBFCF91DF910895DF93CF93A0
:10191000CDB7DEB76E970FB6F894DEBF0FBECDBF62
:101920008E8F8E8D8D8F8D8D807F8D8FA8E2B0E014
:10193000E8E2F0E080818F708C93A8E2B0E0E8E20A
:10194000F0E090818D8D892B8C93A8E2B0E0E8E2E5
:10195000F0E080818E7F8C93A8E2B0E0E8E2F0E0D6
:1019600080818D7F8C93A8E2B0E0E8E2F0E0808196
:1019700084608C9380E090E0A0EAB0E4898F9A8F35
:10198000AB8FBC8F698D7A8D8B8D9C8D26E636E66C
:1019900046E655E40E949A14DC01CB018D8B9E8BA8
:1019A000AF8BB88F6D897E898F89988D20E030E06C
:1019B00040E85FE30E94A01688232CF481E090E0C9
:1019C0009C8B8B8B3FC06D897E898F89988D20E0A1
:1019D0003FEF4FE757E40E94401618164CF5698D0B
:1019E0007A8D8B8D9C8D20E030E040E251E40E94A6
:1019F0009A14DC01CB01BC01CD010E94C412DC01B0
:101A0000CB019C8B8B8B0FC080E791E09A8B898BED
:101A100089899A890197F1F79A8B898B8B899C899F
:101A200001979C8B8B8B8B899C89009769F714C0DD
:101A30006D897E898F89988D0E94C412DC01CB014B
:101A40009C8B8B8B8B899C89988B8F878F859889B2
:101A50000197F1F7988B8F87A8E2B0E0E8E2F0E019
:101A600080818B7F8C938E8D8F708E8F8E8D8295E3
:101A7000807F8E8FA8E2B0E0E8E2F0E080818F7096
:101A80008C93A8E2B0E0E8E2F0E090818E8D892BA3
:101A90008C93A8E2B0E0E8E2F0E080818E7F8C9346
:101AA000A8E2B0E0E8E2F0E080818D7F8C93A8E2CC
:101AB000B0E0E8E2F0E0808184608C9380E090E028
:101AC000A0EAB0E48B879C87AD87BE876B857C8559
:101AD0008D859E8526E636E646E655E40E949A14F4
:101AE000DC01CB018F839887A987BA876F817885BE
:101AF00089859A8520E030E040E85FE30E94A016E7
:101B000088232CF481E090E09E838D833FC06F8119
:101B1000788589859A8520E03FEF4FE757E40E945A
:101B2000401618164CF56B857C858D859E8520E0CA
:101B300030E040E251E40E949A14DC01CB01BC0188
:101B4000CD010E94C412DC01CB019E838D830FC0A6
:101B500080E791E09C838B838B819C810197F1F7D7
:101B60009C838B838D819E8101979E838D838D8144
:101B70009E81009769F714C06F81788589859A8561
:101B80000E94C412DC01CB019E838D838D819E81D6
:101B90009A83898389819A810197F1F79A8389834E
:101BA000A8E2B0E0E8E2F0E080818B7F8C936E9653
:101BB0000FB6F894DEBF0FBECDBFCF91DF91089571
:101BC000DF93CF93CDB7DEB76E970FB6F894DEBF35
:101BD0000FBECDBF8E8F8E8D8D8F8D8D807F8D8F23
:101BE000A8E2B0E0E8E2F0E080818F708C93A8E298
:101BF000B0E0E8E2F0E08081982F8D8D892B8C9306
:101C0000A8E2B0E0E8E2F0E0808181608C93A8E295
:101C1000B0E0E8E2F0E080818D7F8C93A8E2B0E054
:101C2000E8E2F0E0808184608C9380E090E0A0EABC
:101C3000B0E4898F9A8FAB8FBC8F698D7A8D8B8D35
:101C40009C8D26E636E646E655E40E949A14DC01B1
:101C5000CB018D8B9E8BAF8BB88F6D897E898F89E1
:101C6000988D20E030E040E85FE30E94A0168823D2
:101C70002CF481E090E09C8B8B8B3FC06D897E893A
:101C80008F89988D20E03FEF4FE757E40E94401680
:101C900018164CF5698D7A8D8B8D9C8D20E030E087
:101CA00040E251E40E949A14DC01CB01BC01CD0159
:101CB0000E94C412DC01CB019C8B8B8B0FC080E790
:101CC00091E09A8B898B89899A890197F1F79A8B90
:101CD000898B8B899C8901979C8B8B8B8B899C89A9
:101CE000009769F714C06D897E898F89988D0E944D
:101CF000C412DC01CB019C8B8B8B8B899C89988BCC
:101D00008F878F8598890197F1F7988B8F87A8E245
:101D1000B0E0E8E2F0E080818B7F8C938E8D8F7055
:101D20008E8F8E8D992787FD909582959295907FC5
:101D30009827807F98278E8FA8E2B0E0E8E2F0E055
:101D400080818F708C93A8E2B0E0E8E2F0E08081BF
:101D5000982F8E8D892B8C93A8E2B0E0E8E2F0E01A
:101D6000808181608C93A8E2B0E0E8E2F0E08081BD
:101D70008D7F8C93A8E2B0E0E8E2F0E0808184609F
:101D80008C9380E090E0A0EAB0E48B879C87AD87DD
:101D9000BE876B857C858D859E8526E636E646E684
:101DA00055E40E949A14DC01CB018F839887A987A0
:101DB000BA876F81788589859A8520E030E040E890
:101DC0005FE30E94A01688232CF481E090E09E83BC
:101DD0008D833FC06F81788589859A8520E03FEFAC
:101DE0004FE757E40E94401618164CF56B857C852A
:101DF0008D859E8520E030E040E251E40E949A14F7
:101E0000DC01CB01BC01CD010E94C412DC01CB017D
:101E10009E838D830FC080E791E09C838B838B81B1
:101E20009C810197F1F79C838B838D819E81019723
:101E30009E838D838D819E81009769F714C06F8189
:101E4000788589859A850E94C412DC01CB019E8326
:101E50008D838D819E819A83898389819A8101975F
:101E6000F1F79A838983A8E2B0E0E8E2F0E08081AC
:101E70008B7F8C936E960FB6F894DEBF0FBECDBFEE
:101E8000CF91DF910895DF93CF93CDB7DEB780E890
:101E90000E94860CCF91DF910895DF93CF930F922C
:101EA0000F92CDB7DEB79A8389830AC0E981FA81A0
:101EB00080810E94E00D89819A8101969A838983AD
:101EC000E981FA818081882389F70F900F90CF9163
:101ED000DF910895DF93CF9300D00F92CDB7DEB797
:101EE00089836A838981282F332727FD30953C8396
:101EF0002B838B819C8182309105D9F02B813C8191
:101F00002330310534F48B819C818130910561F05F
:101F10001EC02B813C812330310581F08B819C8157
:101F20008430910581F013C08A8181580E94860C0B
:101F30000EC08A8181540E94860C09C08A818D5608
:101F40000E94860C04C08A818D520E94860C0F90DC
:101F50000F900F900F90CF91DF910895DF93CF9363
:101F6000CDB7DEB727970FB6F894DEBF0FBECDBF53
:101F70008A836B835D834C833F832E8319828A819E
:101F8000882319F08B81882319F40E94430F04C021
:101F90008A816B810E946A0F8E819F8185309105B5
:101FA00019F089818130A9F48C819D8120E137E28B
:101FB000B9010E949219CB01C096909311038093AE
:101FC000100380911003909111030E94E00D81E0B5
:101FD00089838E819F818430910519F089818130B8
:101FE00011F58C819D8128EE33E0B9010E94921990
:101FF000CB0190931303809312038091120390916D
:1020000013032AE030E0B9010E949219C096909320
:102010001B0380931A0380911A0390911B030E9463
:10202000E00D81E089838E819F818330910519F0D5
:102030008981813011F58C819D8124E630E0B901E0
:102040000E949219CB019093130380931203809105
:102050001203909113032AE030E0B9010E94921913
:10206000C096909317038093160380911603909166
:1020700017030E94E00D81E089838E819F81823069
:10208000910519F08981813011F58C819D812AE0BB
:1020900030E0B9010E949219CB0190931303809311
:1020A000120380911203909113032AE030E0B901EA
:1020B0000E949219C0969093150380931403809107
:1020C0001403909115030E94E00D81E089838E81B5
:1020D0009F818130910519F08981813091F48C8143
:1020E0009D812AE030E0B9010E949219C096909338
:1020F00019038093180380911803909119030E948B
:10210000E00D8E819F81863091051CF085E40E9450
:10211000E00D27960FB6F894DEBF0FBECDBFCF916E
:10212000DF910895DF93CF93CDB7DEB7AE970FB6AB
:10213000F894DEBF0FBECDBF1EA61DA618A61FA217
:102140001EA21DA288E090E09CA38BA3F8940E949D
:10215000D1060E9454010E947C067894A2E0B1E06E
:10216000E2E0F1E080818C608C930E94DC0180E0F1
:1021700060E00E94C40082E00E949706882F90E0F1
:102180009AA389A383E00E949706882F90E098A3E2
:102190008F8F81E00E949706882F90E09E8F8D8F11
:1021A0002F8D38A182E061E0A90123E030E00E9498
:1021B000AE0F29A13AA182E065E0A90123E030E059
:1021C0000E94AE0F2D8D3E8D82E069E0A90123E0D3
:1021D00030E00E94AE0F89A19AA1843791057CF06E
:1021E0008F8D98A18031910554F08D8D9E8D853114
:1021F00091052CF084E690E09EA78DA77AC089A176
:102200009AA1843791051CF01EA61DA672C08F8D61
:1022100098A18E3291052CF087E090E09EA78DA7C3
:1022200068C08F8D98A18A3191052CF086E090E0EE
:102230009EA78DA75EC08F8D98A1823191052CF04D
:1022400085E090E09EA78DA754C08F8D98A18A301D
:1022500091052CF084E090E09EA78DA74AC08D8D5B
:102260009E8D8F3691052CF089EF9FEF9EA78DA74D
:1022700040C08D8D9E8D863591052CF08AEF9FEFA5
:102280009EA78DA736C08D8D9E8D883391052CF02D
:102290008BEF9FEF9EA78DA72CC08D8D9E8D8432D6
:1022A00091052CF08CEF9FEF9EA78DA722C08D8DFE
:1022B0009E8D8A3191052CF08DEF9FEF9EA78DA703
:1022C00018C08D8D9E8D833191052CF08EEF9FEF80
:1022D0009EA78DA70EC08D8D9E8D803191052CF00F
:1022E0008FEF9FEF9EA78DA704C08CE99FEF9EA75D
:1022F0008DA78DA59EA52FEF8D399207BCF18DA5D9
:102300009EA58436910594F52DA53EA58BA19CA193
:10231000A901489F9001499F300D589F300D11240D
:1023200086E990E0821B930B9CA78BA72DA53EA569
:102330008BA19CA1AC01249FC001259F900D349FCF
:10234000900D11248C549F4F9AA789A78DA59EA507
:10235000181619062CF489A59AA50A969AA789A792
:102360008BA599A5692F0E94C40009C18DA59EA5C2
:102370008436910509F003C12FA138A58DA59EA52E
:102380002817390709F479C00E945F0680E090E0C1
:10239000AAE7B4E4898F9A8FAB8FBC8F698D7A8D51
:1023A0008B8D9C8D26E636E646E655E40E949A140F
:1023B000DC01CB018D8B9E8BAF8BB88F6D897E89B5
:1023C0008F89988D20E030E040E85FE30E94A016FE
:1023D00088232CF481E090E09C8B8B8B3FC06D892F
:1023E0007E898F89988D20E03FEF4FE757E40E9468
:1023F000401618164CF5698D7A8D8B8D9C8D20E0DA
:1024000030E040E251E40E949A14DC01CB01BC01AF
:10241000CD010E94C412DC01CB019C8B8B8B0FC0C1
:1024200080E791E09A8B898B89899A890197F1F7E6
:102430009A8B898B8B899C8901979C8B8B8B8B8941
:102440009C89009769F714C06D897E898F89988D62
:102450000E94C412DC01CB019C8B8B8B8B899C89E5
:10246000988B8F878F8598890197F1F7988B8F8745
:102470008DA19EA101969EA38DA38DA19EA18330C7
:10248000910509F072C080E090E8ABE3B5E48B877A
:102490009C87AD87BE876B857C858D859E8526E66E
:1024A00036E646E655E40E949A14DC01CB018F83A0
:1024B0009887A987BA876F81788589859A8520E072
:1024C00030E040E85FE30E94A01688232CF481E00E
:1024D00090E09E838D833FC06F81788589859A8542
:1024E00020E03FEF4FE757E40E94401618164CF5E6
:1024F0006B857C858D859E8520E030E040E251E44F
:102500000E949A14DC01CB01BC01CD010E94C412CF
:10251000DC01CB019E838D830FC080E791E09C831B
:102520008B838B819C810197F1F79C838B838D81B9
:102530009E8101979E838D838D819E81009769F78F
:1025400014C06F81788589859A850E94C412DC0148
:10255000CB019E838D838D819E819A83898389811E
:102560009A810197F1F79A8389838DA19EA1863084
:10257000910519F40E945F06FFCF0E94DC018DA532
:102580009EA598A78FA3F7CDEF92FF920F931F936D
:102590007B018C0120E030E040E05FE40E94701697
:1025A00088238CF0C801B70120E030E040E05FE410
:1025B0000E943C140E94D0169B01AC012050304078
:1025C0004040504806C0C801B7010E94D0169B0188
:1025D000AC01B901CA011F910F91FF90EF900895CE
:1025E000A0E0B0E0E6EFF2E10C94A619DC012B01CB
:1025F000FA019C91923008F439C1EB018881823054
:1026000008F433C1943069F4843009F02FC1119675
:102610009C9111978981981709F428C1A0E0B2E034
:1026200025C1843009F421C18230A9F4923009F027
:102630001DC19A01AD0188E0EA010990AE01E901EE
:1026400009929E018150C1F7E201898111969C9106
:102650008923818308C1923009F407C112962D9015
:102660003C901397EB018A819B811496AD90BD90AD
:10267000CD90DC901797EC80FD800E811F81910139
:10268000281B390BB90137FF04C066277727621B67
:10269000730B603271050CF061C0121613066CF5F5
:1026A00037014801062E04C0969487947794679466
:1026B0000A94D2F721E030E040E050E004C0220F5D
:1026C000331F441F551F6A95D2F7215030404040B8
:1026D00050402E213F214023512321153105410532
:1026E000510521F021E030E040E050E079018A011D
:1026F000E628F728082919293CC0232BD1F1260EFA
:10270000371E35014601062E04C0969487947794AF
:1027100067940A94D2F721E030E040E050E004C032
:10272000220F331F441F551F6A95D2F721503040A6
:10273000404050402A213B214C215D21211531058B
:102740004105510521F021E030E040E050E0590121
:102750006A01A628B728C828D9280BC08215930576
:102760002CF01C01AA24BB24650103C0EE24FF2425
:10277000870111969C91D20111968C91981709F4BA
:1027800045C0992339F0A80197012A193B094C0942
:102790005D0906C0A60195012E193F09400B510B9A
:1027A00057FD08C0118233822282248335834683F9
:1027B00057831DC081E08183338222828827992735
:1027C000DC01821B930BA40BB50B84839583A6833A
:1027D000B7830DC0220F331F441F551F2483358339
:1027E00046835783828193810197938382832481D7
:1027F000358146815781DA01C9010197A109B109E3
:102800008F5F9F4FAF4FBF4328F30BC0918333823D
:102810002282EA0CFB1C0C1D1D1DE482F58206833E
:10282000178383E08083248135814681578157FF58
:102830001AC0C901AA2797FDA095BA2F8170907080
:10284000A070B0705695479537952795822B932B9E
:10285000A42BB52B84839583A683B7838281938130
:10286000019693838283DF0101C0D201CD01CDB7F0
:10287000DEB7E2E10C94C219A0E2B0E0E2E4F4E1D8
:102880000C94B21969837A838B839C832D833E8356
:102890004F835887E9E0EE2EF12CEC0EFD1ECE01A1
:1028A0000196B7010E94C1188E010F5E1F4FCE0125
:1028B0000596B8010E94C1188A8991E089278A8B00
:1028C000C701B801AE01475E5F4F0E94F0120E943F
:1028D000EC17A096E6E00C94CE19A0E2B0E0E3E796
:1028E000F4E10C94B21969837A838B839C832D83E2
:1028F0003E834F835887F9E0EF2EF12CEC0EFD1E3E
:10290000CE010196B7010E94C1188E010F5E1F4FC4
:10291000CE010596B8010E94C118C701B801AE01E9
:10292000475E5F4F0E94F0120E94EC17A096E6E00F
:102930000C94CE19A0E2B0E0E0EAF4E10C94A61900
:1029400069837A838B839C832D833E834F8358874F
:10295000CE010196BE01675F7F4F0E94C118CE0174
:102960000596BE016F5E7F4F0E94C1189985923017
:1029700088F089898230C8F0943019F4823051F49B
:1029800004C0843029F4923081F480E092E0C6C023
:10299000923049F420E09A858A89981321E02A87A9
:1029A000CE010996BBC0823049F420E09A858A891D
:1029B000981321E02A8BCE014196B0C02D843E842D
:1029C0004F8458886D887E888F88988CEE24FF24E9
:1029D0008701AA24BB24650140E050E060E070E07C
:1029E000E0E0F0E0C10181709070892BE9F0E60C25
:1029F000F71C081D191D9A01AB012A0D3B1D4C1D2A
:102A00005D1D80E090E0A0E0B0E0E614F70408056A
:102A1000190520F481E090E0A0E0B0E0BA01A9013E
:102A2000480F591F6A1F7B1FAA0CBB1CCC1CDD1C46
:102A300097FE08C081E090E0A0E0B0E0A82AB92AA3
:102A4000CA2ADB2A3196E032F10549F0660C771C80
:102A5000881C991C5694479437942794C3CFFA85C1
:102A6000EA892B893C898B859C85280F391F2E5F2D
:102A70003F4F17C0CA0181709070892B61F0169585
:102A80000795F794E79480E090E0A0E0B0E8E82AAA
:102A9000F92A0A2B1B2B76956795579547952F5F3B
:102AA0003F4F77FDE7CF0CC0440F551F661F771FC0
:102AB00017FD4160EE0CFF1C001F111F215030401C
:102AC000403090E0590790E0690790E4790760F39F
:102AD0002B8F3C8FDB01CA018F779070A070B07094
:102AE00080349105A105B10561F447FD0AC0E114E8
:102AF000F1040105110529F0405C5F4F6F4F7F4FD6
:102B000040781A8EFE1711F081E08A8F4D8F5E8F0C
:102B10006F8F78A383E0898FCE0149960E94EC17CE
:102B2000A096E2E10C94C219A8E1B0E0EAE9F5E16F
:102B30000C94AE1969837A838B839C832D833E83A7
:102B40004F835887B9E0EB2EF12CEC0EFD1ECE0121
:102B50000196B7010E94C1188E010F5E1F4FCE0172
:102B60000596B8010E94C1182985223008F47EC05C
:102B70003989323010F4B8017CC08A859A89892756
:102B80008A87243011F0223031F4231709F06EC007
:102B900060E072E06EC0343039F41D861E861F86F8
:102BA000188A1C861B8604C0323021F484E0898791
:102BB000B7015FC02B853C858B899C89281B390B0D
:102BC0003C872B87ED84FE840F851889AD88BE88ED
:102BD000CF88D88CEA14FB040C051D0540F4EE0CDC
:102BE000FF1C001F111F215030403C872B8720E025
:102BF00030E040E050E080E090E0A0E0B0E460E051
:102C000070E0EA14FB040C051D0540F0282B392B5D
:102C10004A2B5B2BEA18FB080C091D09B695A795F2
:102C200097958795EE0CFF1C001F111F6F5F7F4F5C
:102C30006F31710531F7DA01C9018F779070A0709B
:102C4000B07080349105A105B10561F427FD0AC07B
:102C5000E114F1040105110529F0205C3F4F4F4FAD
:102C60005F4F20782D873E874F87588BBE01675F67
:102C70007F4FCB010E94EC176896EAE00C94CA19CA
:102C8000A8E1B0E0E6E4F6E10C94B21969837A8336
:102C90008B839C832D833E834F83588789E0E82E66
:102CA000F12CEC0EFD1ECE010196B7010E94C11859
:102CB0008E010F5E1F4FCE010596B8010E94C1180C
:102CC0008985823040F08989823028F0C701B801B7
:102CD0000E94391901C08FEF6896E6E00C94CE1976
:102CE000A8E1B0E0E6E7F6E10C94B21969837A83D3
:102CF0008B839C832D833E834F83588789E0E82E06
:102D0000F12CEC0EFD1ECE010196B7010E94C118F8
:102D10008E010F5E1F4FCE010596B8010E94C118AB
:102D20008985823040F08989823028F0C701B80156
:102D30000E94391901C08FEF6896E6E00C94CE1915
:102D4000A8E1B0E0E6EAF6E10C94B21969837A836F
:102D50008B839C832D833E834F83588789E0E82EA5
:102D6000F12CEC0EFD1ECE010196B7010E94C11898
:102D70008E010F5E1F4FCE010596B8010E94C1184B
:102D80008985823040F08989823028F0C701B801F6
:102D90000E94391901C081E06896E6E00C94CE19D2
:102DA000ACE0B0E0E6EDF6E10C94B61969837A8305
:102DB0008B839C83CE010196BE016B5F7F4F0E9487
:102DC000C1188D81823061F1823050F1843021F45C
:102DD0008E81882351F12EC02F81388537FD20C088
:102DE0006E812F3131051CF06623F9F023C08EE18E
:102DF00090E0821B930B29853A854B855C8504C046
:102E000056954795379527958A95D2F76623B1F061
:102E100050954095309521953F4F4F4F5F4F0EC0D5
:102E200020E030E040E050E009C02FEF3FEF4FEFEF
:102E30005FE704C020E030E040E050E8B901CA019B
:102E40002C96E2E00C94D219A8E0B0E0EAE2F7E1B7
:102E50000C94AE197B018C016115710581059105FA
:102E600019F482E0898360C083E089838EE1C82EF3
:102E7000D12CDC82CB82ED82FE820F831887C801C1
:102E8000B7010E949D17FC013197F7FF3BC0222735
:102E900033272E1B3F0B57016801022E04C0D69426
:102EA000C794B794A7940A94D2F740E050E060E04A
:102EB00070E081E090E0A0E0B0E004C0880F991FCE
:102EC000AA1FBB1F2A95D2F70197A109B1098E212C
:102ED0009F21A023B1230097A105B10521F041E076
:102EE00050E060E070E04A295B296C297D294D8320
:102EF0005E836F8378878EE190E08E1B9F0B9C83AF
:102F00008B8312C0309781F00E2E04C0EE0CFF1C94
:102F1000001F111F0A94D2F7ED82FE820F831887DB
:102F2000CE1ADF0ADC82CB821A82CE0101960E9481
:102F3000EC172896EAE00C94CA19EF92FF920F93CF
:102F40001F937B018C0180E0E81680E0F80681E0A9
:102F5000080780E0180788F48FEFE816F1040105F0
:102F6000110531F028F088E090E0A0E0B0E017C053
:102F700080E090E0A0E0B0E012C080E0E81680E0E1
:102F8000F80680E0080781E0180728F088E190E063
:102F9000A0E0B0E004C080E190E0A0E0B0E020E27A
:102FA00030E040E050E0281B390B4A0B5B0B04C0BB
:102FB00016950795F794E7948A95D2F7F701E85F9D
:102FC000FD4F8081281B310941095109C9011F9119
:102FD0000F91FF90EF900895DF92EF92FF920F9381
:102FE0001F93FC01E480F58006811781D1808081E8
:102FF000823048F480E090E0A0E1B0E0E82AF92ACD
:103000000A2B1B2BA5C0843009F49FC0823021F409
:10301000EE24FF24870105C0E114F1040105110528
:1030200019F4E0E0F0E096C0628173819FEF6238AE
:1030300079070CF05BC022E83FEF261B370B2A31E3
:1030400031052CF020E030E040E050E02AC0B8012B
:10305000A701022E04C076956795579547950A9467
:10306000D2F781E090E0A0E0B0E004C0880F991FA3
:10307000AA1FBB1F2A95D2F70197A109B1098E217A
:103080009F21A023B1230097A105B10521F081E084
:1030900090E0A0E0B0E09A01AB01282B392B4A2B3D
:1030A0005B2BDA01C9018F779070A070B07080340B
:1030B0009105A105B10539F427FF09C0205C3F4FF8
:1030C0004F4F5F4F04C0215C3F4F4F4F5F4FE0E0D9
:1030D000F0E02030A0E03A07A0E04A07A0E45A0759
:1030E00010F0E1E0F0E079018A0127C06038710555
:1030F00064F5FB01E158FF4FD801C7018F7790704D
:10310000A070B07080349105A105B10539F4E7FED7
:103110000DC080E490E0A0E0B0E004C08FE390E058
:10312000A0E0B0E0E80EF91E0A1F1B1F17FF05C044
:1031300016950795F794E794319687E016950795CD
:10314000F794E7948A95D1F705C0EE24FF24870110
:10315000EFEFF0E06E2F679566276795902F9F77CA
:10316000D794DD24D7948E2F8695492F462B582F40
:103170005D29B701CA011F910F91FF90EF90DF9079
:103180000895FC01DB01408151812281622F6F771C
:1031900070E0221F2227221F9381892F880F822B04
:1031A000282F30E0991F9927991F11969C9311970A
:1031B00021153105A9F5411551056105710511F478
:1031C00082E037C082E89FEF13969C938E9312970C
:1031D0009A01AB0167E0220F331F441F551F6A9508
:1031E000D1F783E08C930DC0220F331F441F551F6E
:1031F00012968D919C911397019713969C938E93A1
:103200001297203080E0380780E0480780E45807B4
:1032100058F314962D933D934D935C93179708950F
:103220002F3F310579F4411551056105710519F4F8
:1032300084E08C93089564FF03C081E08C9312C0F6
:103240001C9210C02F57304013963C932E93129728
:1032500083E08C9387E0440F551F661F771F8A9584
:10326000D1F7706414964D935D936D937C9317978B
:1032700008951F93DC01FB019C91923008F447C034
:103280008081823008F443C0943051F411961C912F
:10329000843099F58181682F70E0611B71093FC00E
:1032A000843021F0923031F48230B9F18181882369
:1032B00089F12DC011961C9111978230F1F0818116
:1032C0001817D9F412962D913C911397828193810E
:1032D0008217930794F028173907BCF014968D9144
:1032E0009D910D90BC91A02D2481358146815781FF
:1032F000281739074A075B0718F4112341F00AC061
:1033000082179307A407B50740F4112319F061E071
:1033100070E005C06FEF7FEF02C060E070E0CB01AE
:103320001F910895AA1BBB1B51E107C0AA1FBB1F19
:10333000A617B70710F0A61BB70B881F991F5A9541
:10334000A9F780959095BC01CD0108952F923F92E9
:103350004F925F926F927F928F929F92AF92BF92A5
:10336000CF92DF92EF92FF920F931F93CF93DF9351
:10337000CDB7DEB7CA1BDB0B0FB6F894DEBF0FBEAE
:10338000CDBF19942A88398848885F846E847D84EB
:103390008C849B84AA84B984C884DF80EE80FD80FD
:1033A0000C811B81AA81B981CE0FD11D0FB6F89473
:0E33B000DEBF0FBECDBFED010895F894FFCF34
:1033BE0000000000000000000001020203030303EE
:1033CE0004040404040404040505050505050505A7
:1033DE000505050505050505060606060606060687
:1033EE00060606060606060606060606060606066F
:1033FE000606060606060606070707070707070757
:10340E00070707070707070707070707070707073E
:10341E00070707070707070707070707070707072E
:10342E00070707070707070707070707070707071E
:10343E000707070707070707080808080808080806
:10344E0008080808080808080808080808080808EE
:10345E0008080808080808080808080808080808DE
:10346E0008080808080808080808080808080808CE
:10347E0008080808080808080808080808080808BE
:10348E0008080808080808080808080808080808AE
:10349E00080808080808080808080808080808089E
:1034AE00080808080808080808080808080808088E
:0834BE000808080808080808C6
:00000001FF
