:100000000C9472000C9493000C9493000C94930045
:100010000C9493000C94AF010C9467010C94930022
:100020000C9493000C9493000C9493000C94930004
:100030000C9493000C9493000C9493000C949300F4
:100040000C9493000C9493000C9493000C949300E4
:100050000C9493000C9493000C9493000C949300D4
:100060000C9493000C9493000C9493000C949300C4
:100070000C9493000C9493000C9493000C949300B4
:100080000C9493000C9493000C9493000C949300A4
:100090000C9493000C9493000C9493000C94930094
:1000A0000C9493000C9493000C9493000C94930084
:1000B0000C9493000C9493000C9493000C94930074
:1000C0000C9493000C9493000C9493000C94930064
:1000D0000C9493000C9493000C9493000C94930054
:1000E0000C94930011241FBECFEFD1E2DEBFCDBF31
:1000F00000E00CBF13E0A0E0B2E0EAEDF0E900E0C0
:100100000BBF02C007900D92A031B107D9F713E0E1
:10011000A0E1B3E001C01D92AA34B107E1F70E944B
:10012000BB120C946B480C940000DF93CF93CDB7B7
:10013000DEB7E1E2F1E01082E5E2F1E08FEF8083EB
:10014000E4E2F1E081E08083E9E2F1E01082E8E2BC
:10015000F1E08FEF8083EBE2F1E01082EAE2F1E080
:100160008FEF8083EDE2F1E01082ECE2F1E08FEFBF
:100170008083E0E2F1E089EA8083E1E2F1E08BE074
:100180008083CF91DF910895DF93CF930F920F92E9
:10019000CDB7DEB789836A83E8E2F1E089818083A5
:1001A000EAE2F1E08A8180830F900F90CF91DF9196
:1001B0000895DF93CF93CDB7DEB7A1E2B0E0E1E2DF
:1001C000F0E080818F608C93A2E2B0E0E2E2F0E0A8
:1001D0008081807F8C93AAE0B1E0EAE0F1E0808149
:1001E00088618C93ABE0B1E0EBE0F1E08081886165
:1001F0008C93CF91DF910895DF93CF93CDB7DEB786
:10020000ADE2B0E0EDE2F0E080818F7E8C93AEE273
:10021000B0E0EEE2F0E0808180618C93CF91DF91DD
:100220000895DF93CF93CDB7DEB7ADE2B0E0EDE256
:10023000F0E080818F7D8C93AEE2B0E0EEE2F0E002
:10024000808180628C93CF91DF910895DF93CF936B
:10025000CDB7DEB7F894AAE6B0E0EAE6F0E0808138
:1002600082608C93ADE3B0E0EDE3F0E080818061EB
:100270008C937894CF91DF910895DF93CF93CDB78E
:10028000DEB7F894AAE6B0E0EAE6F0E080818860A4
:100290008C93ADE3B0E0EDE3F0E0808180628C937D
:1002A0007894CF91DF910895DF93CF93CDB7DEB7E8
:1002B0000E94D9000E94FC000E9411010E942601A8
:1002C0000E943D010E949500CF91DF9108951F92F9
:1002D0000F920FB60F9211248F939F93AF93BF93FA
:1002E000DF93CF93CDB7DEB78091140390911503C0
:1002F000A0911603B09117030196A11DB11D809323
:10030000140390931503A0931603B09317038091E1
:100310000002909101028130910549F48091180307
:10032000909119030196909319038093180380917B
:100330001803909119038333910534F081E090E024
:1003400090931B0380931A03CF91DF91BF91AF91DC
:100350009F918F910F900FBE0F901F9018951F9235
:100360000F920FB60F9211248F939F93AF93BF9369
:10037000DF93CF93CDB7DEB7809110039091110337
:10038000A0911203B09113030196A11DB11D80939A
:10039000100390931103A0931203B0931303CF9112
:1003A000DF91BF91AF919F918F910F900FBE0F90F2
:1003B0001F901895DF93CF930F920F92CDB7DEB7B2
:1003C0008A8319828A818F708A83E2E2F0E08081D9
:1003D00089838981807F898399818A81892B898317
:1003E000E2E2F0E0898180830F900F90CF91DF915E
:1003F0000895DF93CF93CDB7DEB786E00E94DA0190
:10040000CF91DF910895DF93CF93CDB7DEB72A97D1
:100410000FB6F894DEBF0FBECDBF9A87898780E004
:1004200090E0A0E0B0E08D839E83AF83B88719820F
:100430001A821B821C8289859A85CC01A0E0B0E0DB
:10044000BC01CD010E949F45DC01CB01BC01CD0167
:1004500025EE30ED4AEA50E40E94B143DC01CB01C5
:100460008D839E83AF83B8876D817E818F819885D0
:100470000E94E140DC01CB0189839A83AB83BC837A
:100480001092140310921503109216031092170382
:100490001092100310921103109212031092130382
:1004A0000E94F90120911403309115034091160325
:1004B0005091170389819A81AB81BC818217930780
:1004C000A407B50788F020911003309111034091E3
:1004D00012035091130389819A81AB81BC818217E9
:1004E0009307A407B507F0F60E9495062A960FB663
:1004F000F894DEBF0FBECDBFCF91DF910895DF939B
:10050000CF93CDB7DEB789E00E94DA01CF91DF91BA
:100510000895DF93CF93CDB7DEB72A970FB6F8943F
:10052000DEBF0FBECDBF9A87898780E090E0A0E054
:10053000B0E08D839E83AF83B88719821A821B82B5
:100540001C8289859A85CC01A0E0B0E0BC01CD0178
:100550000E949F45DC01CB01BC01CD0125EE30EDB1
:100560004AEA50E40E94B143DC01CB018D839E83B3
:10057000AF83B8876D817E818F8198850E94E1402D
:10058000DC01CB0189839A83AB83BC831092140373
:100590001092150310921603109217031092100375
:1005A0001092110310921203109213030E947F0203
:1005B00020911403309115034091160350911703B5
:1005C00089819A81AB81BC8182179307A407B50703
:1005D00088F0209110033091110340911203509143
:1005E000130389819A81AB81BC8182179307A40789
:1005F000B507F0F60E9495062A960FB6F894DEBF6E
:100600000FBECDBFCF91DF910895DF93CF93CDB7CC
:10061000DEB785E00E94DA01CF91DF910895DF9384
:10062000CF93CDB7DEB72C970FB6F894DEBF0FBED1
:10063000CDBF9A87898780E090E0A0E0B0E08D830D
:100640009E83AF83B88719821A821B821C82898598
:100650009A85CC01A0E0B0E0BC01CD010E949F458D
:10066000DC01CB01BC01CD0128E431EE42E850E4CD
:100670000E94B143DC01CB018D839E83AF83B88799
:100680006D817E818F8198850E94E140DC01CB01E4
:10069000CC01A0E0B0E089839A83AB83BC83109245
:1006A0001403109215031092160310921703109260
:1006B00010031092110310921203109213030E9460
:1006C00005032091140330911503409116035091B6
:1006D00017031C8689819A81AB81BC812817390751
:1006E0004A075B0710F081E08C872091100330915E
:1006F000110340911203509113031B8689819A8143
:10070000AB81BC81281739074A075B0710F091E0DD
:100710009B878C859B85892B882399F20E9495065F
:100720002C960FB6F894DEBF0FBECDBFCF91DF91F0
:100730000895DF93CF93CDB7DEB78AE00E94DA0148
:10074000CF91DF910895DF93CF93CDB7DEB72C978C
:100750000FB6F894DEBF0FBECDBF9A87898780E0C1
:1007600090E0A0E0B0E08D839E83AF83B8871982CC
:100770001A821B821C8289859A85CC01A0E0B0E098
:10078000BC01CD010E949F45DC01CB01BC01CD0124
:1007900028E431EE42E850E40E94B143DC01CB0191
:1007A0008D839E83AF83B8876D817E818F8198858D
:1007B0000E94E140DC01CB01CC01A0E0B0E08983E4
:1007C0009A83AB83BC83109214031092150310928A
:1007D0001603109217031092100310921103109237
:1007E0001203109213030E94990320911403309175
:1007F000150340911603509117031C8689819A8135
:10080000AB81BC81281739074A075B0710F081E0EC
:100810008C87209110033091110340911203509165
:1008200013031B8689819A81AB81BC812817390704
:100830004A075B0710F091E09B878C859B85892B8D
:10084000882399F20E9495062C960FB6F894DEBF85
:100850000FBECDBFCF91DF910895DF93CF93CDB77A
:10086000DEB784E00E94DA01CF91DF910895DF9333
:10087000CF93CDB7DEB72C970FB6F894DEBF0FBE7F
:10088000CDBF9A87898780E090E0A0E0B0E08D83BB
:100890009E83AF83B88719821A821B821C82898546
:1008A0009A85CC01A0E0B0E0BC01CD010E949F453B
:1008B0009B01AC01CA01B9010E948A42DC01CB0153
:1008C000BC01CD0128E431EE42E850E40E94B1437E
:1008D000DC01CB018D839E83AF83B8876D817E81E0
:1008E0008F8198850E94E140DC01CB01CC01A0E022
:1008F000B0E089839A83AB83BC8310921403109277
:100900001503109216031092170310921003109201
:10091000110310921203109213030E942D042091D0
:1009200014033091150340911603509117031C8650
:1009300089819A81AB81BC81281739074A075B07F7
:1009400010F081E08C8720911003309111034091C9
:100950001203509113031B8689819A81AB81BC815C
:10096000281739074A075B0710F091E09B878C85B1
:100970009B85892B882399F20E9495062C960FB6A9
:10098000F894DEBF0FBECDBFCF91DF910895DF9306
:10099000CF93CDB7DEB782E00E94DA01CF91DF912D
:1009A0000895DF93CF93CDB7DEB72C970FB6F894A9
:1009B000DEBF0FBECDBF9A87898780E090E0A0E0C0
:1009C000B0E08D839E83AF83B88719821A821B8221
:1009D0001C8289859A85CC01A0E0B0E0BC01CD01E4
:1009E0000E949F459B01AC01CA01B9010E948A4245
:1009F000DC01CB01BC01CD0128E431EE42E850E43A
:100A00000E94B143DC01CB018D839E83AF83B88705
:100A10006D817E818F8198850E94E140DC01CB0150
:100A2000CC01A0E0B0E089839A83AB83BC831092B1
:100A300014031092150310921603109217031092CC
:100A400010031092110310921203109213030E94CC
:100A5000C70420911403309115034091160350915F
:100A600017031C8689819A81AB81BC8128173907BD
:100A70004A075B0710F081E08C87209110033091CA
:100A8000110340911203509113031B8689819A81AF
:100A9000AB81BC81281739074A075B0710F091E04A
:100AA0009B878C859B85892B882399F20E949506CC
:100AB0002C960FB6F894DEBF0FBECDBFCF91DF915D
:100AC0000895DF93CF93CDB7DEB781E00E94DA01BE
:100AD000CF91DF910895DF93CF93CDB7DEB72C97F9
:100AE0000FB6F894DEBF0FBECDBF9A87898780E02E
:100AF00090E0A0E0B0E08D839E83AF83B887198239
:100B00001A821B821C8289859A85CC01A0E0B0E004
:100B1000BC01CD010E949F459B01AC01CA01B901F6
:100B20000E948A42DC01CB01BC01CD0128E431EEF8
:100B300042E850E40E94B143DC01CB018D839E83E7
:100B4000AF83B8876D817E818F8198850E94E14057
:100B5000DC01CB01CC01A0E0B0E089839A83AB83B8
:100B6000BC83109214031092150310921603109276
:100B70001703109210031092110310921203109297
:100B800013030E94610520911403309115034091D5
:100B90001603509117031C8689819A81AB81BC8111
:100BA000281739074A075B0710F081E08C872091EE
:100BB00010033091110340911203509113031B86CF
:100BC00089819A81AB81BC81281739074A075B0765
:100BD00010F091E09B878C859B85892B882399F267
:100BE0000E9495062C960FB6F894DEBF0FBECDBFBF
:100BF000CF91DF910895DF93CF93CDB7DEB788E033
:100C00000E94DA01CF91DF910895DF93CF93CDB7A2
:100C1000DEB72C970FB6F894DEBF0FBECDBF9A8714
:100C2000898780E090E0A0E0B0E08D839E83AF8371
:100C3000B88719821A821B821C8289859A85CC0109
:100C4000A0E0B0E0BC01CD010E949F459B01AC013A
:100C5000CA01B9010E948A42DC01CB01BC01CD016D
:100C600028E431EE42E850E40E94B143DC01CB01BC
:100C70008D839E83AF83B8876D817E818F819885B8
:100C80000E94E140DC01CB01CC01A0E0B0E089830F
:100C90009A83AB83BC8310921403109215031092B5
:100CA0001603109217031092100310921103109262
:100CB0001203109213030E94FB052091140330913C
:100CC000150340911603509117031C8689819A8160
:100CD000AB81BC81281739074A075B0710F081E018
:100CE0008C87209110033091110340911203509191
:100CF00013031B8689819A81AB81BC812817390730
:100D00004A075B0710F091E09B878C859B85892BB8
:100D1000882399F20E9495062C960FB6F894DEBFB0
:100D20000FBECDBFCF91DF910895DF93CF93CDB7A5
:100D3000DEB780E00E94DA01CF91DF910895DF9362
:100D4000CF93CDB7DEB7E0E3F0E01082E7E0F1E06B
:100D50001082E1E3F0E01082E8E0F1E01082CF9150
:100D6000DF910895DF93CF93CDB7DEB70E949F0642
:100D7000EAE7F0E01082EBE7F0E01082ECE7F0E069
:100D800080E28083E0E5F0E080E88083EAE7F0E05D
:100D900086E88083CF91DF910895DF93CF930F9200
:100DA0000F92CDB7DEB78A838A81883020F0EBE7D7
:100DB000F0E088E080838A8187708A83ECE7F0E046
:100DC0008A8180628083AAE7B0E0EAE7F0E0808170
:100DD00080648C93EAE7F0E08081882F90E0807156
:100DE00090700097B9F3E9E7F0E080818983AAE782
:100DF000B0E0EAE7F0E0808180618C93EBE7F0E01F
:100E0000108289810F900F90CF91DF910895DF9329
:100E1000CF93CDB7DEB70E9412070E94260CCF9168
:100E2000DF910895DF93CF93CDB7DEB7A7E2B0E0AF
:100E3000E7E2F0E08081876F8C93A8E2B0E0E8E21F
:100E4000F0E0808180788C93CF91DF9108950F93AB
:100E50001F93DF93CF93CDB7DEB7C057D0400FB607
:100E6000F894DEBF0FBECDBFFE01E359FF4F80E017
:100E700090E0A0E8BFE380839183A283B3838E01D7
:100E800007591F4FFE01E359FF4F60817181828135
:100E9000938126E636E646E655E40E94B742DC0139
:100EA000CB01F80180839183A283B383FE01E759CC
:100EB000FF4F608171818281938120E030E040E8C2
:100EC0005FE30E94BD44882344F4FE01E959FF4FCB
:100ED00081E090E09183808364C0FE01E759FF4F79
:100EE000608171818281938120E03FEF4FE757E479
:100EF0000E945D4418160CF043C0FE01E359FF4FF9
:100F0000608171818281938120E030E040E251E490
:100F10000E94B742DC01CB018E0109591F4FBC0171
:100F2000CD010E94E140DC01CB01F8019183808377
:100F30001FC0FE01EB59FF4F80E791E09183808352
:100F4000FE01EB59FF4F808191810197F1F7FE017E
:100F5000EB59FF4F91838083DE01A959BF4FFE01FA
:100F6000E959FF4F80819181019711969C938E934F
:100F7000FE01E959FF4F808191810097D1F627C08A
:100F80008E0109591F4FFE01E759FF4F60817181A2
:100F9000828193810E94E140DC01CB01F8019183C1
:100FA0008083DE01AD59BF4FFE01E959FF4F8081BB
:100FB00091818D939C93FE01ED59FF4F808191812A
:100FC0000197F1F7FE01ED59FF4F91838083A8E26D
:100FD000B0E0E8E2F0E080818E7F8C93A8E2B0E0A0
:100FE000E8E2F0E080818D7F8C93E8E2F0E080E33E
:100FF0008083A8E2B0E0E8E2F0E0808184608C9336
:10100000FE01E15AFF4F80E090E0A0EAB0E4808367
:101010009183A283B3838E01055A1F4FFE01E15ACB
:10102000FF4F608171818281938126E636E646E634
:1010300055E40E94B742DC01CB01F8018083918323
:10104000A283B383FE01E55AFF4F608171818281E3
:10105000938120E030E040E85FE30E94BD448823B4
:1010600044F4FE01E75AFF4F81E090E091838083D2
:1010700064C0FE01E55AFF4F6081718182819381D6
:1010800020E03FEF4FE757E40E945D4418160CF054
:1010900043C0FE01E15AFF4F6081718182819381DB
:1010A00020E030E040E251E40E94B742DC01CB0195
:1010B0008E01075A1F4FBC01CD010E94E140DC01A7
:1010C000CB01F801918380831FC0FE01E95AFF4FD5
:1010D00080E791E091838083FE01E95AFF4F808190
:1010E00091810197F1F7FE01E95AFF4F91838083C7
:1010F000DE01A75ABF4FFE01E75AFF4F8081918161
:10110000019711969C938E93FE01E75AFF4F8081C1
:1011100091810097D1F627C08E01075A1F4FFE011B
:10112000E55AFF4F60817181828193810E94E14085
:10113000DC01CB01F80191838083DE01AB5ABF4F04
:10114000FE01E75AFF4F808191818D939C93FE01B0
:10115000EB5AFF4F808191810197F1F7FE01EB5A25
:10116000FF4F91838083A8E2B0E0E8E2F0E0808165
:101170008B7F8C93FE01EF5AFF4F80E090E0A0E858
:10118000BFE380839183A283B3838E01035B1F4FF0
:10119000FE01EF5AFF4F608171818281938126E6C3
:1011A00036E646E655E40E94B742DC01CB01F80181
:1011B00080839183A283B383FE01E35BFF4F608151
:1011C00071818281938120E030E040E85FE30E94FA
:1011D000BD44882344F4FE01E55BFF4F81E090E0CD
:1011E0009183808364C0FE01E35BFF4F6081718166
:1011F0008281938120E03FEF4FE757E40E945D44F6
:1012000018160CF043C0FE01EF5AFF4F6081718148
:101210008281938120E030E040E251E40E94B742B5
:10122000DC01CB018E01055B1F4FBC01CD010E948B
:10123000E140DC01CB01F801918380831FC0FE01F6
:10124000E75BFF4F80E791E091838083FE01E75BDE
:10125000FF4F808191810197F1F7FE01E75BFF4F1E
:1012600091838083DE01A55BBF4FFE01E55BFF4FED
:1012700080819181019711969C938E93FE01E55B8D
:10128000FF4F808191810097D1F627C08E01055BC9
:101290001F4FFE01E35BFF4F60817181828193816B
:1012A0000E94E140DC01CB01F80191838083DE01E3
:1012B000A95BBF4FFE01E55BFF4F808191818D935C
:1012C0009C93FE01E95BFF4F808191810197F1F7CB
:1012D000FE01E95BFF4F91838083A8E2B0E0E8E282
:1012E000F0E080818E7F8C93A8E2B0E0E8E2F0E04D
:1012F00080818D7F8C93E8E2F0E080E38083A8E238
:10130000B0E0E8E2F0E0808184608C93FE01ED5B68
:10131000FF4F80E090E0A0EAB0E480839183A28355
:10132000B3838E01015C1F4FFE01ED5BFF4F6081B7
:1013300071818281938126E636E646E655E40E9475
:10134000B742DC01CB01F80180839183A283B38390
:10135000FE01FF96608171818281938120E030E0FF
:1013600040E85FE30E94BD4488232CF481E090E0D4
:101370009EAF8DAF46C0FE01FF9660817181828174
:10138000938120E03FEF4FE757E40E945D44181639
:1013900064F5FE01ED5BFF4F608171818281938175
:1013A00020E030E040E251E40E94B742DC01CB0192
:1013B000BC01CD010E94E140DC01CB019EAF8DAFAD
:1013C0000FC080E791E09CAF8BAF8BAD9CAD0197D8
:1013D000F1F79CAF8BAF8DAD9EAD01979EAF8DAFFA
:1013E0008DAD9EAD009769F716C0FE01FF96608136
:1013F0007181828193810E94E140DC01CB019EAF2B
:101400008DAF8DAD9EAD9AAF89AF89AD9AAD019785
:10141000F1F79AAF89AFA8E2B0E0E8E2F0E08081AE
:101420008B7F8C9380E090E0A0E8BFE38DAB9EAB18
:10143000AFABB8AF6DA97EA98FA998AD26E636E609
:1014400046E655E40E94B742DC01CB0189AB9AAB7A
:10145000ABABBCAB69A97AA98BA99CA920E030E011
:1014600040E85FE30E94BD4488232CF481E090E0D3
:1014700098AB8FA73FC069A97AA98BA99CA920E046
:101480003FEF4FE757E40E945D4418164CF56DA9F5
:101490007EA98FA998AD20E030E040E251E40E949F
:1014A000B742DC01CB01BC01CD010E94E140DC016F
:1014B000CB0198AB8FA70FC080E791E09EA78DA7C7
:1014C0008DA59EA50197F1F79EA78DA78FA598A939
:1014D000019798AB8FA78FA598A9009769F714C0BB
:1014E00069A97AA98BA99CA90E94E140DC01CB01E2
:1014F00098AB8FA78FA598A99CA78BA78BA59CA518
:101500000197F1F79CA78BA7A8E2B0E0E8E2F0E032
:1015100080818E7F8C93A8E2B0E0E8E2F0E08081E9
:101520008D7F8C93E8E2F0E080E38083A8E2B0E076
:10153000E8E2F0E0808184608C9380E090E0A0EAB3
:10154000B0E48FA398A7A9A7BAA76FA178A589A58A
:101550009AA526E636E646E655E40E94B742DC0147
:10156000CB018BA39CA3ADA3BEA36BA17CA18DA13A
:101570009EA120E030E040E85FE30E94BD44882364
:101580002CF481E090E09AA389A33FC06BA17CA1D9
:101590008DA19EA120E03FEF4FE757E40E945D44FC
:1015A00018164CF56FA178A589A59AA520E030E022
:1015B00040E251E40E94B742DC01CB01BC01CD0105
:1015C0000E94E140DC01CB019AA389A30FC080E710
:1015D00091E098A38F8F8F8D98A10197F1F798A331
:1015E0008F8F89A19AA101979AA389A389A19AA112
:1015F000009769F714C06BA17CA18DA19EA10E94E8
:10160000E140DC01CB019AA389A389A19AA19E8F15
:101610008D8F8D8D9E8D0197F1F79E8F8D8FA8E216
:10162000B0E0E8E2F0E080818B7F8C9380E090E096
:10163000A0E8BFE3898F9A8FAB8FBC8F698D7A8DBD
:101640008B8D9C8D26E636E646E655E40E94B74231
:10165000DC01CB018D8B9E8BAF8BB88F6D897E8922
:101660008F89988D20E030E040E85FE30E94BD4420
:1016700088232CF481E090E09C8B8B8B3FC06D899C
:101680007E898F89988D20E03FEF4FE757E40E94D5
:101690005D4418164CF5698D7A8D8B8D9C8D20E0FC
:1016A00030E040E251E40E94B742DC01CB01BC01D2
:1016B000CD010E94E140DC01CB019C8B8B8B0FC0E4
:1016C00080E791E09A8B898B89899A890197F1F754
:1016D0009A8B898B8B899C8901979C8B8B8B8B89AF
:1016E0009C89009769F714C06D897E898F89988DD0
:1016F0000E94E140DC01CB019C8B8B8B8B899C8908
:10170000988B8F878F8598890197F1F7988B8F87B2
:10171000A8E2B0E0E8E2F0E080818E7F8C93A8E25E
:10172000B0E0E8E2F0E080818D7F8C93E8E2F0E0C9
:1017300080E28083A8E2B0E0E8E2F0E080818460AB
:101740008C9380E090E0A0EAB0E48B879C87AD8723
:10175000BE876B857C858D859E8526E636E646E6CA
:1017600055E40E94B742DC01CB018F839887A9879B
:10177000BA876F81788589859A8520E030E040E8D6
:101780005FE30E94BD4488232CF481E090E09E83B7
:101790008D833FC06F81788589859A8520E03FEFF2
:1017A0004FE757E40E945D4418164CF56B857C8525
:1017B0008D859E8520E030E040E251E40E94B742F2
:1017C000DC01CB01BC01CD010E94E140DC01CB0179
:1017D0009E838D830FC080E791E09C838B838B81F8
:1017E0009C810197F1F79C838B838D819E8101976A
:1017F0009E838D838D819E81009769F714C06F81D0
:10180000788589859A850E94E140DC01CB019E8321
:101810008D838D819E819A83898389819A810197A5
:10182000F1F79A838983A8E2B0E0E8E2F0E08081F2
:101830008B7F8C93C059DF4F0FB6F894DEBF0FBE7D
:10184000CDBFCF91DF911F910F910895DF93CF937B
:10185000CDB7DEB72E970FB6F894DEBF0FBECDBF63
:101860000E94270780E090E0A0E8BFE38B879C8779
:10187000AD87BE876B857C858D859E8526E636E6A1
:1018800046E655E40E94B742DC01CB018F8398877E
:10189000A987BA876F81788589859A8520E030E0AD
:1018A00040E85FE30E94BD4488232CF481E090E08F
:1018B0009E838D833FC06F81788589859A8520E0DE
:1018C0003FEF4FE757E40E945D4418164CF56B85D7
:1018D0007C858D859E8520E030E040E251E40E94C9
:1018E000B742DC01CB01BC01CD010E94E140DC012B
:1018F000CB019E838D830FC080E791E09C838B8317
:101900008B819C810197F1F79C838B838D819E81D4
:1019100001979E838D838D819E81009769F714C006
:101920006F81788589859A850E94E140DC01CB0131
:101930009E838D838D819E819A83898389819A81FB
:101940000197F1F79A83898388E20E94BC0C81E0B9
:101950000E94BC0C86E00E94BC0C8EE00E94BC0C75
:1019600080E80E94BC0C2E960FB6F894DEBF0FBE26
:10197000CDBFCF91DF910895DF93CF93CDB7DEB781
:101980006E970FB6F894DEBF0FBECDBF8E8F8E8DD3
:101990008D8F8D8D807F8D8FA8E2B0E0E8E2F0E042
:1019A00080818F708C93A8E2B0E0E8E2F0E0908153
:1019B0008D8D892B8C93A8E2B0E0E8E2F0E0808185
:1019C0008E7F8C93A8E2B0E0E8E2F0E080818D7F2A
:1019D0008C93A8E2B0E0E8E2F0E0808184608C9330
:1019E00080E090E0A0EAB0E4898F9A8FAB8FBC8F43
:1019F000698D7A8D8B8D9C8D26E636E646E655E41C
:101A00000E94B742DC01CB018D8B9E8BAF8BB88FD0
:101A10006D897E898F89988D20E030E040E85FE312
:101A20000E94BD4488232CF481E090E09C8B8B8B3A
:101A30003FC06D897E898F89988D20E03FEF4FE709
:101A400057E40E945D4418164CF5698D7A8D8B8D94
:101A50009C8D20E030E040E251E40E94B742DC017E
:101A6000CB01BC01CD010E94E140DC01CB019C8B8C
:101A70008B8B0FC080E791E09A8B898B89899A893B
:101A80000197F1F79A8B898B8B899C8901979C8BA5
:101A90008B8B8B899C89009769F714C06D897E892F
:101AA0008F89988D0E94E140DC01CB019C8B8B8B50
:101AB0008B899C89988B8F878F8598890197F1F7FF
:101AC000988B8F87A8E2B0E0E8E2F0E080818B7F1E
:101AD0008C938E8D8F708E8F8E8D8295807F8E8F62
:101AE000A8E2B0E0E8E2F0E080818F708C93A8E299
:101AF000B0E0E8E2F0E090818E8D892B8C93A8E233
:101B0000B0E0E8E2F0E080818E7F8C93A8E2B0E064
:101B1000E8E2F0E080818D7F8C93A8E2B0E0E8E21B
:101B2000F0E0808184608C9380E090E0A0EAB0E4F3
:101B30008B879C87AD87BE876B857C858D859E85D1
:101B400026E636E646E655E40E94B742DC01CB01C4
:101B50008F839887A987BA876F81788589859A85C9
:101B600020E030E040E85FE30E94BD4488232CF48D
:101B700081E090E09E838D833FC06F817885898569
:101B80009A8520E03FEF4FE757E40E945D44181626
:101B90004CF56B857C858D859E8520E030E040E2AC
:101BA00051E40E94B742DC01CB01BC01CD010E948F
:101BB000E140DC01CB019E838D830FC080E791E083
:101BC0009C838B838B819C810197F1F79C838B8312
:101BD0008D819E8101979E838D838D819E8100974B
:101BE00069F714C06F81788589859A850E94E140E4
:101BF000DC01CB019E838D838D819E819A838983B5
:101C000089819A810197F1F79A838983A8E2B0E0EC
:101C1000E8E2F0E080818B7F8C936E960FB6F894AB
:101C2000DEBF0FBECDBFCF91DF910895DF93CF937D
:101C3000CDB7DEB76E970FB6F894DEBF0FBECDBF3F
:101C40008E8F8E8D8D8F8D8D807F8D8FA8E2B0E0F1
:101C5000E8E2F0E080818F708C93A8E2B0E0E8E2E7
:101C6000F0E08081982F8D8D892B8C93A8E2B0E0D5
:101C7000E8E2F0E0808181608C93A8E2B0E0E8E2E5
:101C8000F0E080818D7F8C93A8E2B0E0E8E2F0E0A4
:101C9000808184608C9380E090E0A0EAB0E4898F3A
:101CA0009A8FAB8FBC8F698D7A8D8B8D9C8D26E63C
:101CB00036E646E655E40E94B742DC01CB018D8B47
:101CC0009E8BAF8BB88F6D897E898F89988D20E030
:101CD00030E040E85FE30E94BD4488232CF481E0BB
:101CE00090E09C8B8B8B3FC06D897E898F89988D0E
:101CF00020E03FEF4FE757E40E945D4418164CF593
:101D0000698D7A8D8B8D9C8D20E030E040E251E42E
:101D10000E94B742DC01CB01BC01CD010E94E14031
:101D2000DC01CB019C8B8B8B0FC080E791E09A8B01
:101D3000898B89899A890197F1F79A8B898B8B898D
:101D40009C8901979C8B8B8B8B899C89009769F769
:101D500014C06D897E898F89988D0E94E140DC01D5
:101D6000CB019C8B8B8B8B899C89988B8F878F85E4
:101D700098890197F1F7988B8F87A8E2B0E0E8E2A5
:101D8000F0E080818B7F8C938E8D8F708E8F8E8D07
:101D9000992787FD909582959295907F9827807FCF
:101DA00098278E8FA8E2B0E0E8E2F0E080818F70A3
:101DB0008C93A8E2B0E0E8E2F0E08081982F8E8D6D
:101DC000892B8C93A8E2B0E0E8E2F0E080818160AA
:101DD0008C93A8E2B0E0E8E2F0E080818D7F8C9304
:101DE000A8E2B0E0E8E2F0E0808184608C9380E0DB
:101DF00090E0A0EAB0E48B879C87AD87BE876B85B7
:101E00007C858D859E8526E636E646E655E40E946D
:101E1000B742DC01CB018F839887A987BA876F818E
:101E2000788589859A8520E030E040E85FE30E946C
:101E3000BD4488232CF481E090E09E838D833FC0D5
:101E40006F81788589859A8520E03FEF4FE757E4D9
:101E50000E945D4418164CF56B857C858D859E85AA
:101E600020E030E040E251E40E94B742DC01CB01C7
:101E7000BC01CD010E94E140DC01CB019E838D833A
:101E80000FC080E791E09C838B838B819C810197BD
:101E9000F1F79C838B838D819E8101979E838D8337
:101EA0008D819E81009769F714C06F81788589853F
:101EB0009A850E94E140DC01CB019E838D838D8158
:101EC0009E819A83898389819A810197F1F79A8308
:101ED0008983A8E2B0E0E8E2F0E080818B7F8C9318
:101EE0006E960FB6F894DEBF0FBECDBFCF91DF91D7
:101EF0000895DF93CF93CDB7DEB780E80E94BC0C86
:101F0000CF91DF910895DF93CF930F920F92CDB7CA
:101F1000DEB79A8389830AC0E981FA8180810E94B1
:101F2000160E89819A8101969A838983E981FA81C3
:101F30008081882389F70F900F90CF91DF910895CA
:101F4000DF93CF9300D00F92CDB7DEB789836A833A
:101F50008981282F332727FD30953C832B838B8164
:101F60009C8182309105D9F02B813C812330310551
:101F700034F48B819C818130910561F01EC02B81EE
:101F80003C812330310581F08B819C818430910527
:101F900081F013C08A8181580E94BC0C0EC08A81D6
:101FA00081540E94BC0C09C08A818D560E94BC0CD1
:101FB00004C08A818D520E94BC0C0F900F900F902C
:101FC0000F90CF91DF910895DF93CF93CDB7DEB718
:101FD00027970FB6F894DEBF0FBECDBF8A836B8301
:101FE0005D834C833F832E8319828A81882319F075
:101FF0008B81882319F40E94790F04C08A816B8138
:102000000E94A00F8E819F818530910519F08981F2
:102010008130A9F48C819D8120E137E2B9010E94D1
:102020000D48CB01C09690932103809320038091AB
:102030002003909121030E94160E81E089838E81F6
:102040009F818430910519F08981813011F58C814F
:102050009D8128EE33E0B9010E940D48CB01909399
:1020600023038093220380912203909123032AE08B
:1020700030E0B9010E940D48C096909345038093CB
:10208000440380914403909145030E94160E81E021
:1020900089838E819F818330910519F089818130F8
:1020A00011F58C819D8124E630E0B9010E940D4834
:1020B000CB0190932303809322038091220390917C
:1020C00023032AE030E0B9010E940D48C0969093A6
:1020D00033038093320380913203909133030E9443
:1020E000160E81E089838E819F818230910519F0DF
:1020F0008981813011F58C819D812AE030E0B90120
:102100000E940D48CB01909323038093220380917A
:102110002203909123032AE030E0B9010E940D4888
:10212000C09690932D0380932C0380912C03909163
:102130002D030E94160E81E089838E819F8181305C
:10214000910519F08981813091F48C819D812AE07B
:1021500030E0B9010E940D48C096909343038093EC
:10216000420380914203909143030E94160E8E8198
:102170009F81863091051CF085E40E94160E2796FB
:102180000FB6F894DEBF0FBECDBFCF91DF9108959B
:10219000DF93CF93CDB7DEB7A4E2B0E0E4E2F0E0A6
:1021A000808180628C93A5E2B0E0E5E2F0E080817E
:1021B00080628C93CF91DF910895DF93CF93CDB759
:1021C000DEB7A4E2B0E0E4E2F0E0808180648C93CA
:1021D000A5E2B0E0E5E2F0E0808180648C93CF91ED
:1021E000DF910895DF93CF93CDB7DEB7A4E2B0E0DF
:1021F000E4E2F0E0808180688C93A5E2B0E0E5E263
:10220000F0E0808180688C93CF91DF910895DF9317
:10221000CF93CDB7DEB70E94C8100E94DD100E9498
:10222000F210CF91DF910895DF93CF93CDB7DEB752
:10223000E1E8F0E01082E5E8F0E08CEF8083E4E88C
:10224000F0E081E08083E9E8F0E083E08083E8E883
:10225000F0E08FEF8083EBE8F0E083E08083EAE852
:10226000F0E08FEF8083EDE8F0E083E08083ECE83E
:10227000F0E08FEF8083E7E8F0E083E08083E6E83A
:10228000F0E08FEF8083E0E8F0E08BEA8083E2E823
:10229000F0E01082E1E8F0E08CE08083CF91DF9104
:1022A0000895DF93CF93CDB7DEB7F8940E9407115E
:1022B0000E9414117894CF91DF9108950F931F938A
:1022C000DF93CF9300D00F920F92CDB7DEB78D83FF
:1022D00080E090E0A0E0B0E089839A83AB83BC8388
:1022E0008D81882F90E0A0E0B0E0BC01CD010E947C
:1022F0009F45DC01CB01BC01CD012BE734E14EEE63
:102300005FE30E94B143DC01CB01BC01CD0120E0C1
:1023100030E04CE052E40E948A42DC01CB01898328
:102320009A83AB83BC83E9E8F0E0108208E810E010
:1023300069817A818B819C810E94E140DC01CB0123
:10234000F80180830F900F900F900F900F90CF9116
:10235000DF911F910F9108950F931F93DF93CF93F8
:1023600000D00F920F92CDB7DEB78D8380E090E062
:10237000A0E0B0E089839A83AB83BC838D81882FF2
:1023800090E0A0E0B0E0BC01CD010E949F45DC01DF
:10239000CB01BC01CD012BE734E14EEE5FE30E949F
:1023A000B143DC01CB01BC01CD0120E030E04CE0C9
:1023B00052E40E948A42DC01CB0189839A83AB8379
:1023C000BC83EBE8F0E010820AE810E069817A81D2
:1023D0008B819C810E94E140DC01CB01F80180836C
:1023E0000F900F900F900F900F90CF91DF911F9152
:1023F0000F9108950F931F93DF93CF9300D00F9207
:102400000F92CDB7DEB78D8380E090E0A0E0B0E022
:1024100089839A83AB83BC838D81882F90E0A0E071
:10242000B0E0BC01CD010E949F45DC01CB01BC01A5
:10243000CD012BE734E14EEE5FE30E94B143DC01B6
:10244000CB01BC01CD0120E030E04CE052E40E9421
:102450008A42DC01CB0189839A83AB83BC83EDE89C
:10246000F0E010820CE810E069817A818B819C8118
:102470000E94E140DC01CB01F80180830F900F90B6
:102480000F900F900F90CF91DF911F910F910895B2
:10249000DF93CF93CDB7DEB7E9E8F0E083E0808348
:1024A000E8E8F0E08FEF8083CF91DF910895DF932C
:1024B000CF93CDB7DEB7EBE8F0E083E08083EAE8C6
:1024C000F0E08FEF8083CF91DF910895DF93CF937A
:1024D000CDB7DEB7EDE8F0E083E08083ECE8F0E034
:1024E0008FEF8083CF91DF910895DF93CF93CDB7A6
:1024F000DEB784EB0E94FA11CF91DF910895DF934C
:10250000CF93CDB7DEB782E00E94FA11CF91DF9171
:102510000895DF93CF93CDB7DEB78AE50E94FA1115
:10252000CF91DF910895DF93CF93CDB7DEB787E3E7
:102530000E945E11CF91DF910895DF93CF93CDB7C5
:10254000DEB78AEA0E945E11CF91DF910895DF9392
:10255000CF93CDB7DEB78AE50E945E11CF91DF91B0
:102560000895DF93CF93CDB7DEB78EE10E945E1161
:10257000CF91DF9108950F931F93DF93CF93CDB742
:10258000DEB7C659D0400FB6F894DEBF0FBECDBF40
:10259000FE01EF57FF4F11821082FE01E158FF4FFD
:1025A00011821082F8940E9407070E9454010E9431
:1025B000B2060E94511178940E9475120E949D12D9
:1025C000FE01E558FF4F80E090E0AAEFB3E480837E
:1025D0009183A283B3838E0109581F4FFE01E558F2
:1025E000FF4F608171818281938126E636E646E65F
:1025F00055E40E94B742DC01CB01F801808391834E
:10260000A283B383FE01E958FF4F6081718182810B
:10261000938120E030E040E85FE30E94BD448823DE
:1026200044F4FE01EB58FF4F81E090E091838083FA
:1026300064C0FE01E958FF4F6081718182819381FE
:1026400020E03FEF4FE757E40E945D4418160CF07E
:1026500043C0FE01E558FF4F608171818281938103
:1026600020E030E040E251E40E94B742DC01CB01BF
:102670008E010B581F4FBC01CD010E94E140DC01CF
:10268000CB01F801918380831FC0FE01ED58FF4FFD
:1026900080E791E091838083FE01ED58FF4F8081B8
:1026A00091810197F1F7FE01ED58FF4F91838083EF
:1026B000DE01AB58BF4FFE01EB58FF4F8081918187
:1026C000019711969C938E93FE01EB58FF4F8081EA
:1026D00091810097D1F627C08E010B581F4FFE0144
:1026E000E958FF4F60817181828193810E94E140AE
:1026F000DC01CB01F80191838083DE01AF58BF4F2D
:10270000FE01EB58FF4F808191818D939C93FE01D8
:10271000EF58FF4F808191810197F1F7FE01EF584B
:10272000FF4F91838083E4E0F1E08FEF8083AAE0A4
:10273000B1E0EAE0F1E0808180648C93109225039F
:102740001092240386E090E090934903809348031D
:10275000109227031092260310921D0310921C035F
:1027600084EB64EB0E94C4008EE190E00E94951E11
:1027700081E090E00E94D8348EE190E00E94951EA6
:102780000E94F901E8C40E94702BFE01EF57FF4F31
:1027900091838083FE01EF57FF4F808191810097E5
:1027A00069F484EB90E090931F0380931E0384EB05
:1027B00090E09093310380933003FBC3FE01EF5709
:1027C000FF4F808191818130910569F488EC90E020
:1027D00090931F0380931E0380EA90E0909331034F
:1027E00080933003E6C3FE01EF57FF4F8081918154
:1027F000FFEF8F3F9F0769F480EA90E090931F03FB
:1028000080931E0388EC90E0909331038093300313
:10281000D0C3FE01EF57FF4F80819181843691052F
:1028200009F0C5C3FE01E158FF4FDE01AF57BF4FAE
:10283000208131818D919C9111972817390709F4D6
:10284000B8C3109219031092180380912403909139
:102850002503CB56DF4F99838883C559D040CB568B
:10286000DF4FE881F981C559D040E430F10509F422
:10287000C6C2CB56DF4F88819981C559D04085307B
:10288000910594F5CB56DF4FE881F981C559D040C9
:10289000E130F10509F484C2CB56DF4F888199817C
:1028A000C559D0408230910554F4CB56DF4FE881B2
:1028B000F981C559D040309709F43FC04BC3CB567E
:1028C000DF4F88819981C559D0408230910509F444
:1028D0007AC2CB56DF4FE881F981C559D040E33049
:1028E000F10509F47EC236C3CB56DF4F888199814A
:1028F000C559D0408630910509F4EEC2CB56DF4F62
:10290000E881F981C559D040E630F1050CF4D1C217
:10291000CB56DF4F88819981C559D04087309105CA
:1029200009F4E8C2CB56DF4FE881F981C559D040A0
:10293000E830F10509F4ECC20DC380914803909191
:102940004903009709F0D6C00E943E230E94B112AD
:10295000FE01E359FF4F80E090E0AAEFB3E48083EB
:102960009183A283B3838E0107591F4FFE01E35960
:10297000FF4F608171818281938126E636E646E6CB
:1029800055E40E94B742DC01CB01F80180839183BA
:10299000A283B383FE01E759FF4F60817181828179
:1029A000938120E030E040E85FE30E94BD4488234B
:1029B00044F4FE01E959FF4F81E090E09183808368
:1029C00064C0FE01E759FF4F60817181828193816C
:1029D00020E03FEF4FE757E40E945D4418160CF0EB
:1029E00043C0FE01E359FF4F608171818281938171
:1029F00020E030E040E251E40E94B742DC01CB012C
:102A00008E0109591F4FBC01CD010E94E140DC013C
:102A1000CB01F801918380831FC0FE01EB59FF4F6A
:102A200080E791E091838083FE01EB59FF4F808125
:102A300091810197F1F7FE01EB59FF4F918380835C
:102A4000DE01A959BF4FFE01E959FF4F80819181F5
:102A5000019711969C938E93FE01E959FF4F808157
:102A600091810097D1F627C08E0109591F4FFE01B1
:102A7000E759FF4F60817181828193810E94E1401B
:102A8000DC01CB01F80191838083DE01AD59BF4F9A
:102A9000FE01E959FF4F808191818D939C93FE0146
:102AA000ED59FF4F808191810197F1F7FE01ED59BA
:102AB000FF4F918380831092270310922603109278
:102AC0001B0310921A03109219031092180384E149
:102AD00090E00E94951E82E090E00E94D8340E940F
:102AE00095060E94BB3F81E090E090931D03809388
:102AF0001C0353C180914803909149038230910592
:102B000009F046C00E943E230E94262CCD56DF4F7E
:102B100099838883C359D040CD56DF4F88819981EE
:102B2000C359D0408130910591F0CD56DF4FE881F7
:102B3000F981C359D040E230F105D1F0CD56DF4FD5
:102B400088819981C359D0400097C9F026C184E09B
:102B500090E090932503809324030E944C380E94B8
:102B6000F02089E090E0909325038093240315C121
:102B700085E090E090932503809324030EC10E948A
:102B8000F02089E090E0909325038093240305C111
:102B90000E94411F0E94262CCF56DF4F99838883C5
:102BA000C159D040CF56DF4FE881F981C159D0409B
:102BB000E130F105A1F0CF56DF4F88819981C159ED
:102BC000D0408230910509F474C0CF56DF4FE881C0
:102BD000F981C159D040309709F472C0DEC00E941B
:102BE0004C380E94C42984E090E0909325038093A0
:102BF00024030E94262CC157DF4F99838883CF5826
:102C0000D040C157DF4F88819981CF58D040813063
:102C1000910591F0C157DF4FE881F981CF58D0403D
:102C2000E230F10531F1C157DF4F88819981CF58EA
:102C3000D040009729F1B1C0809148039091490399
:102C40008130910559F40E944C380E94ED2489E0AE
:102C500090E090932503809324039FC00E944C38FA
:102C60000E94F02089E090E0909325038093240354
:102C700094C085E090E090932503809324038DC059
:102C800080914803909149038130910549F40E9455
:102C9000ED2489E090E090932503809324037DC088
:102CA0000E94F02089E090E0909325038093240314
:102CB00074C081E090E090932503809324036DC05D
:102CC00084E090E090932503809324030E94C4291C
:102CD0000E94262CC357DF4F99838883CD58D0405C
:102CE000C357DF4FE881F981CD58D040E130F1057D
:102CF00091F0C357DF4F88819981CD58D040823001
:102D0000910561F1C357DF4FE881F981CD58D0407B
:102D1000309759F142C086E090E00E94951E0E94D3
:102D2000950680914803909149038130910559F4AB
:102D30000E944C380E94ED2489E090E09093250396
:102D4000809324032AC00E944C380E94F02089E01E
:102D500090E090932503809324031FC085E090E0CA
:102D6000909325038093240318C080914803909189
:102D700049038130910549F40E94ED2489E090E0F7
:102D8000909325038093240308C00E94F02089E0DB
:102D900090E090932503809324030E94F901DAC008
:102DA00082E490E00E94951E0E9495060E944C3895
:102DB0000E94C42984E090E090932503809324032B
:102DC0000E94F901C7C00E94C4290E94F9018091A4
:102DD0002403909125030196909325038093240367
:102DE000B9C00E94652B0E94F90180912403909143
:102DF000250301969093250380932403ABC08CE3B5
:102E000090E00E94951E0E9495060E94262CC557B0
:102E1000DF4F99838883CB58D040C557DF4F8881D7
:102E20009981CB58D0408130910591F0C557DF4F43
:102E3000E881F981CB58D040E230F105F1F0C55777
:102E4000DF4F88819981CB58D0400097E9F02EC0A0
:102E50000E944C388091480390914903813091053C
:102E600019F40E94ED2402C00E94F02089E090E055
:102E7000909325038093240319C085E090E09093FC
:102E800025038093240312C0809148039091490345
:102E90008130910519F40E94ED2402C00E94F020B7
:102EA00089E090E090932503809324030E94F90128
:102EB00051C08CE490E00E94951E0E9495060E94ED
:102EC0004C380E94C42988E090E0909325038093B9
:102ED00024030E94F9013EC00E94C4290E94F90106
:102EE000809124039091250301969093250380936C
:102EF000240330C00E94652B0E94F90180912403B5
:102F0000909125030196909325038093240322C07A
:102F100080914803909149038130910571F40E949A
:102F2000411F0E94F901809124039091250301968D
:102F300090932503809324030DC00E943E230E949A
:102F4000F901809124039091250301969093250324
:102F50008093240380912403909125038930910567
:102F600041F510922503109224038091480390911B
:102F700049030197909349038093480384EB64EBE2
:102F80000E94C4000E94F901809148039091490376
:102F90008130910539F481E090E09093270380938C
:102FA000260307C0109227031092260302C00E9436
:102FB0005732DE01A158BF4FFE01EF57FF4F80810E
:102FC000918111969C938E9380911A0390911B038B
:102FD0008130910509F0BFC00E949506FE01E15ABB
:102FE000FF4F80E090E0A8ECB2E480839183A2835D
:102FF000B3838E01055A1F4FFE01E15AFF4F6081D6
:1030000071818281938126E636E646E655E40E9488
:10301000B742DC01CB01F80180839183A283B383A3
:10302000FE01E55AFF4F608171818281938120E02A
:1030300030E040E85FE30E94BD44882344F4FE0191
:10304000E75AFF4F81E090E09183808364C0FE01E6
:10305000E55AFF4F608171818281938120E03FEFCB
:103060004FE757E40E945D4418160CF043C0FE0180
:10307000E15AFF4F608171818281938120E030E0CD
:1030800040E251E40E94B742DC01CB018E01075AB5
:103090001F4FBC01CD010E94E140DC01CB01F801D2
:1030A000918380831FC0FE01E95AFF4F80E791E0C2
:1030B00091838083FE01E95AFF4F808191810197BE
:1030C000F1F7FE01E95AFF4F91838083DE01A75A91
:1030D000BF4FFE01E75AFF4F808191810197119602
:1030E0009C938E93FE01E75AFF4F80819181009758
:1030F000D1F627C08E01075A1F4FFE01E55AFF4F38
:1031000060817181828193810E94E140DC01CB0169
:10311000F80191838083DE01AB5ABF4FFE01E75A6D
:10312000FF4F808191818D939C93FE01EB5AFF4F5D
:10313000808191810197F1F7FE01EB5AFF4F918356
:1031400080830E94E23310921B0310921A031092A4
:1031500019031092180380911C0390911D0300978E
:1031600009F411CB80914803909149039C0181E0BF
:1031700061E0A90121E030E00E94E40F0E94F43CEC
:1031800090934903809348030E9495060E94BB3F99
:103190000E949D12FE01EF5AFF4F80E090E0AAEFDF
:1031A000B3E480839183A283B3838E01035B1F4FBB
:1031B000FE01EF5AFF4F608171818281938126E683
:1031C00036E646E655E40E94B742DC01CB01F80141
:1031D00080839183A283B383FE01E35BFF4F608111
:1031E00071818281938120E030E040E85FE30E94BA
:1031F000BD44882344F4FE01E55BFF4F81E090E08D
:103200009183808364C0FE01E35BFF4F6081718125
:103210008281938120E03FEF4FE757E40E945D44B5
:1032200018160CF043C0FE01EF5AFF4F6081718108
:103230008281938120E030E040E251E40E94B74275
:10324000DC01CB018E01055B1F4FBC01CD010E944B
:10325000E140DC01CB01F801918380831FC0FE01B6
:10326000E75BFF4F80E791E091838083FE01E75B9E
:10327000FF4F808191810197F1F7FE01E75BFF4FDE
:1032800091838083DE01A55BBF4FFE01E55BFF4FAD
:1032900080819181019711969C938E93FE01E55B4D
:1032A000FF4F808191810097D1F627C08E01055B89
:1032B0001F4FFE01E35BFF4F60817181828193812B
:1032C0000E94E140DC01CB01F80191838083DE01A3
:1032D000A95BBF4FFE01E55BFF4F808191818D931C
:1032E0009C93FE01E95BFF4F808191810197F1F78B
:1032F000FE01E95BFF4F918380830E94260C809141
:103300004803909149039C0181E061E0A90121E01B
:1033100030E00E94E40FFE01EF57FF4F1182108250
:10332000FE01E158FF4F1182108210924703109264
:103330004603109227031092260310921B0310924B
:103340001A03109219031092180380914803909168
:10335000490386309105FCF40E94411F84E190E00E
:103360000E94951E209148033091490386E090E029
:10337000821B930B0E94D8340E943E2381E090E090
:10338000909325038093240386E090E09093490373
:103390008093480306C086E490E00E94951E0E9438
:1033A00095060E94262CC757DF4F99838883C958FA
:1033B000D040C757DF4F88819981C958D0408130AC
:1033C000910591F0C757DF4FE881F981C958D04086
:1033D000E230F10541F1C757DF4F88819981C95823
:1033E000D040009749F199C40E946E2E0E94ED24AE
:1033F000109225031092240385E090E090934903F6
:103400008093480380914803909149030197880F66
:10341000991FFC01EC5CFC4F81E090E0918380837C
:103420000E94F9017AC481E090E090932503809393
:1034300024030E94F90171C481E090E09093250378
:10344000809324030E94F90168C40E94702BFE013E
:10345000EF57FF4F91838083FE01EF57FF4F80812D
:103460009181009769F484EB90E090931F0380931F
:103470001E0384EB90E09093310380933003BCC330
:10348000FE01EF57FF4F808191818130910569F4F2
:1034900088EC90E090931F0380931E0380EA90E0F5
:1034A0009093310380933003A7C3FE01EF57FF4F82
:1034B00080819181EFEF8F3F9E0769F480EA90E071
:1034C00090931F0380931E0388EC90E09093310348
:1034D0008093300391C3FE01EF57FF4F80819181AC
:1034E0008436910509F086C3FE01EF57FF4FDE01D8
:1034F000A158BF4F208131818D919C911197281740
:10350000390709F479C310921903109218038091B6
:10351000240390912503C957DF4F99838883C758A7
:10352000D040C957DF4FE881F981C758D040E23019
:10353000F10509F402C2C957DF4F88819981C75844
:10354000D040833091059CF4C957DF4FE881F98161
:10355000C758D040309701F1C957DF4F8881998112
:10356000C758D0408130910509F472C00CC3C957C7
:10357000DF4FE881F981C758D040E330F10509F405
:1035800073C2C957DF4F88819981C758D0408430B2
:10359000910509F470C2F7C20E94411F0E94262CB7
:1035A000CB57DF4F99838883C558D040CB57DF4F27
:1035B000E881F981C558D040E130F10591F0CB5751
:1035C000DF4F88819981C558D0408230910571F1D3
:1035D000CB57DF4FE881F981C558D040309779F15A
:1035E000D2C20E946E2E85E090E0909325038093D6
:1035F000240380914803909149038130910519F487
:103600000E94F02002C00E94ED240E94F9018091E6
:103610004803909149030197880F991FFC01EC5CC6
:10362000FC4F81E090E091838083ADC281E090E027
:1036300090932503809324030E94F901A4C281E0A2
:1036400090E090932503809324030E94F9019BC28C
:103650008BE490E00E94951E0E9495060E94262C05
:10366000CD57DF4F99838883C358D040CD57DF4F64
:1036700088819981C358D04081309105A1F0CD5700
:10368000DF4FE881F981C358D040E230F10509F4F9
:10369000AEC0CD57DF4F88819981C358D040009785
:1036A00009F4AEC070C20E946E2E84E090E0909348
:1036B0002503809324030E94C4290E9495060E943A
:1036C000B112FE01ED5BFF4F80E090E0AAEFB3E4A2
:1036D00080839183A283B3838E01015C1F4FFE011F
:1036E000ED5BFF4F608171818281938126E636E632
:1036F00046E655E40E94B742DC01CB01F801808325
:103700009183A283B383FE01FF96608171818281E0
:10371000938120E030E040E85FE30E94BD448823CD
:103720002CF481E090E09EAF8DAF46C0FE01FF9685
:10373000608171818281938120E03FEF4FE757E400
:103740000E945D44181664F5FE01ED5BFF4F608139
:1037500071818281938120E030E040E251E40E9457
:10376000B742DC01CB01BC01CD010E94E140DC018C
:10377000CB019EAF8DAF0FC080E791E09CAF8BAFC8
:103780008BAD9CAD0197F1F79CAF8BAF8DAD9EAD2E
:1037900001979EAF8DAF8DAD9EAD009769F716C0B6
:1037A000FE01FF9660817181828193810E94E140D8
:1037B000DC01CB019EAF8DAF8DAD9EAD9AAF89AFD1
:1037C00089AD9AAD0197F1F79AAF89AF809148031F
:1037D000909149030197880F991FFC01EC5CFC4F05
:1037E00082E090E0918380830E94F901CCC182E065
:1037F00090E090932503809324030E94F901C3C1B4
:10380000809148039091490381309105A9F481E0AA
:1038100090E090932703809326030E94BB3F84E1AE
:1038200090E00E94951E82E090E00E94D8340E94B1
:103830004E400E949506FFCF84E090E090932503D0
:10384000809324030E94C4290E9495060E94B1120D
:1038500080E090E0AAE7B4E48DAB9EABAFABB8AF2D
:103860006DA97EA98FA998AD26E636E646E655E411
:103870000E94B742DC01CB0189AB9AABABABBCABCE
:1038800069A97AA98BA99CA920E030E040E85FE310
:103890000E94BD4488232CF481E090E098AB8FA770
:1038A0003FC069A97AA98BA99CA920E03FEF4FE707
:1038B00057E40E945D4418164CF56DA97EA98FA9A6
:1038C00098AD20E030E040E251E40E94B742DC01D4
:1038D000CB01BC01CD010E94E140DC01CB0198ABE2
:1038E0008FA70FC080E791E09EA78DA78DA59EA50D
:1038F0000197F1F79EA78DA78FA598A9019798AB7F
:103900008FA78FA598A9009769F714C069A97AA90C
:103910008BA99CA90E94E140DC01CB0198AB8FA749
:103920008FA598A99CA78BA78BA59CA50197F1F7BC
:103930009CA78BA70E94F90126C18BE490E00E940E
:10394000951E0E9495060E946E2E809148039091CC
:1039500049030197880F991FFC01EC5CFC4F83E041
:1039600090E0918380830E94C42983E090E090934B
:103970002503809324030E9495060E94B11280E0E3
:1039800090E0AAEFB3E48FA398A7A9A7BAA76FA165
:1039900078A589A59AA526E636E646E655E40E946E
:1039A000B742DC01CB018BA39CA3ADA3BEA36BA14B
:1039B0007CA18DA19EA120E030E040E85FE30E9461
:1039C000BD4488232CF481E090E09AA389A33FC0F2
:1039D0006BA17CA18DA19EA120E03FEF4FE757E4B2
:1039E0000E945D4418164CF56FA178A589A59AA58B
:1039F00020E030E040E251E40E94B742DC01CB011C
:103A0000BC01CD010E94E140DC01CB019AA389A356
:103A10000FC080E791E098A38F8F8F8D98A10197B9
:103A2000F1F798A38F8F89A19AA101979AA389A3EF
:103A300089A19AA1009769F714C06BA17CA18DA1FF
:103A40009EA10E94E140DC01CB019AA389A389A138
:103A50009AA19E8F8D8F8D8D9E8D0197F1F79E8FF0
:103A60008D8F0E94F9018FC084E090E09093250330
:103A70008093240388C0809148039091490381304A
:103A8000910519F40E948A2602C00E9417220E9402
:103A90009D1280E090E0AAEFB3E4898F9A8FAB8FFC
:103AA000BC8F698D7A8D8B8D9C8D26E636E646E639
:103AB00055E40E94B742DC01CB018D8B9E8BAF8B0E
:103AC000B88F6D897E898F89988D20E030E040E83D
:103AD0005FE30E94BD4488232CF481E090E09C8B3E
:103AE0008B8B3FC06D897E898F89988D20E03FEF59
:103AF0004FE757E40E945D4418164CF5698D7A8DA6
:103B00008B8D9C8D20E030E040E251E40E94B74272
:103B1000DC01CB01BC01CD010E94E140DC01CB0105
:103B20009C8B8B8B0FC080E791E09A8B898B898966
:103B30009A890197F1F79A8B898B8B899C890197D8
:103B40009C8B8B8B8B899C89009769F714C06D893E
:103B50007E898F89988D0E94E140DC01CB019C8B8E
:103B60008B8B8B899C89988B8F878F859889019700
:103B7000F1F7988B8F8785E090E0909325038093F1
:103B800024030E94F901809124039091250385303C
:103B9000910569F410922503109224038091480343
:103BA0009091490301979093490380934803809132
:103BB0004803909149038130910539F481E090E008
:103BC000909327038093260304C01092270310923A
:103BD00026038091480390914903009769F40E945D
:103BE000BB3F0E94043681E090E0909347038093AE
:103BF000460302C00E945732DE01A158BF4FFE01AA
:103C0000EF57FF4F8081918111969C938E93809105
:103C10001A0390911B038130910509F07EC00E9428
:103C2000950680E090E0A8ECB2E48B879C87AD8796
:103C3000BE876B857C858D859E8526E636E646E6C5
:103C400055E40E94B742DC01CB018F839887A98796
:103C5000BA876F81788589859A8520E030E040E8D1
:103C60005FE30E94BD4488232CF481E090E09E83B2
:103C70008D833FC06F81788589859A8520E03FEFED
:103C80004FE757E40E945D4418164CF56B857C8520
:103C90008D859E8520E030E040E251E40E94B742ED
:103CA000DC01CB01BC01CD010E94E140DC01CB0174
:103CB0009E838D830FC080E791E09C838B838B81F3
:103CC0009C810197F1F79C838B838D819E81019765
:103CD0009E838D838D819E81009769F714C06F81CB
:103CE000788589859A850E94E140DC01CB019E831D
:103CF0008D838D819E819A83898389819A810197A1
:103D0000F1F79A8389830E94E23310921B03109289
:103D10001A03109219031092180380914603909190
:103D20004703009709F491CBFFCFDF93CF9300D0E7
:103D300000D0CDB7DEB79E838D838D819E81AA276B
:103D400097FDA095BA2FBC01CD010E94ED44DC0186
:103D5000CB01BC01CD0125EE30ED4AEA50E40E94D2
:103D6000B143DC01CB01BC01CD010E944B45DC011C
:103D7000CB019C838B831A821982109210031092BC
:103D8000110310921203109213030E94F90146C00E
:103D90000E94702B9A83898389819A81009769F4A4
:103DA00084EB90E090931F0380931E0384EB90E0DC
:103DB000909331038093300331C089819A8181309F
:103DC000910569F488EC90E090931F0380931E03A3
:103DD00080EA90E090933103809330031FC0898183
:103DE0009A812FEF8F3F920769F480EA90E09093D9
:103DF0001F0380931E0388EC90E09093310380931F
:103E000030030CC089819A818436910529F484EBB2
:103E100064EB0E94C40002C00E9457328B819C81D7
:103E20009C01442737FD4095542F809110039091B9
:103E30001103A0911203B091130382179307A407F3
:103E4000B50708F4A5CF8B819C819C01442737FDE1
:103E50004095542F8091140390911503A09116035F
:103E6000B091170382179307A407B50708F490CF02
:103E700026960FB6F894DEBF0FBECDBFCF91DF916F
:103E80000895DF93CF93CDB7DEB7AA970FB6F89416
:103E9000DEBF0FBECDBF84EB64EB0E94C4008091F7
:103EA0002603909127038130910529F48CE390E05B
:103EB0000E94030204C08CE390E00E94951E0E94C1
:103EC0009506109201021092000280E090E0A8ECAA
:103ED000B2E48FA398A7A9A7BAA76FA178A589A5CF
:103EE0009AA526E636E646E655E40E94B742DC018E
:103EF000CB018BA39CA3ADA3BEA36BA17CA18DA181
:103F00009EA120E030E040E85FE30E94BD448823AA
:103F10002CF481E090E09AA389A33FC06BA17CA11F
:103F20008DA19EA120E03FEF4FE757E40E945D4442
:103F300018164CF56FA178A589A59AA520E030E068
:103F400040E251E40E94B742DC01CB01BC01CD014B
:103F50000E94E140DC01CB019AA389A30FC080E756
:103F600091E098A38F8F8F8D98A10197F1F798A377
:103F70008F8F89A19AA101979AA389A389A19AA158
:103F8000009769F714C06BA17CA18DA19EA10E942E
:103F9000E140DC01CB019AA389A389A19AA19E8F5C
:103FA0008D8F8D8D9E8D0197F1F79E8F8D8F84EB78
:103FB00064EB0E94C4000E94050380E090E0AAE741
:103FC000B4E4898F9A8FAB8FBC8F698D7A8D8B8D7E
:103FD0009C8D26E636E646E655E40E94B742DC01B3
:103FE000CB018D8B9E8BAF8BB88F6D897E898F892E
:103FF000988D20E030E040E85FE30E94BD448823D4
:104000002CF481E090E09C8B8B8B3FC06D897E8986
:104010008F89988D20E03FEF4FE757E40E945D4481
:1040200018164CF5698D7A8D8B8D9C8D20E030E0D3
:1040300040E251E40E94B742DC01CB01BC01CD015A
:104040000E94E140DC01CB019C8B8B8B0FC080E791
:1040500091E09A8B898B89899A890197F1F79A8BDC
:10406000898B8B899C8901979C8B8B8B8B899C89F5
:10407000009769F714C06D897E898F89988D0E9499
:10408000E140DC01CB019C8B8B8B8B899C89988BCD
:104090008F878F8598890197F1F7988B8F8782E0BA
:1040A0000E94CD06882F90E090932F0380932E03DB
:1040B00009C082E00E94CD06882F90E090932F03E4
:1040C00080932E0320912E0330912F0380910202C2
:1040D000909103022817390764F30E94950680E047
:1040E00090E0A8ECB2E48B879C87AD87BE876B8598
:1040F0007C858D859E8526E636E646E655E40E945B
:10410000B742DC01CB018F839887A987BA876F817B
:10411000788589859A8520E030E040E85FE30E9459
:10412000BD4488232CF481E090E09E838D833FC0C2
:104130006F81788589859A8520E03FEF4FE757E4C6
:104140000E945D4418164CF56B857C858D859E8597
:1041500020E030E040E251E40E94B742DC01CB01B4
:10416000BC01CD010E94E140DC01CB019E838D8327
:104170000FC080E791E09C838B838B819C810197AA
:10418000F1F79C838B838D819E8101979E838D8324
:104190008D819E81009769F714C06F81788589852C
:1041A0009A850E94E140DC01CB019E838D838D8145
:1041B0009E819A83898389819A810197F1F79A83F5
:1041C000898381E090E09093010280930002AA9697
:1041D0000FB6F894DEBF0FBECDBFCF91DF9108952B
:1041E000DF93CF93CDB7DEB76C970FB6F894DEBFF1
:1041F0000FBECDBF109201021092000280EA60EA69
:104200000E94C4000E94050380E090E0AAE7B4E4A5
:10421000898F9A8FAB8FBC8F698D7A8D8B8D9C8D9A
:1042200026E636E646E655E40E94B742DC01CB01BD
:104230008D8B9E8BAF8BB88F6D897E898F89988D82
:1042400020E030E040E85FE30E94BD4488232CF486
:1042500081E090E09C8B8B8B3FC06D897E898F893C
:10426000988D20E03FEF4FE757E40E945D44181619
:104270004CF5698D7A8D8B8D9C8D20E030E040E28D
:1042800051E40E94B742DC01CB01BC01CD010E9488
:10429000E140DC01CB019C8B8B8B0FC080E791E070
:1042A0009A8B898B89899A890197F1F79A8B898BE7
:1042B0008B899C8901979C8B8B8B8B899C89009720
:1042C00069F714C06D897E898F89988D0E94E140BD
:1042D000DC01CB019C8B8B8B8B899C89988B8F8786
:1042E0008F8598890197F1F7988B8F8782E00E94DC
:1042F000CD06882F90E090932F0380932E0309C062
:1043000082E00E94CD06882F90E090932F03809347
:104310002E0320912E0330912F0380910202909161
:1043200003022817390764F30E94950680E090E0A5
:10433000A8ECB2E48B879C87AD87BE876B857C85B4
:104340008D859E8526E636E646E655E40E94B74210
:10435000DC01CB018F839887A987BA876F81788525
:1043600089859A8520E030E040E85FE30E94BD4403
:1043700088232CF481E090E09E838D833FC06F8181
:10438000788589859A8520E03FEF4FE757E40E94C2
:104390005D4418164CF56B857C858D859E8520E0E7
:1043A00030E040E251E40E94B742DC01CB01BC01A5
:1043B000CD010E94E140DC01CB019E838D830FC0C3
:1043C00080E791E09C838B838B819C810197F1F73F
:1043D0009C838B838D819E8101979E838D838D81AC
:1043E0009E81009769F714C06F81788589859A85C9
:1043F0000E94E140DC01CB019E838D838D819E81F3
:104400009A83898389819A810197F1F79A838983B5
:1044100081E090E090930102809300026C960FB6C9
:10442000F894DEBF0FBECDBFCF91DF910895DF932B
:10443000CF93CDB7DEB76C970FB6F894DEBF0FBE43
:10444000CDBF109201021092000282ED62ED0E9437
:10445000C4000E942D0480E090E0AAE7B4E4898FB4
:104460009A8FAB8FBC8F698D7A8D8B8D9C8D26E654
:1044700036E646E655E40E94B742DC01CB018D8B5F
:104480009E8BAF8BB88F6D897E898F89988D20E048
:1044900030E040E85FE30E94BD4488232CF481E0D3
:1044A00090E09C8B8B8B3FC06D897E898F89988D26
:1044B00020E03FEF4FE757E40E945D4418164CF5AB
:1044C000698D7A8D8B8D9C8D20E030E040E251E447
:1044D0000E94B742DC01CB01BC01CD010E94E1404A
:1044E000DC01CB019C8B8B8B0FC080E791E09A8B1A
:1044F000898B89899A890197F1F79A8B898B8B89A6
:104500009C8901979C8B8B8B8B899C89009769F781
:1045100014C06D897E898F89988D0E94E140DC01ED
:10452000CB019C8B8B8B8B899C89988B8F878F85FC
:1045300098890197F1F7988B8F8782E00E94CD06CA
:10454000882F90E090932F0380932E0309C082E080
:104550000E94CD06882F90E090932F0380932E0326
:1045600020912E0330912F0380910202909103023B
:104570002817390764F30E94950680E090E0A8ECC4
:10458000B2E48B879C87AD87BE876B857C858D85E4
:104590009E8526E636E646E655E40E94B742DC01F3
:1045A000CB018F839887A987BA876F8178858985A2
:1045B0009A8520E030E040E85FE30E94BD44882314
:1045C0002CF481E090E09E838D833FC06F817885DD
:1045D00089859A8520E03FEF4FE757E40E945D44CC
:1045E00018164CF56B857C858D859E8520E030E026
:1045F00040E251E40E94B742DC01CB01BC01CD0195
:104600000E94E140DC01CB019E838D830FC080E7D7
:1046100091E09C838B838B819C810197F1F79C8334
:104620008B838D819E8101979E838D838D819E8159
:10463000009769F714C06F81788589859A850E94F3
:10464000E140DC01CB019E838D838D819E819A8325
:10465000898389819A810197F1F79A83898381E01F
:1046600090E090930102809300026C960FB6F8944C
:10467000DEBF0FBECDBFCF91DF910895DF93CF9303
:10468000CDB7DEB7AA970FB6F894DEBF0FBECDBF89
:1046900080EA60EA0E94C40080912603909127037B
:1046A0008130910529F48CE390E00E94030204C05C
:1046B0008CE390E00E94951E0E94950610920102E4
:1046C0001092000280E090E0A8ECB2E48FA398A7DB
:1046D000A9A7BAA76FA178A589A59AA526E636E667
:1046E00046E655E40E94B742DC01CB018BA39CA3B4
:1046F000ADA3BEA36BA17CA18DA19EA120E030E063
:1047000040E85FE30E94BD4488232CF481E090E000
:104710009AA389A33FC06BA17CA18DA19EA120E09B
:104720003FEF4FE757E40E945D4418164CF56FA128
:1047300078A589A59AA520E030E040E251E40E94E6
:10474000B742DC01CB01BC01CD010E94E140DC019C
:10475000CB019AA389A30FC080E791E098A38F8F24
:104760008F8D98A10197F1F798A38F8F89A19AA1B6
:1047700001979AA389A389A19AA1009769F714C008
:104780006BA17CA18DA19EA10E94E140DC01CB0127
:104790009AA389A389A19AA19E8F8D8F8D8D9E8DBD
:1047A0000197F1F79E8F8D8F80EA60EA0E94C40026
:1047B0000E94990380E090E0AAE7B4E4898F9A8F81
:1047C000AB8FBC8F698D7A8D8B8D9C8D26E636E6FE
:1047D00046E655E40E94B742DC01CB018D8B9E8BEF
:1047E000AF8BB88F6D897E898F89988D20E030E0FE
:1047F00040E85FE30E94BD4488232CF481E090E010
:104800009C8B8B8B3FC06D897E898F89988D20E032
:104810003FEF4FE757E40E945D4418164CF5698D51
:104820007A8D8B8D9C8D20E030E040E251E40E9437
:10483000B742DC01CB01BC01CD010E94E140DC01AB
:10484000CB019C8B8B8B0FC080E791E09A8B898B7F
:1048500089899A890197F1F79A8B898B8B899C8931
:1048600001979C8B8B8B8B899C89009769F714C06F
:104870006D897E898F89988D0E94E140DC01CB0192
:104880009C8B8B8B8B899C89988B8F878F85988944
:104890000197F1F7988B8F8782E00E94CD06882FD1
:1048A00090E090932F0380932E0309C082E00E9432
:1048B000CD06882F90E090932F0380932E032091B4
:1048C0002E0330912F03809102029091030228174A
:1048D000390764F30E94950680E090E0A8ECB2E40A
:1048E0008B879C87AD87BE876B857C858D859E85F4
:1048F00026E636E646E655E40E94B742DC01CB01E7
:104900008F839887A987BA876F81788589859A85EB
:1049100020E030E040E85FE30E94BD4488232CF4AF
:1049200081E090E09E838D833FC06F81788589858B
:104930009A8520E03FEF4FE757E40E945D44181648
:104940004CF56B857C858D859E8520E030E040E2CE
:1049500051E40E94B742DC01CB01BC01CD010E94B1
:10496000E140DC01CB019E838D830FC080E791E0A5
:104970009C838B838B819C810197F1F79C838B8334
:104980008D819E8101979E838D838D819E8100976D
:1049900069F714C06F81788589859A850E94E14006
:1049A000DC01CB019E838D838D819E819A838983D7
:1049B00089819A810197F1F79A83898381E090E058
:1049C0009093010280930002AA960FB6F894DEBF7E
:1049D0000FBECDBFCF91DF910895DF93CF93CDB7B9
:1049E000DEB7AA970FB6F894DEBF0FBECDBF80EA40
:1049F00060EA0E94C400109201021092000280E05E
:104A000090E0A8ECB2E48FA398A7A9A7BAA76FA1DA
:104A100078A589A59AA526E636E646E655E40E94DD
:104A2000B742DC01CB018BA39CA3ADA3BEA36BA1BA
:104A30007CA18DA19EA120E030E040E85FE30E94D0
:104A4000BD4488232CF481E090E09AA389A33FC061
:104A50006BA17CA18DA19EA120E03FEF4FE757E421
:104A60000E945D4418164CF56FA178A589A59AA5FA
:104A700020E030E040E251E40E94B742DC01CB018B
:104A8000BC01CD010E94E140DC01CB019AA389A3C6
:104A90000FC080E791E098A38F8F8F8D98A1019729
:104AA000F1F798A38F8F89A19AA101979AA389A35F
:104AB00089A19AA1009769F714C06BA17CA18DA16F
:104AC0009EA10E94E140DC01CB019AA389A389A1A8
:104AD0009AA19E8F8D8F8D8D9E8D0197F1F79E8F60
:104AE0008D8F80EA60EA0E94C4000E94990380E0F2
:104AF00090E0AAE7B4E4898F9A8FAB8FBC8F698D61
:104B00007A8D8B8D9C8D26E636E646E655E40E942E
:104B1000B742DC01CB018D8B9E8BAF8BB88F6D893B
:104B20007E898F89988D20E030E040E85FE30E9425
:104B3000BD4488232CF481E090E09C8B8B8B3FC09C
:104B40006D897E898F89988D20E03FEF4FE757E48C
:104B50000E945D4418164CF5698D7A8D8B8D9C8D65
:104B600020E030E040E251E40E94B742DC01CB019A
:104B7000BC01CD010E94E140DC01CB019C8B8B8B01
:104B80000FC080E791E09A8B898B89899A89019778
:104B9000F1F79A8B898B8B899C8901979C8B8B8BE6
:104BA0008B899C89009769F714C06D897E898F89EC
:104BB000988D0E94E140DC01CB019C8B8B8B8B8913
:104BC0009C89988B8F878F8598890197F1F7988BAF
:104BD0008F8782E00E94CD06882F90E090932F036C
:104BE00080932E0309C082E00E94CD06882F90E0BA
:104BF00090932F0380932E0320912E0330912F0347
:104C000080910202909103022817390764F30E94F1
:104C1000950680E090E0A8ECB2E48B879C87AD8796
:104C2000BE876B857C858D859E8526E636E646E6C5
:104C300055E40E94B742DC01CB018F839887A98796
:104C4000BA876F81788589859A8520E030E040E8D1
:104C50005FE30E94BD4488232CF481E090E09E83B2
:104C60008D833FC06F81788589859A8520E03FEFED
:104C70004FE757E40E945D4418164CF56B857C8520
:104C80008D859E8520E030E040E251E40E94B742ED
:104C9000DC01CB01BC01CD010E94E140DC01CB0174
:104CA0009E838D830FC080E791E09C838B838B81F3
:104CB0009C810197F1F79C838B838D819E81019765
:104CC0009E838D838D819E81009769F714C06F81CB
:104CD000788589859A850E94E140DC01CB019E831D
:104CE0008D838D819E819A83898389819A810197A1
:104CF000F1F79A83898381E090E090930102809399
:104D00000002AA960FB6F894DEBF0FBECDBFCF91BA
:104D1000DF910895DF93CF93CDB7DEB7AA970FB693
:104D2000F894DEBF0FBECDBF84EB64EB0E94C400DD
:104D3000109201021092000280E090E0A8ECB2E430
:104D40008FA398A7A9A7BAA76FA178A589A59AA5A7
:104D500026E636E646E655E40E94B742DC01CB0182
:104D60008BA39CA3ADA3BEA36BA17CA18DA19EA18F
:104D700020E030E040E85FE30E94BD4488232CF44B
:104D800081E090E09AA389A33FC06BA17CA18DA193
:104D90009EA120E03FEF4FE757E40E945D441816C4
:104DA0004CF56FA178A589A59AA520E030E040E2F6
:104DB00051E40E94B742DC01CB01BC01CD010E944D
:104DC000E140DC01CB019AA389A30FC080E791E009
:104DD00098A38F8F8F8D98A10197F1F798A38F8F4C
:104DE00089A19AA101979AA389A389A19AA1009761
:104DF00069F714C06BA17CA18DA19EA10E94E14026
:104E0000DC01CB019AA389A389A19AA19E8F8D8FE2
:104E10008D8D9E8D0197F1F79E8F8D8F80EA60EAD0
:104E20000E94C4000E94C70480E090E0AAE7B4E4B6
:104E3000898F9A8FAB8FBC8F698D7A8D8B8D9C8D6E
:104E400026E636E646E655E40E94B742DC01CB0191
:104E50008D8B9E8BAF8BB88F6D897E898F89988D56
:104E600020E030E040E85FE30E94BD4488232CF45A
:104E700081E090E09C8B8B8B3FC06D897E898F8910
:104E8000988D20E03FEF4FE757E40E945D441816ED
:104E90004CF5698D7A8D8B8D9C8D20E030E040E261
:104EA00051E40E94B742DC01CB01BC01CD010E945C
:104EB000E140DC01CB019C8B8B8B0FC080E791E044
:104EC0009A8B898B89899A890197F1F79A8B898BBB
:104ED0008B899C8901979C8B8B8B8B899C890097F4
:104EE00069F714C06D897E898F89988D0E94E14091
:104EF000DC01CB019C8B8B8B8B899C89988B8F875A
:104F00008F8598890197F1F7988B8F8782E00E94AF
:104F1000CD06882F90E090932F0380932E0309C035
:104F200082E00E94CD06882F90E090932F0380931B
:104F30002E0320912E0330912F0380910202909135
:104F400003022817390764F30E94950680E090E079
:104F5000A8ECB2E48B879C87AD87BE876B857C8588
:104F60008D859E8526E636E646E655E40E94B742E4
:104F7000DC01CB018F839887A987BA876F817885F9
:104F800089859A8520E030E040E85FE30E94BD44D7
:104F900088232CF481E090E09E838D833FC06F8155
:104FA000788589859A8520E03FEF4FE757E40E9496
:104FB0005D4418164CF56B857C858D859E8520E0BB
:104FC00030E040E251E40E94B742DC01CB01BC0179
:104FD000CD010E94E140DC01CB019E838D830FC097
:104FE00080E791E09C838B838B819C810197F1F713
:104FF0009C838B838D819E8101979E838D838D8180
:105000009E81009769F714C06F81788589859A859C
:105010000E94E140DC01CB019E838D838D819E81C6
:105020009A83898389819A810197F1F79A83898389
:1050300081E090E09093010280930002AA960FB65F
:10504000F894DEBF0FBECDBFCF91DF910895DF93FF
:10505000CF93CDB7DEB7AA970FB6F894DEBF0FBED9
:10506000CDBF84EB64EB0E94C40010920102109249
:10507000000280E090E0A8ECB2E48FA398A7A9A773
:10508000BAA76FA178A589A59AA526E636E646E6D1
:1050900055E40E94B742DC01CB018BA39CA3ADA3D6
:1050A000BEA36BA17CA18DA19EA120E030E040E8D1
:1050B0005FE30E94BD4488232CF481E090E09AA332
:1050C00089A33FC06BA17CA18DA19EA120E03FEFF1
:1050D0004FE757E40E945D4418164CF56FA178A580
:1050E00089A59AA520E030E040E251E40E94B74251
:1050F000DC01CB01BC01CD010E94E140DC01CB0110
:105100009AA389A30FC080E791E098A38F8F8F8D1A
:1051100098A10197F1F798A38F8F89A19AA1019780
:105120009AA389A389A19AA1009769F714C06BA1DA
:105130007CA18DA19EA10E94E140DC01CB019AA33C
:1051400089A389A19AA19E8F8D8F8D8D9E8D0197A8
:10515000F1F79E8F8D8F80EA60EA0E94C4000E9462
:10516000050380E090E0AAE7B5E4898F9A8FAB8FC2
:10517000BC8F698D7A8D8B8D9C8D26E636E646E652
:1051800055E40E94B742DC01CB018D8B9E8BAF8B27
:10519000B88F6D897E898F89988D20E030E040E856
:1051A0005FE30E94BD4488232CF481E090E09C8B57
:1051B0008B8B3FC06D897E898F89988D20E03FEF72
:1051C0004FE757E40E945D4418164CF5698D7A8DBF
:1051D0008B8D9C8D20E030E040E251E40E94B7428C
:1051E000DC01CB01BC01CD010E94E140DC01CB011F
:1051F0009C8B8B8B0FC080E791E09A8B898B898980
:105200009A890197F1F79A8B898B8B899C890197F1
:105210009C8B8B8B8B899C89009769F714C06D8957
:105220007E898F89988D0E94E140DC01CB019C8BA7
:105230008B8B8B899C89988B8F878F859889019719
:10524000F1F7988B8F8782E00E94CD06882F90E03F
:1052500090932F0380932E0309C082E00E94CD0615
:10526000882F90E090932F0380932E0320912E039C
:1052700030912F0380910202909103022817390781
:1052800064F30E94950680E090E0A8ECB2E48B877E
:105290009C87AD87BE876B857C858D859E8526E640
:1052A00036E646E655E40E94B742DC01CB018F8327
:1052B0009887A987BA876F81788589859A8520E044
:1052C00030E040E85FE30E94BD4488232CF481E095
:1052D00090E09E838D833FC06F81788589859A8514
:1052E00020E03FEF4FE757E40E945D4418164CF56D
:1052F0006B857C858D859E8520E030E040E251E421
:105300000E94B742DC01CB01BC01CD010E94E1400B
:10531000DC01CB019E838D830FC080E791E09C83ED
:105320008B838B819C810197F1F79C838B838D818B
:105330009E8101979E838D838D819E81009769F761
:1053400014C06F81788589859A850E94E140DC01CF
:10535000CB019E838D838D819E819A8389838981F0
:105360009A810197F1F79A83898381E090E0909385
:10537000010280930002AA960FB6F894DEBF0FBE1A
:10538000CDBFCF91DF910895DF93CF93CDB7DEB737
:10539000AA970FB6F894DEBF0FBECDBF10920102E0
:1053A000109200020E94950680E090E0A8ECB2E422
:1053B0008FA398A7A9A7BAA76FA178A589A59AA531
:1053C00026E636E646E655E40E94B742DC01CB010C
:1053D0008BA39CA3ADA3BEA36BA17CA18DA19EA119
:1053E00020E030E040E85FE30E94BD4488232CF4D5
:1053F00081E090E09AA389A33FC06BA17CA18DA11D
:105400009EA120E03FEF4FE757E40E945D4418164D
:105410004CF56FA178A589A59AA520E030E040E27F
:1054200051E40E94B742DC01CB01BC01CD010E94D6
:10543000E140DC01CB019AA389A30FC080E791E092
:1054400098A38F8F8F8D98A10197F1F798A38F8FD5
:1054500089A19AA101979AA389A389A19AA10097EA
:1054600069F714C06BA17CA18DA19EA10E94E140AF
:10547000DC01CB019AA389A389A19AA19E8F8D8F6C
:105480008D8D9E8D0197F1F79E8F8D8F80EA60EA5A
:105490000E94C4000E94990380E090E8A9E0B5E46E
:1054A000898F9A8FAB8FBC8F698D7A8D8B8D9C8DF8
:1054B00026E636E646E655E40E94B742DC01CB011B
:1054C0008D8B9E8BAF8BB88F6D897E898F89988DE0
:1054D00020E030E040E85FE30E94BD4488232CF4E4
:1054E00081E090E09C8B8B8B3FC06D897E898F899A
:1054F000988D20E03FEF4FE757E40E945D44181677
:105500004CF5698D7A8D8B8D9C8D20E030E040E2EA
:1055100051E40E94B742DC01CB01BC01CD010E94E5
:10552000E140DC01CB019C8B8B8B0FC080E791E0CD
:105530009A8B898B89899A890197F1F79A8B898B44
:105540008B899C8901979C8B8B8B8B899C8900977D
:1055500069F714C06D897E898F89988D0E94E1401A
:10556000DC01CB019C8B8B8B8B899C89988B8F87E3
:105570008F8598890197F1F7988B8F8782E00E9439
:10558000CD06882F90E090932F0380932E0309C0BF
:1055900082E00E94CD06882F90E090932F038093A5
:1055A0002E0320912E0330912F03809102029091BF
:1055B00003022817390764F30E94950680E090E003
:1055C000A8ECB2E48B879C87AD87BE876B857C8512
:1055D0008D859E8526E636E646E655E40E94B7426E
:1055E000DC01CB018F839887A987BA876F81788583
:1055F00089859A8520E030E040E85FE30E94BD4461
:1056000088232CF481E090E09E838D833FC06F81DE
:10561000788589859A8520E03FEF4FE757E40E941F
:105620005D4418164CF56B857C858D859E8520E044
:1056300030E040E251E40E94B742DC01CB01BC0102
:10564000CD010E94E140DC01CB019E838D830FC020
:1056500080E791E09C838B838B819C810197F1F79C
:105660009C838B838D819E8101979E838D838D8109
:105670009E81009769F714C06F81788589859A8526
:105680000E94E140DC01CB019E838D838D819E8150
:105690009A83898389819A810197F1F79A83898313
:1056A00089E190E0909319038093180381E090E0E2
:1056B0009093010280930002AA960FB6F894DEBF81
:1056C0000FBECDBFCF91DF910895DF93CF93CDB7BC
:1056D000DEB780EA60EA0E94C400CF91DF910895AE
:1056E000DF93CF930F920F92CDB7DEB782E00E9487
:1056F000CD06882F90E090932F0380932E0383E0B4
:105700000E94CD06882F90E0909329038093280370
:1057100081E00E94CD06882F90E090934103809312
:10572000400380912803909129039C0182E061E06D
:10573000A90123E030E00E94E40F80912E039091B4
:105740002F039C0182E065E0A90123E030E00E9484
:10575000E40F80914003909141039C0182E069E055
:10576000A90123E030E00E94E40F8091260390918C
:1057700027038130910519F5809128039091290321
:105780008E3091053CF080912E0390912F038F3144
:10579000910584F480914003909141038E309105EE
:1057A0000CF44DC080912E0390912F038F31910501
:1057B0000CF445C084E690E09A83898340C08091D0
:1057C0002803909129038C3091059CF0809140032F
:1057D000909141038C30910564F080912603909163
:1057E00027038130910529F084E690E09A8389832C
:1057F00026C080912E0390912F03803191051CF0DB
:105800001A8219821CC0809140039091410380311B
:1058100091052CF081E090E09A83898310C08091FB
:10582000280390912903803191052CF08FEF9FEF91
:105830009A83898304C08CE99FEF9A838983898145
:105840009A810F900F90CF91DF910895DF93CF93BE
:10585000CDB7DEB7E0970FB6F894DEBF0FBECDBF71
:1058600010920102109200028BE00E94CD06882F58
:1058700090E09EA78DA71CA61BA68DA59EA585368C
:1058800091052CF081E090E098AB8FA71CC28DA50C
:105890009EA5893291052CF082E090E098AB8FA70D
:1058A00012C284EB64EB0E94C40083E00E94CD0628
:1058B000882F90E090932903809328030E949903F6
:1058C0001BC08BE00E94CD06882F90E09EA78DA77D
:1058D0002DA53EA58BA59CA58217930724F48DA525
:1058E0009EA59CA78BA783E00E94CD06882F90E001
:1058F0009093290380932803809128039091290392
:1059000084319105F4F20E94950680E090E0A8ECC5
:10591000B2E48FA398A7A9A7BAA76FA178A589A574
:105920009AA526E636E646E655E40E94B742DC0133
:10593000CB018BA39CA3ADA3BEA36BA17CA18DA126
:105940009EA120E030E040E85FE30E94BD44882350
:105950002CF481E090E09AA389A33FC06BA17CA1C5
:105960008DA19EA120E03FEF4FE757E40E945D44E8
:1059700018164CF56FA178A589A59AA520E030E00E
:1059800040E251E40E94B742DC01CB01BC01CD01F1
:105990000E94E140DC01CB019AA389A30FC080E7FC
:1059A00091E098A38F8F8F8D98A10197F1F798A31D
:1059B0008F8F89A19AA101979AA389A389A19AA1FE
:1059C000009769F714C06BA17CA18DA19EA10E94D4
:1059D000E140DC01CB019AA389A389A19AA19E8F02
:1059E0008D8F8D8D9E8D0197F1F79E8F8D8F81E02C
:1059F0000E94CD06882F90E090934103809340034E
:105A00000E9405031BC08BE00E94CD06882F90E00A
:105A10009EA78DA72DA53EA58BA59CA582179307B4
:105A200024F48DA59EA59CA78BA781E00E94CD069E
:105A3000882F90E09093410380934003809140032E
:105A40009091410384319105F4F20E94950680E023
:105A500090E0A8ECB2E4898F9A8FAB8FBC8F698DF0
:105A60007A8D8B8D9C8D26E636E646E655E40E94BF
:105A7000B742DC01CB018D8B9E8BAF8BB88F6D89CC
:105A80007E898F89988D20E030E040E85FE30E94B6
:105A9000BD4488232CF481E090E09C8B8B8B3FC02D
:105AA0006D897E898F89988D20E03FEF4FE757E41D
:105AB0000E945D4418164CF5698D7A8D8B8D9C8DF6
:105AC00020E030E040E251E40E94B742DC01CB012B
:105AD000BC01CD010E94E140DC01CB019C8B8B8B92
